:020000040800F2
:100000000000022055380008A1380008A138000877
:10001000A1380008A1380008A1380008000000003D
:10002000000000000000000000000000A1380008EF
:10003000A138000800000000A1380008A13800081D
:10004000A1380008A1380008A1380008A13800082C
:10005000A1380008A1380008A1380008A13800081C
:10006000A1380008A1380008A1380008A13800080C
:10007000A1380008A1380008A1380008A1380008FC
:10008000A1380008A1380008A138000800000000CD
:10009000000000000000000000000000A13800087F
:1000A000A1380008A1380008A1380008A1380008CC
:1000B000A1380008A1380008A1380008A1380008BC
:1000C000A1380008A1380008A1380008A1380008AC
:1000D000A1380008A1380008A1380008000000007D
:1000E000A1380008A1380008A1380008000000006D
:1000F000000000000000000000000000A13800081F
:1001000000000000A1380008A1380008A13800084C
:1001100000000000000000000000000000000000DF
:10012000A1380008A1380008A1380008A13800084B
:10013000A1380008000000000000000000000000DE
:10014000000000000000000000000000A1380008CE
:10015000A1380008A1380008A1380008A13800081B
:10016000A1380008A13800080000000000000000CD
:10017000000000000000000000000000000000007F
:1001800000000000A138000800000000000000008E
:10019000A1380008A138000810B5054C237833B900
:1001A000044B13B10448AFF300800123237010BD4A
:1001B00068040020000000000CBB0208084B10B5CA
:1001C0001BB108490848AFF300800848036803B929
:1001D00010BD074B002BFBD0BDE81040184700BFF7
:1001E000000000006C0400200CBB0208600400202A
:1001F00000000000154B002B08BF134B9D46A3F5D4
:10020000803A00218B460F461348144A121A1EF0FA
:100210004CFA0F4B002B00D098470E4B002B00D010
:1002200098470020002104000D000D48002802D04E
:100230000C48AFF300801EF00BF82000290004F0FA
:10024000C3FD1DF06FFC00BF00000800000002208D
:10025000000000000000000068040020801D002055
:10026000000000000000000008B503F0A3FC00211E
:1002700008BD0000044B01221A60044B5A6A044B6B
:100280001A6000225A60704784040020000C00406D
:1002900088040020034B1A68034B5A62034B002268
:1002A0001A60704788040020000C0040840400207D
:1002B0000A6802604A6842608A688260CA68C260EE
:1002C0000A690261704702680B689A4211D142685C
:1002D0004B689A420DD182688B689A4209D1C268F4
:1002E000CB689A4205D1036908691B1A58425841E4
:1002F00070470020704708B5FFF7E5FF80F0010068
:10030000C0B208BD0A6802608A6882604A684260BA
:10031000CA68C2600A690261704702680B689A4243
:1003200016DB17D142684B689A4211DB12D1826802
:100330008B689A420CDB0DD1C268CB689A4207DB0E
:1003400008D1036908698342ACBF002001207047CF
:10035000012070470020704770B50C689C420ADB92
:1003600094FBF3F415682C4414600C6894FBF3F2CE
:1003700003FB124313E0002C12DA94FBF3F686EA37
:10038000E675A5EBE67503FB1644002C0CBF2C4666
:100390006C1C15682D1B15600A6804FB03230B6099
:1003A00070BD70B5044600F10C052A4604F108063C
:1003B0004FF47A7300F11001FFF7CEFF3246294661
:1003C0004FF47A73251D2046FFF7C6FF2A463146B3
:1003D0003C232046FFF7C0FF3C2322462946204607
:1003E000FFF7BAFF204670BD10B547F6FF730360F4
:1003F0003B234360836040F2E7330446C3600361FC
:10040000FFF7CFFF204610BD2DE9F0438BB00E461D
:100410004FF03B0840F2E737044647F6FF7968465D
:100420001546CDF80090CDF80480CDF808800397EC
:100430000497FFF7B6FF69463046FFF744FF78B9E7
:1004400005A8CDF81490CDF81880CDF81C80089739
:100450000997FFF7A6FF05A92846FFF734FF68B103
:1004600047F6FF7323603B236360A36040F2E733EA
:10047000E36023612046FFF794FF1AE06B68706821
:10048000B168F268376936681844AB680690194459
:10049000EB6807911A442B692D6808923B44354458
:1004A00005A805950993FFF77CFF05A92046FFF7EE
:1004B000FFFE20460BB0BDE8F0832DE9F0438BB082
:1004C0000E464FF03B0840F2E737044647F6FF7907
:1004D00068461546CDF80090CDF80480CDF8088028
:1004E00003970497FFF75DFF69463046FFF7EBFE81
:1004F00078B905A8CDF81490CDF81880CDF81C80F7
:1005000008970997FFF74DFF05A92846FFF7DBFE7F
:1005100068B147F6FF7323603B236360A36040F23A
:10052000E733E36023612046FFF73BFF1AE06B6887
:100530007068A968EA682F692D68C01AB3680690C8
:10054000591AF36807919A1A336936680892DB1BC7
:10055000751B05A805950993FFF723FF05A92046FC
:10056000FFF7A6FE20460BB0BDE8F083D0B51646D7
:100570001F4604461C4A00233046394626F048FBF5
:1005800060602046FFF70DFF6268174B5343F61A71
:1005900067EBE377154A00233046394626F038FBEF
:1005A000A0602046FFF7FDFEA268104B5343F61AE9
:1005B00067EBE3774FF47A7200233046394626F032
:1005C00027FBE0602046FFF7ECFEE2684FF47A7309
:1005D0005343F61A26612046FFF7E3FE2046FFF755
:1005E000E0FE2046D0BD00BF0087930340420F00CD
:1005F00030B59FB047F6FF7305933B230D46069336
:100600000793044640F2E73305A808930993FFF7E0
:10061000C8FE05A92846FFF756FE20B1184905A8CF
:100620001FF095FC0BE02B690293EB680193AB681C
:10063000009395E80C00134905A81FF0E9FB04F1AD
:100640000803236005A820F0BFF905AB0F2803EBD2
:100650000005049007D9002204A9204610F024FFC9
:10066000049B2060A3602A4605A9206810F0ABFF18
:10067000049B2268636000212046D1541FB030BD26
:100680006C6F0208706F0208D0B50446FFF7ECFDEE
:10069000084BD3E900670023821B23606360A360DB
:1006A000E3602361204661EB0703FFF75FFF20460D
:1006B000D0BD00BF9004002008B5FFF7D5FD024B68
:1006C000C3E9000108BD00BF9004002004480023D6
:1006D000036043608360C3600361FFF762BE00BFD5
:1006E0009804002070477047704770477047704704
:1006F0007047704770477047704700207047002070
:1007000070470020704770477047704770477047C8
:1007100070470000054B9A685B6812681A420CBF6C
:10072000012300230B600120704700BF400500201B
:10073000704703685B68184710B5044604F0DDFB9A
:10074000204610BD08B508B1FFF7F6FF08BD10B58B
:10075000044604F0D2FB204610BD08B508B1FFF7EF
:10076000F6FF08BD10B5044604F0C7FB204610BDD7
:1007700008B508B1FFF7F6FF08BD10B5044604F050
:10078000BCFB204610BD10B5044604F0B6FB204665
:1007900010BD10B5044604F0B0FB204610BD10B5E6
:1007A000044604F0AAFB204610BD10B5044604F030
:1007B000A4FB204610BD10B5044604F09EFB204665
:1007C00010BD10B5044604F098FB204610BD10B5CE
:1007D000044604F092FB204610BD04F08EBB04F0EA
:1007E0008CBB04F08ABB04F088BB04F086BB04F029
:1007F00084BB04F082BB04F080BB002380F8E030AF
:1008000000F5F8713030FFF77DBD000010B50446EB
:100810000846034904F04AFE08B104F10C0010BD7B
:100820001874020810B504460846034904F03EFE59
:1008300008B104F10C0010BD1874020810B504468C
:100840000846034904F032FE08B104F10C0010BD63
:100850001874020810B504460846034904F026FE41
:1008600008B104F10C0010BD1874020810B504465C
:100870000846034904F01AFE08B104F10C0010BD4B
:100880001874020810B504460846034904F00EFE29
:1008900008B104F10C0010BD1874020810B504462C
:1008A0000846034904F002FE08B104F10C0010BD33
:1008B0001874020810B504460846034904F0F6FD12
:1008C00008B104F10C0010BD18740208014802F0D0
:1008D000B1BF00BF3D7A020810B530310446FFF7C2
:1008E000E7FC204610BD000000F1080373B5044684
:1008F00003600D4681B1084620F066F80F2805EB2D
:10090000000601900BD9002201A9204610F0CCFD71
:10091000019B2060A36002E0074805F0ADFD324670
:100920002946206810F04AFE019B2268636000217E
:100930002046D15402B070BD437A020808B548B1D0
:10094000B0F1805F01D305F091FD0001BDE80840E2
:1009500004F096BD08BD08B104F0CFBA704708B5E1
:1009600048B1B0F1005F01D305F080FDC000BDE8E3
:10097000084004F085BD08BDC3680C305B681847AB
:10098000C3680C305B681847C3680C305B68184755
:10099000C3680C305B681847C3680C305B68184745
:1009A000C3680C305B681847036810B504469B6841
:1009B0009847A368013BA3602BB923682046DB68F6
:1009C000BDE81040184710BD094A0B68D16852684D
:1009D000012B18BF1204074B1DBF0A60DA685B6861
:1009E0000A6006BFDA685B681B0413600120704769
:1009F000FC0400200C050020094A0B68D1685268ED
:100A0000012B18BF1204074B1DBF0A60DA685B6830
:100A10000A6006BFDA685B681B0413600120704738
:100A2000BC040020CC040020094A0B68D16852683D
:100A3000012B18BF1204074B1DBF0A60DA685B6800
:100A40000A6006BFDA685B681B0413600120704708
:100A5000AC040020EC040020094A0B68D1685268FD
:100A6000012B18BF1204074B1DBF0A60DA685B68D0
:100A70000A6006BFDA685B681B04136001207047D8
:100A800030050020DC04002070B500F1100314468E
:100A90000025A3F11006B14219D0ACB153F8106C87
:100AA0002660656053F80C6C43F80C5C666053F884
:100AB000086C43F8105CE560A66053F8046C43F8DA
:100AC000045CE66043F8085C10341033E1E7081A70
:100AD000104470BD054B9A685B6812681A420CBFDF
:100AE000012300230B600120704700BF2005002078
:100AF00038B5102204460D4600211DF0D6FD2046D3
:100B0000294604F07BF8204638BD000038B504467D
:100B100000250649FFF7CCFB6561A561044904F196
:100B20001C00FFF7E1FE6563204638BD98040020F5
:100B30008A7A020870B5044615460E46FFF7A4FDF2
:100B400000236361A361314604F11C0011F0B4F885
:100B50002B686363204670BD10B592B00446014611
:100B60006846FFF745FD214A0021684610F086FFE0
:100B7000014606A810F0A7FD1D4906A810F0CAFFFF
:100B800001460CA810F09FFD0C9802F053FE0CA833
:100B900010F0A6FC06A810F0A3FC684610F0A0FC1C
:100BA000216A0EAB0C930CA8002307310D938DF82E
:100BB000383010F0C8FD07220E490CA810F09AFF3B
:100BC00004F11C010CA810F08BFF0C9802F032FE0F
:100BD0000CA810F085FC626B07490CA81FF018F9EF
:100BE0000CA802F027FE12B010BD00BF6D7A0208FB
:100BF000897A0208757A02087D7A0208144BDA684D
:100C00005B681B041360134BDA685B681B0413609A
:100C1000114BDA685B681B041360104BDA685B6881
:100C20001B0413600E4BDA685B681B0413600D4BEA
:100C3000DA685B681B0413600B4BDA685B681B04A3
:100C400013600A4BDA685B681B041360704700BFCF
:100C500030050020DC040020FC0400200C050020EE
:100C6000AC040020EC040020BC040020CC040020D4
:100C700010B50446006828B14368013B43600BB9D6
:100C8000FFF792FE204610BD10B504460C30FFF76A
:100C9000EFFF201DFFF7ECFF204610BD10B5044606
:100CA0000C30FFF7E5FF201DFFF7E2FF204610BDE7
:100CB0000B68036013B15A6801325A60704710B56F
:100CC00051F8043B044640F8043BFFF7F1FF20468F
:100CD00010BD38B504460D46FFF7EAFA05F11401D8
:100CE00004F11400FFF7EBFF05F11C0104F11C00F7
:100CF00010F0E2FF6B6B6363204638BD70B50546AC
:100D00000E461446AE4207D01CB129462046FFF7D6
:100D1000E0FF38353834F5E7204670BD70B50E4633
:100D200014460546B54207D01CB129462046FFF7B8
:100D3000D0FF38343835F5E7204670BD38B551F866
:100D4000043B0546144640F8043BFFF7B1FF21463B
:100D500005F10C0051F8043BAB60FFF7A9FF2846F2
:100D600038BD70B590E860000446AE4204D0284615
:100D7000FFF794FF1035F8E72068FFF7ECFD2046F9
:100D800070BD38B5C46884B104F1100504F11C00CD
:100D9000FFF7E7FF2846FFF7E4FF6068FFF7DBFD9A
:100DA0002046BDE8384004F0A8B838BD10B5044668
:100DB0001C3010F095FB04F11800FFF759FF204696
:100DC00010BD000010B5044B044640F8043BFFF78B
:100DD0000BFB204610BD00BFE077020838B5044683
:100DE00008680D4668B10023084A094904F01EF856
:100DF00038B12346291D43F8040B1846FFF758FF66
:100E000002E0002323606360204638BDF8700208CA
:100E1000247002082DE9F0430C468BB011460646BB
:100E200004F1140520461746FFF76CFA04F1580147
:100E30002846FFF767FA616B69B10B6868469B68E3
:100E40009847214605A86A46FFF7DEFA05A9284615
:100E5000FFF758FA1AE0D4F82C80A46AA04515D000
:100E6000D4F80090394605A8FFF722FA49466846AB
:100E700005AAFFF7CFFF29466846FFF74EFA18B1DB
:100E800069462846FFF73EFA0834E7E72946304628
:100E9000FFF70EFA30460BB0BDE8F0832DE9F041C4
:100EA0004B680E689E1B002304460360436083600A
:100EB000F0100F46FFF753FD064420606060A66007
:100EC00097E840010546B04507D01DB13146284698
:100ED000FFF7F5FE08350836F5E765602046BDE802
:100EE000F081000038B5044608680D4668B100235B
:100EF000084A094903F09AFF38B12346291D43F8EF
:100F0000040B1846FFF7D4FE02E000232360636061
:100F1000204638BD607002082470020838B50546C6
:100F20000C68006884420BD014B1636801336360BD
:100F300028B14368013B43600BB9FFF735FD2C60D6
:100F4000284638BD2DE9F04F97B00025D0F814A001
:100F50000469029580460E4603950495059554450F
:100F600000F0898023680B9323B1211D0CA8FFF7A3
:100F70009FFE00E00C930B9B049904930DF158091C
:100F8000059B109149F8143D0C9A059248460C9522
:100F90000B95FFF76DFE0CA8FFF76AFED8F81070EE
:100FA00006A8E71BFFF770FB3F111423D8F80410C5
:100FB0005F4301EB070B04990BA83031FFF778F979
:100FC000594610A80BAAFFF71FFA10A906A8FFF7A9
:100FD000A4F900284DD10498036801A9DB6898475B
:100FE0008346002845D0A3680B932BB104F10C0174
:100FF0000CA8FFF75DFE00E00C9300230C9A0B9900
:101000000C930B93029B10934846039B029103920F
:101010001193FFF72DFE0CA8FFF72AFED8F8043035
:1010200010A81F44FFF730FB10A93846FFF76AF9F4
:1010300010A8FFF729FB10A93046FFF763F9029BC0
:10104000736103A906F11800FFF768FF049910A85F
:10105000183110F031FE10A906F11C0010F0B8FA9A
:1010600010A810F03DFA019B73633046FFF774FD42
:1010700003E0103473E74FF0000B05A8FFF7F8FD0D
:1010800003A8FFF7F5FD584617B0BDE8F08F38B557
:1010900004460D46FFF713FE05F1080104F10800B0
:1010A000FFF70DFE204638BD2DE9F04104460E46FF
:1010B000FFF7F4FE06F10C0104F10C00FFF7EEFE61
:1010C000F369B769DF1B00233811A361E361236271
:1010D000FFF734FC0744A061E0612762D6F81C806A
:1010E000B7690546B84507D01DB139462846FFF710
:1010F000CEFF10351037F5E7E56106F1240104F164
:101100002400FFF7CBFE2046BDE8F08138B509C8C2
:101110001B1A1B116FF07044E51A8D4202D2104663
:1011200005F0ADF98B422CBFD8185818834203D86C
:10113000A04228BF204638BD204638BD70B50646BF
:101140000C466CB1E1683046FFF7F8FFA56804F182
:101150001800FFF78DFD204603F0CFFE2C46F0E788
:1011600070BD08B542684B689A4208D14AB1096817
:1011700000681DF065FAB0FA80F0400908BD002053
:1011800008BD012008BD000030B549688FB0044695
:101190003839684604F13005FFF79BFD14492846AD
:1011A000FFF7B0F8002384F8E03004F1500107A8FD
:1011B000FFF7D7FF28B10D9B012B0CBF03230123A1
:1011C0000AE004F1680107A8FFF7CBFF50B10D9BBF
:1011D000012B0CBF0423022384F8E0300449284685
:1011E000FFF790F86846FFF7E1FD0FB030BD00BF94
:1011F0009804002038B504460D46AC4204D0201DAA
:10120000FFF736FD0834F8E738BD10B5044603C8CB
:10121000FFF7F0FF2068FFF79EFB204610BDF8B5F2
:1012200090E80C009B1ADB1014BF1A4601229A1892
:1012300004460E466FF0604504D2AA4228BF2A46F3
:10124000174600E02F463846FFF789FB054694E82D
:101250000900181A281802D03146FFF730FD94E82B
:1012600003002B4600F108064FF0000EA6F108021D
:1012700091420ED053B156F8082C83E8044056F83A
:10128000042C46F804EC5A6046F808EC083308369B
:10129000ECE70E1A08362E44FFF7ACFF2068FFF784
:1012A0005AFB84E8600005EBC705A560F8BD4368FC
:1012B0008268934210B5044607D013B11846FFF771
:1012C000FEFC63680833636010BDFFF7A8FF10BD24
:1012D00038B504460D46AC4204D02046FFF7D4FC96
:1012E0001034F8E738BD10B504462430FFF78DFF01
:1012F000E169A069FFF7ECFFA069FFF72CFB04F19F
:101300000C00FFF782FF2046FFF77FFF204610BD4D
:1013100010B5C46854B12046054B40F8183BFFF7A0
:10132000E2FF2046BDE8104003F0E7BD10BD00BF5E
:1013300034780208F8B582684368934204460E4642
:1013400007D013B11846FFF7A2FE6368103363603D
:10135000F8BD124A0121FFF7D9FE0746FFF7EEFA62
:10136000054694E80900181A281802D03146FFF7FC
:101370008EFE2A4694E80300FFF786FB064694E8B3
:101380000300FFF7A5FF2068FFF7E5FA1036256098
:1013900005EB07156660A560F8BD00BF9E7A0208E0
:1013A0004368826893422DE9F04105460C4613D00C
:1013B00073B10A681A6000225A6049686260596015
:1013C000A1682260DA609960E168E260D960A26099
:1013D00010336B60BDE8F081194A0121FFF796FEDA
:1013E0008046FFF7ABFA064695E803000B1AF218A1
:1013F00012D02768F75000235360D4F804E0A768A0
:101400006360C2F804E02360D360D4F80CE0976016
:10141000E360C2F80CE0A3603246FFF735FB0446F8
:1014200095E80300FFF754FF2868FFF794FA10349B
:101430002E6006EB08166C60AE60BDE8F08100BF60
:101440009E7A020870B50E461446051D2B1F9E425B
:1014500010D064B1204655F8043C40F8043B2946BE
:10146000FFF726FC291D04F10800FFF728FC1034C3
:101470001035EBE7204670BD70B54B680D685D1BFD
:101480000023044603604360836028110E46FFF783
:1014900055FA054420606060A560024696E80300A6
:1014A000FFF7D0FF6060204670BD8B6870B51646B0
:1014B00004460D1D01225BB130681A69904234BFA9
:1014C0009868D8681D4634BF012200220346F2E71F
:1014D00032B1CA6895420AD0284604F0C1F800E04B
:1014E0002846336802699A424FF0000302D284E82A
:1014F000280001E084E80900204670BD38B51C468C
:101500000546031D41B99A4206D0106921698142FE
:101510002CBF0020012000E00120214604F0A2F8A9
:101520006B6901336B61204638BD2DE9F7430546F1
:101530001C2017461E46894603F0A2FF31463B6831
:10154000036100F1180851F8043B4361044640462A
:10155000FFF7AEFB04F1100249466846FFF7A5FF0E
:10156000019E009F4EB12346324639464846FFF75A
:10157000C5FF012328602B7107E04046FFF778FB89
:10158000204603F0BAFC2F602E71284603B0BDE858
:10159000F0832DE9F7431C4605461C20894603F0DD
:1015A0006FFF236806461F6807612B1D00F11008B6
:1015B00099454FF000007061B0614C4608D16B69ED
:1015C000002B4BD02A691369BB4247D2044636E050
:1015D000D9F81030BB4217D9EB684B45484611D0BB
:1015E00004F03EF80369BB4205D2C368002B0CBF70
:1015F0000024484606E0684642462946FFF755FF64
:10160000009C0198024619E01FD22B694B4513D06C
:10161000484604F012F80369BB4206D9D9F80C30E9
:10162000002B0CBF0020044606E0684642462946CF
:10163000FFF73BFF9DE81100224604462AB13346DE
:1016400021462846FFF75AFF10E006F11800FFF781
:101650000FFB304603F051FC204607E04246294686
:101660006846FFF722FF009C019AE7E703B0BDE858
:10167000F08300007FB5041D83680A4621464BB104
:1016800015681E69AE4236BFDD689D680B46194677
:101690002B46F4E78C4203D014680B699C4208D2B5
:1016A00004AB43F8042D02AA0092044AFFF771FF2D
:1016B000014601F1140004B070BD00BF3C7A02087D
:1016C00038B5046843681B1BDC100A4B63430A4CA3
:1016D000E51A8D4202D2104604F0D1FE8B422CBF97
:1016E000D8185818834203D8A04228BF204638BDD6
:1016F000204638BDB76DDBB62449920438B50446A0
:101700000D46AC4204D02046FFF750FB3834F8E7D2
:1017100038BD10B5044603C8FFF7F0FF2068FFF797
:101720001AF9204610BD0000154B70B50446C36081
:1017300000F5CC70FFF73AFB04F5B070FFF736FB0D
:1017400004F59470FFF732FB04F1F000FFF72EFB75
:1017500004F15C0604F1EC05AE4204D0183D2846C5
:101760000FF0BEFEF8E704F15000FFF7D2FF054B83
:10177000E36004F12400BDE870400FF0B1BE00BF8B
:1017800010780208EC770208006810B103681B6942
:10179000184770472DE9F04389B0002507464FF4FC
:1017A00004700095019503F06BFE0123064643602B
:1017B00083604D4B46F80C3B04464C4902A8FFF7AA
:1017C00093F83046FFF7FEFA04F5FE76484B494998
:1017D000E36004F12400FFF787F8474BE3603146EC
:1017E00004F13C00FEF764FD04F15C0925656565C4
:1017F000A56504F1640204F1F4012B4642F8082CBB
:1018000042F8043C02F8183B91424FF00005F5D134
:1018100004F1F00084F8EC50FFF778F904F59470C7
:10182000FFF774F904F5B070FFF770F904F5CC70A8
:10183000FFF76CF94FF02808012304F5EA7084F8EB
:10184000D031C4F8D451C4F8D851C4F8DC51C4F82C
:10185000E081C4F8E451FEF7A4FD04F5F470C4F887
:10186000E851C4F8EC51C4F8F051C4F8F481C4F85C
:10187000F851FEF796FD04F110013046FEF718FD11
:101880001E49484610F0DDF81D4904F1740010F0BF
:10189000D8F81C4904F18C0010F0D3F81A4904F16F
:1018A000A40010F0CEF8194904F1BC0010F0C9F8FA
:1018B00008AE174904F1D40010F0C3F802A80FF0E5
:1018C0000FFE46F81C4D13493046FFF75DFF019BA4
:1018D00038607B60304601950095FFF7C9F93846BE
:1018E00009B0BDE8F08300BF647902083D7A0208C0
:1018F000EC770208BA7A020810780208C17A020866
:10190000CF7A0208DE7A0208E87A0208F27A020840
:10191000017B020818740208F0B58FB00024074656
:1019200050200194029403F0ABFD0123064643606E
:1019300083601B4B46F80C3B05461A4908A8FEF786
:10194000D3FFC82303A80693039404940594079433
:10195000FEF727FD3046FFF735FA134BEB6008A979
:1019600005F1240010F0A8F90EAE03A905F13C0022
:10197000FEF79EFC0D4BEB6008A80FF0B1FD46F89A
:10198000305D0B493046FFF7FFFE029B38607B60FD
:10199000304602940194FFF76BF938460FB0F0BD62
:1019A00080790208C17A02084C7802086878020837
:1019B00018740208F0B58FB0002407465020019437
:1019C000029403F05DFD01230646436083601B4BD8
:1019D00046F80C3B05461A4908A8FEF785FFC823C0
:1019E00003A806930394049405940794FEF7D9FC86
:1019F0003046FFF7E7F9134BEB6008A905F1240027
:101A000010F05AF90EAE03A905F13C00FEF750FCA8
:101A10000D4BEB6008A80FF063FD46F8305D0B49F5
:101A20003046FFF7B1FE029B38607B60304602947F
:101A30000194FFF71DF938460FB0F0BD9C790208FC
:101A4000CF7A02084C7802088478020818740208D9
:101A500038B504460D46AC4204D0201DFFF708F906
:101A60000834F8E738BD10B5044603C8FFF7F0FFA7
:101A70002068FEF770FF204610BD10B50446803088
:101A8000FFF747FE04F16C00FFF743FE04F14C0042
:101A9000FFF7E9FF04F13C00FFF7E5FF04F1380030
:101AA000FFF7E6F804F12800FFF7DDFF204610BD40
:101AB00010B5C4683CB12046FFF7DFFF2046BDE803
:101AC000104003F01ABA10BD08B50C30FFF7D5FF6F
:101AD00008BDF8B590E80C009B1ADB1014BF1A463D
:101AE00001229A1804460E466FF0604504D2AA42BD
:101AF00028BF2A46174600E02F463846FEF72FFF3C
:101B000094E80C009B1A0546C01806D031460430F4
:101B100051F8042BEA50FFF7CBF894E803002B466A
:101B200000F108064FF0000EA6F1080291420ED017
:101B300053B156F8082C83E8044056F8042C46F8B4
:101B400004EC5A6046F808EC08330836ECE70E1A45
:101B500008362E44FFF77CFF2068FEF7FCFE84E881
:101B6000600005EBC705A560F8BD38B5436885681A
:101B7000AB4204460BD033B1184651F8042B40F861
:101B8000042BFFF795F863680833636038BDFFF7EF
:101B9000A0FF38BD70B50E461446051D2B1F9E4292
:101BA00010D064B1204655F8043C40F8043B294667
:101BB000FFF77EF8291D04F10800FFF780F81034C4
:101BC0001035EBE7204670BDF7B502AB03E9060020
:101BD000019D009E00232D01044603604360836045
:101BE0002811FEF7ABFE7719054402462060A56078
:101BF00039463046FFF7CEFF6060204603B0F0BDA7
:101C0000091A2DE9F041CD109046161D041D2F46EE
:101C1000002F0BDD54F8043C46F8043C21463046C6
:101C2000FFF77CF9013F08360834F1E725EAE57053
:101C300008EBC000BDE8F08181422DE9F84304467D
:101C4000884660D091E820022268A368C5EB0907A6
:101C5000F8109B1AB0EBE30F22D9FEF780FE043593
:101C6000064600F104082B1F99450ED0B8F1040F69
:101C700007D055F8043C48F8043C29464046FFF795
:101C800017F808F108080835EDE794E80300FFF7B6
:101C9000DFFE2068FEF75FFE26603E44A6602FE070
:101CA0006168891AB0EBE10F0CD828464946FFF766
:101CB000A7FF66680546AE4222D0281DFEF7D8FF72
:101CC0000835F8E729442846FFF79AFF94E84800CA
:101CD000D8F80050D8F80480F31A043304361D44B1
:101CE0002B1F98450CD0042E07D055F8043C46F81D
:101CF000043C29463046FEF7DBFF08360835EFE79F
:101D000023681F4467602046BDE8F8832DE9F0474B
:101D1000002504469CB0056045608560C56005618E
:101D20000E46FEF73EFB6561A561E56125626562D1
:101D300004F11400FEF735FBA562E56225636563D7
:101D4000A563E56325646564E564256565653168BB
:101D500084F84850043104F15800FEF7A9FAE5660A
:101D600025676567C4F88050C4F88450C4F888506B
:101D70003168A5670BAE1831E56710A8FFF794F935
:101D80001022294630461CF090FC109FDDF844904C
:101D9000DFF8BC820F950D960E960837A7F108055F
:101DA000A94500F0E880199B1A98C11A4FEA611EF4
:101DB0001E46BEF1000F33461ADD57F8082C316875
:101DC000914233D0B1688A4202D106F108032EE075
:101DD00031698A4202D106F1100328E0203656F814
:101DE000081C8A4201D1183321E00EF1FF3EE0E7E2
:101DF000821BD210022A0AD0032A02D0012A13D150
:101E00000BE0316857F8082C91420FD0083319685D
:101E100057F8082C91420AD00833196857F8082C53
:101E2000914218BF034602E0034600E03346B0EBA0
:101E3000030A294601A818BF4FF0010AFFF752F81C
:101E4000294603A8FEF7CAFF019B43BB98200593D0
:101E5000069303F015FB064601234360836046F8B2
:101E60000C8B039B0793054604A908A8FEF720FFE7
:101E700007A93046FFF74AFF08A8FEF7F9FE7349A5
:101E8000069506A8FFF780FC05A9059080F848A0F4
:101E900004F12800FFF769FE1CAA039B59E0002605
:101EA00098200596069603F0EBFA0123054602A951
:101EB00043608360C0F80080019B079308A8FEF789
:101EC000F7FEEE602E616E61AE61EE6105F10C0011
:101ED000FEF767FA2E626E62AE62EE622E6305F165
:101EE0002000FEF75EFA079B2B6408A96E63AE63C1
:101EF000EE6305F14400FEF7DBFE0799AE640431A2
:101F0000EE642E65AE65EE652E6605F16400FEF7A3
:101F1000CFF9AE67EE67C5F88060C5F88460C5F894
:101F20008860C5F88C60C5F89060C5F8946008A812
:101F3000FEF79EFE4549069506A8FFF725FC05A974
:101F4000059080F848A004F12800FFF70EFE019BE1
:101F50001CAA42F8703D0AA905AB07A8FFF7E5FAED
:101F600006A8FEF785FE04A8FEF782FE02A8FEF78B
:101F70007FFE083712E7109EDDF844800836002700
:101F8000A6F10803984543D0002108460797089713
:101F90000997FFF75DFD169DDDF85C900897083501
:101FA000A5F10803994521D055F8082C56F8083CAE
:101FB0009A4219D1294603A8FEF794FF294605A89D
:101FC000FEF70CFF039B03B9059B019301A90AA827
:101FD000FFF750FB014607A8FFF7C7FD06A8FEF76D
:101FE00047FE04A8FEF744FE1035D9E71CA956F8B1
:101FF000083C41F85C3D0AA8FFF73CFB006807A9D4
:102000004C30FFF719FE07A8FFF72DFD0836B7E79C
:10201000149F139D04F13C06AF420BD055F8083BCA
:10202000079307A90AA8FFF725FB01463046FFF7EB
:102030009CFDF1E70C990AA8FFF780F810A8FFF7BC
:1020400052F920461CB0BDE8F08700BF18740208A2
:10205000287A0208091A2DE9F0470D119246044624
:102060001646A946B9F1000F04F1100706F1100851
:1020700014DD57F8103C48F8103C211D301DFEF7C8
:102080004DFFA368B36004F10C0106F10C00FEF7EC
:1020900045FF09F1FF3946463C46E3E725EAE5708E
:1020A0000AEB0010BDE8F08781422DE9F0410446BB
:1020B0000E4643D091E880012268A368C7EB08056B
:1020C00028119B1AB0EB231F17D9FEF737FC4146A6
:1020D000024606463846FFF7B5F994E88001B84550
:1020E00004D03846FEF7DAFD1037F8E72068FEF72F
:1020F00032FC26602E44A6601DE06368991AB0EB9E
:10210000211F0CD838464146FFF7A4FF67680646F2
:10211000B74210D03046FEF7C1FD1036F8E739441B
:102120003846FFF797FF94E8050033687168101A86
:102130001844FFF72FFD23681D4465602046BDE865
:10214000F08100002DE9F0470024054691468EB04D
:10215000046044608460C460046198460E46FEF7E3
:1021600020F96C61AC61EC612C62494605F12400F8
:10217000FFF782F9414605F13000FFF77DF931683C
:1021800005F140000431FEF793F899E8900004341B
:10219000231F9F4217D054F8043C099323B12146D2
:1021A0000AA8FEF785FD00E00A93099818B991483E
:1021B0001DF0DAFC02E003681B6998470AA8FEF7E5
:1021C00057FD1034E4E798E890000434231F9F4241
:1021D00017D054F8043C099323B121460AA8FEF70E
:1021E00067FD00E00A93099818B983481DF0BCFC0C
:1021F00002E003681B6998470AA8FEF739FD10340E
:10220000E4E731460EAF51F8043B47F8283D05A8F6
:10221000FEF74EFD8C2003F033F9394600260446C4
:10222000FFF774FD102009940A9603F029F90123A1
:1022300043608360714B0360099B6A69C4606B6192
:10224000AB69A8610AA809920A93FEF711FD05A8D7
:10225000FEF70EFD494601A8FFF70EF94146384644
:10226000FFF70AF9282003F00BF901A9044646609C
:102270008660C660066146618661C6610662466226
:102280001030FFF711FF394604F11C00FFF70CFF77
:10229000636926699E1B3611266009A8FEF7F4F9CA
:1022A000D4F80480E368564AC8EB03039B105343F9
:1022B0009E42B14627D956B1524B9E4201D904F0F5
:1022C000D5F81420704303F0DBF8804600E0B046F8
:1022D000142303FB0686C246B9F1000F0BD0BAF1F6
:1022E000000F03D009A95046FDF7E2FF09F1FF39BD
:1022F0000AF1140AF0E76068A660C4F80480E6609A
:10230000FEF729FB41E0D4F80890C8EB09039B10C5
:102310005A43964202D8B246C14626E0C14506D08D
:10232000404609A9FDF7EEFF08F11408F6E7D4F8D6
:1023300008906368324AC3EB09039B1002FB1366E3
:10234000C846B246BAF1000F0BD0B8F1000F03D067
:1023500009A94046FDF7ACFF0AF1FF3A08F114085D
:10236000F0E7142303FB06960EE0BAF1000F08D045
:10237000484609A9FDF7C6FF0AF1FF3A09F1140919
:10238000F3E7142303FB0686A660002610200994B9
:102390000A9603F075F80123436083601A4B0360CB
:1023A000099BEA69C460EB612B6A28620AA809925A
:1023B0000A93FEF75DFC3846FEF7D3FC01A8FEF752
:1023C000D0FC6C690996082309A80C930A960B9611
:1023D0000D96FDF7E6FF09AA21463846FEF71AFDDD
:1023E00039462846FDF78EFF284685F83C600EB03A
:1023F000BDE8F087107B0208287B02082C790208D0
:10240000CDCCCCCCCCCCCC0C4879020838B50D4620
:102410000446FDF777FF6B69636105F1180104F16C
:102420001800FEF77BFD04F11C0005F11C010FF004
:10243000CFF86B6B6363204638BD0000091A0D4B63
:102440002DE9F041CC105C439046054626461746E0
:10245000002E07DD29463846FFF7D8FF38353837D4
:10246000013EF5E724EAE474382000FB0480BDE86F
:10247000F08100BFB76DDBB6091A2DE9F041CD1030
:102480009046161D041D2F46002F0BDD54F8043C0A
:1024900046F8043C21463046FEF740FD013F083631
:1024A0000834F1E725EAE57008EBC000BDE8F081EB
:1024B0002DE9F8430446551A1746A3682268E81028
:1024C0009B1AB0EBE30F0E461ED9FEF748FA814681
:1024D0008046B7420AD0B8F1000F03D031464046DB
:1024E000FEF7EDFB083608F10808F2E794E8030070
:1024F000FEF780FE4D442068FEF72DFAC4F80090E8
:102500006560A560BDE8F8836568AD1AB0EBE50FBE
:102510000AD839463046FFF7AFFF61680546FEF737
:1025200069FE6560BDE8F8830D4430462946FFF733
:10253000A3FF6668AF4207D01EB129463046FEF7BA
:10254000BEFB08350836F5E76660BDE8F883091A72
:102550002DE9F0470D11924604461646A946B9F1F9
:10256000000F04F1100706F1100814DD57F8103CB5
:1025700048F8103C211D301DFEF7D0FCA368B36065
:1025800004F10C0106F10C00FEF7C8FC09F1FF395B
:1025900046463C46E3E725EAE5700AEB0010BDE855
:1025A000F087000082B02DE9F04FF1B004467B9334
:1025B00003937D9B02930DF1180B7F9B01938BE896
:1025C00006000D46FEF7FEFBB04B236040AA002339
:1025D00004F118081146A361E36123626362A362F8
:1025E000E36223636363A363E3632364636440463A
:1025F000FFF75EFF04F124074CAA4FF000031146D9
:102600003846FFF755FF58A9226B0846FFF79FFF92
:10261000616B06460DF5C87AFEF75AFE666304F153
:102620003C064FF00003524651463046A146FFF7A4
:102630003FFF974B49F8303BDBF8043005EBC30B09
:102640005D453AD029465046FEF7C8FB649921B94A
:1026500029464046FEF72BFE2AE0183110A8FEF767
:1026600023FD119A109B05929A4208D019464046C4
:102670000493FEF71CFE049B059A0833F3E710A8A9
:10268000FEF731FE64991CA81831FEF70DFD239A60
:10269000229B05929A4208D0194648460493FEF7B9
:1026A00049FE049B059A1033F3E71CA8FEF71BFEB6
:1026B00065A8FEF7DDFA0835C2E7039A7C9B15464C
:1026C00002EBC308454523D0294664A8FEF786FBE4
:1026D000649921B929463846FEF7E9FD13E018311F
:1026E00028A8FEF7E1FCDDF8B0A0DDF8AC90CA4503
:1026F00006D049463846FEF7DAFD09F10809F6E743
:1027000028A8FEF7F0FD65A8FEF7B2FA0835D9E76C
:10271000019A809B154602EBC308454521D0294606
:1027200064A8FEF75BFB649921B929463046FEF7A1
:10273000BEFD11E0183134A8FEF7B6FCDDF8F890C4
:102740003D9F4F4505D039463046FEF7B0FD08376E
:10275000F7E734A8FEF7C7FD65A8FEF789FA083544
:10276000DBE7029A7E9B154602EB0318454500F015
:102770008680294608A8FEF731FB05F108010AA862
:10278000FEF72CFB08990A9B29BB2BB9294604F1BB
:102790003000FEF7CFFD6AE003F1180140A8FEF714
:1027A00083FCDDF81091439E04F13007B14510D051
:1027B00029460CA8FEF783FA31460EA8FEF77FFAE9
:1027C0000CA93846FEF7ECFD0CA8FEF75DFA0836BA
:1027D000ECE740A849E01831E3B94CA8FEF764FCE7
:1027E000569F559EB74213D031460CA8FEF767FAA4
:1027F0000A9B0E930BA90FA8FEF75AFA0CA904F135
:102800003000FEF7CDFD0CA8FEF73EFA0836E9E7EA
:102810004CA82AE058A8FEF747FCDDF88891619E95
:10282000B14521D00A9964A81831FEF73DFCDDF8C6
:10283000A0B1679F04F1300ABB4510D031460CA807
:10284000FEF73DFA39460EA8FEF739FA0CA95046B4
:10285000FEF7A6FD0CA8FEF717FA0837ECE764A808
:10286000FEF741FD0836DBE758A8FEF73CFD0BA854
:10287000FEF7FEF909A8FEF7FBF9103576E72046CA
:1028800071B0BDE8F04F02B0704700BF3478020865
:102890004078020810B5044B044640F8183B0EF08F
:1028A0001FFE204610BD00BF4C78020810B5034B38
:1028B00003600446FFF7EEFF204610BDF4780208DF
:1028C00010B50446FFF7F2FF204602F016FB204643
:1028D00010BD000010B5034B03600446FFF7DAFF9C
:1028E000204610BDD878020810B50446FFF7F2FF65
:1028F000204602F002FB204610BD000010B5034B3D
:1029000003600446FFF7C6FF204610BDBC780208EE
:1029100010B50446FFF7F2FF204602F0EEFA20461B
:1029200010BD000010B5034B03600446FFF7B2FF73
:10293000204610BDA078020810B50446FFF7F2FF4C
:10294000204602F0DAFA204610BD000010B5034B15
:1029500003600446FFF79EFF204610BD84780208FE
:1029600010B50446FFF7F2FF204602F0C6FA2046F3
:1029700010BD000010B5034B03600446FFF78AFF4B
:10298000204610BD6878020810B50446FFF7F2FF34
:10299000204602F0B2FA204610BD10B50446FFF7FB
:1029A00079FF204602F0A9FA204610BD38B504464A
:1029B0000D46FEF707FA2046084B40F8183B29461B
:1029C0000FF07AF9002323636363A363E363236453
:1029D00004F13000FDF7E5FC204638BD4C780208D4
:1029E000F0B589B00746002650200096019602F007
:1029F00047FD0123054643608360114B45F80C3BBE
:102A00000446104902A8FDF76FFF02A9284608AD49
:102A1000FFF7CCFF0C4BE36002A80EF061FD45F818
:102A20001C4D0A492846FEF7AFFE019B38607B60CB
:102A3000284601960096FEF71BF9384609B0F0BD0E
:102A4000B8790208DE7A0208A07802081874020831
:102A5000F0B589B00746002650200096019602F096
:102A60000FFD0123054643608360114B45F80C3B85
:102A70000446104902A8FDF737FF02A9284608AD11
:102A8000FFF794FF0C4BE36002A80EF029FD45F818
:102A90001C4D0A492846FEF777FE019B38607B6093
:102AA000284601960096FEF7E3F8384609B0F0BDD7
:102AB000D4790208E87A0208BC780208187402087F
:102AC000F0B589B00746002650200096019602F026
:102AD000D7FC0123054643608360114B45F80C3B4E
:102AE0000446104902A8FDF7FFFE02A9284608ADDA
:102AF000FFF75CFF0C4BE36002A80EF0F1FC45F819
:102B00001C4D0A492846FEF73FFE019B38607B605A
:102B1000284601960096FEF7ABF8384609B0F0BD9E
:102B2000F0790208F27A0208D878020818740208CC
:102B3000F0B589B00746002650200096019602F0B5
:102B40009FFC0123054643608360114B45F80C3B15
:102B50000446104902A8FDF7C7FE02A9284608ADA1
:102B6000FFF724FF0C4BE36002A80EF0B9FC45F818
:102B70001C4D0A492846FEF707FE019B38607B6022
:102B8000284601960096FEF773F8384609B0F0BD66
:102B90000C7A0208017B0208F47802081874020813
:102BA00070B505460E461446B54207D01CB12946FD
:102BB0002046FEF78EF838353834F5E7204670BDEC
:102BC000F7B502AB03E906000023019C03604360F4
:102BD000836038235C430E4A009EE3105A43054647
:102BE00006EB040708D00B4B9A4201D903F03EFCD8
:102BF000204602F045FC024614442A60AC60394687
:102C00003046FFF7CDFF6860284603B0F0BD00BF37
:102C1000B76DDBB6244992042DE9F04F91F8E0A09E
:102C2000C5B0BAF1030F80468B4601F1E4070AAD47
:102C30000CAC01F58E762BD12A464FF0010980317C
:102C40002046CDF82890FDF775FF21463846FFF75E
:102C5000DDFB2046FEF7AAF82A460BF19801204634
:102C6000CDF82890FDF766FF21463046FFF7CEFBF2
:102C70002046FEF79BF839462046FEF72AF83146F3
:102C80001AA8FEF726F8022302AA029403932DE065
:102C9000BAF1010F2CD12A464FF0000980312046AD
:102CA000CDF82890FDF746FF21463846FFF7AEFBEA
:102CB0002046FEF77BF82A460BF198012046CDF816
:102CC0002890FDF737FF21463046FFF79FFB20464F
:102CD000FEF76CF839462046FDF7FBFF31461AA88F
:102CE000FDF7F7FF022304AA049405932B465EE048
:102CF000BAF1040F2CD12A464FF00109B031204619
:102D0000CDF82890FDF716FF21463846FFF77EFBE9
:102D10002046FEF74BF82A460BF1C8012046CDF8B5
:102D20002890FDF707FF21463046FFF76FFB20464E
:102D3000FEF73CF839462046FDF7CBFF31461AA88E
:102D4000FDF7C7FF0223079306942B4606AA2EE041
:102D50004FF00009BAF1020FCDF828902A462BD186
:102D6000B0312046FDF7E6FE21463846FFF74EFB20
:102D70002046FEF71BF82A460BF1C8012046CDF885
:102D80002890FDF7D7FE21463046FFF73FFB20464F
:102D9000FEF70CF839462046FDF79BFF31461AA88E
:102DA000FDF797FF0894CDF824A02B4608AA06CA81
:102DB0004046FFF705FF5BE080312046FDF7BAFE95
:102DC00021463846FFF722FB2046FDF7EFFF2A4653
:102DD0000BF198012046CDF82890FDF7ABFE214677
:102DE0003046FFF713FB2046FDF7E0FF0BF5AA7313
:102DF0002A460BF1B00120460193CDF82890FDF74B
:102E000099FE21460198FFF701FB2046FDF7CEFF12
:102E10000BF5C67A2A460BF1C8012046CDF828905A
:102E2000FDF788FE21465046FFF7F0FA2046FDF7F1
:102E3000BDFF39462046FDF74CFF31461AA8FDF785
:102E400048FF019928A8FDF744FF514636A8FDF731
:102E500040FF04230B930A9408AB95E80600404614
:102E6000FFF7AEFE36A8FDF7A1FF28A8FDF79EFFED
:102E70001AA8FDF79BFF2046FDF798FF404645B096
:102E8000BDE8F08F93422DE9F74F044688469146FE
:102E90009B467AD09B1A456882683D4F521B4FEA89
:102EA000E30AD21007FB0AFA7A4392453ED86A1A1F
:102EB000D6107E43B24501921BD2EE1A2A4629460D
:102EC00030460193FDF71AFF6268019B134463606B
:102ED000C8EB0603DB105F43002F07DD383D383EAB
:102EE00031462846FFF792FA013FF5E74246594638
:102EF00018E0019B09EB03072A4659463846FDF7BF
:102F00000DFF6368C6EB0A0A382202FB0A326260D0
:102F100029464046FDF7F2FE6368019A1344636058
:102F2000424639464846FFF789FA2EE0194A51468B
:102F3000FEF7C6FB054650B1174B984201D903F086
:102F400095FA3820684302F09BFA064600E00646F0
:102F5000324641462068FFF723FE5946024648465E
:102F6000FDF7DCFE616802464046FFF719FE0746A2
:102F700094E80300FEF7C2FB2068FDF7ECFC382361
:102F800084E8C00003FB0565A56003B0BDE8F08FD1
:102F9000B76DDBB6417B02082449920473B504681F
:102FA00005464FF000068DF800600C1BFFF76AFF26
:102FB0002868204402B070BDF0B50D4689B00446C3
:102FC000114605F114001646FDF795F920B10023CE
:102FD00023606360A3603DE0696B21B10B6820460C
:102FE000DB68984736E0EF6AAD6A00910191029183
:102FF0000835A5F108039F421FD055F8081C03A807
:103000001431FDF755F9314603A8FDF75CF90028A6
:10301000EED055F8081C91F84830002BE8D0324625
:1030200003A8FFF7C9FF049B039A01996846FFF7BD
:10303000B5FF03A8FEF76DFBDAE7019A009B62601B
:10304000029A2360A26000236846009301930293D2
:10305000FEF75FFB204609B0F0BD00002DE9F04F00
:10306000C36F466B013391B004460D46C367002E13
:103070003ED0336830469B699847226FE36E04F177
:1030800014069A42314628460AD1FDF71CF920B1B0
:10309000606B03685B68984714E02946204621E08E
:1030A000FDF711F9676B04F16C083B68E8B1D3F8E0
:1030B0001490224629460BA8FDF7FFF90BAA4146BA
:1030C0003846C84729462046FDF71CF9616B0B6856
:1030D00006A89B68984721460BA806AAFDF794F915
:1030E0000BA93046FDF70EF9D2E0D3F81090E0E7D7
:1030F0006C48DFF8B48100F09DFB29462046FDF7BF
:1031000001F9009601960296039604960596E66BE1
:10311000276C0836A6F108094F4521D056F8081C3F
:103120000BA81431FDF7C4F821460BA8FDF7E3F80E
:1031300060B156F8082C136FD26E9B1ADB10424612
:103140005A4303D1494603A8FEF70FFD56F8080C71
:10315000236F016FE26E6C30FFF720FF0836D9E76E
:1031600004F1140841462046FDF7ADF8002851D07F
:10317000D4F82C90A66A0836A6F10807B94549D0BC
:1031800056F8081C0BA81431FDF792F841460BA81D
:10319000FDF799F80028EED039466846FEF7E5FCC1
:1031A00056F8081C0B6DCA6C9B1ADB08E3D022464C
:1031B00006A8FFF701FF56F8083CD3F850B0DF6CC3
:1031C0000837A7F1080AD34520D057F8081C0BA8E8
:1031D0001431FDF76DF821460BA8FDF78CF860B1AE
:1031E00057F8081C304A0B6FC96E5B1ADB105A4344
:1031F00003D1514603A8FEF7B8FC57F8080C079B0B
:10320000016F069A6C30FFF7C9FED9E706A8FEF7F2
:1032100080FAB0E79DE8C000B74205D0294656F8CD
:10322000080BFFF71BFFF7E7049F039EB74205D08B
:10323000294656F8080BFFF711FFF7E7A56AE66A7B
:10324000B54216D02F460835AE4211D029680BA8DA
:103250001431FDF72DF8396806A81431FDF728F868
:1032600006A90BA8FDF759F8002818BF2F46EAE772
:103270003E4631680BA81431FDF71AF80BA94046F9
:10328000FDF740F803A8FEF7EEFB6846FEF7EBFB00
:10329000E56E216F2846FEF731FA256711B0BDE8CB
:1032A000F08F00BF597B0208B76DDBB62DE9F04FF8
:1032B0000C46AFB081469046FDF7FEF994F83C30DD
:1032C00023B341462046FDF728F8002800F0E580AA
:1032D00021466069FFF7C2FE616920A81431FCF73E
:1032E000E7FF20A92046FDF70DF8EAE721466069CF
:1032F000FFF7B4FE616920A81431FCF7D9FF20A9BB
:103300002046FCF7FFFF04A8FEF703FA20A8FDF70C
:10331000BBF9414620A8FDF700F830B941462046E8
:10332000FCF7FBFF002800F0B88020A8FDF7ACF9FF
:10333000214620A8FCF7F1FF00285CD012A8FDF779
:10334000E5FB12A9E069FDF7FDFD00284FD0656996
:1033500012A920A8FDF7BDFC286F6B6F984207D01B
:1033600010B120A9FDF7B5FC2B6F38332B6730E087
:103370004E4A012105F16C00FEF7A2F9064650B154
:103380004B4B984201D903F071F83820704302F09A
:1033900077F8074600E007462B6FE86E181A3818D2
:1033A00002D020A9FDF795FC3A46296FE86EFFF799
:1033B000F7FB296F8246E86EFEF7A0F9E86EFDF78D
:1033C000CAFA0AF138032B67382303FB0676EF6647
:1033D0006E6720A8FDF7EAFC20A8FDF755F920A9A3
:1033E0002046FCF78FFF12A8FDF7E0FC03E012A8CF
:1033F000FDF7DCFC99E72246616904A8FFF7DCFDD4
:10340000049B059A9A423FF471AF214607A8FCF746
:103410004FFF059F049EB7423FF468AF059920A86F
:103420003839FDF756FC059838380590FDF7BEFC95
:1034300027A90CA8E5690DF1B80A0EF03DFC20A8FB
:10344000FDF78AFB2D9BD5F820B04AF8AC3DED691D
:103450001035A5F110039B4517D055F8101C12A884
:1034600018310EF029FC0CA912A8FDF77AFE019084
:1034700012A80EF035F8019B002BE9D055F8100C7E
:1034800003685146DB689847E2E70CA80EF028F87D
:1034900020A8FDF78BFC3836BDE721464846FCF7EF
:1034A00007FF48462FB0BDE8F08F00BF9E7A0208A4
:1034B000244992042DE9F04FDFB0FDF79FFB9F48B0
:1034C0001CF052FB9E481CF04FFB0BA8FEF762F964
:1034D0009C481CF049FB0DF5BC7B0B9B1D930CA974
:1034E0001EA8FDF7E5FB5EAE4FF001090DF1740873
:1034F0000B9B4BF8F43D0CA922A8CDF87C80CDF8AD
:103500008090FDF7D5FB0B9B46F8B43D00240DF5EC
:10351000927A0CA932A8CDF898B0CDF89C90499435
:103520004A944B944C94CDF8ACA0CDF8B090FDF7F4
:10353000BFFB48203996CDF8E89001F0A1FF39ADE6
:10354000079095E8030003AB83E803002BAF97E8EF
:10355000030001AB83E80300279B00931FAA06CA60
:10356000269B0798FFF71EF8079B0D9310200E94DB
:1035700001F086FF744B0360079BC360C0F80490A2
:10358000C0F808900E9032A8FDF772FB5046FDF788
:103590007BFB22A8FDF76CFB1EA8FDF769FB6B48BF
:1035A0001CF0E2FA0FA8FEF7B7F911A8FEF702FA2D
:1035B00013A8FFF715FA15A8FFF74AFA17A8FFF79F
:1035C0007FFA19A8FFF7B4FA61481CF0CDFA584603
:1035D000FDF75AF80D9B1B930EA91CA8FDF768FB7D
:1035E0000BAA0FA93046FDF7A9FB0BAA11A935A814
:1035F000FDF7A4FB0223C8F80430C8F8006009AB4B
:1036000098E8060026A8FEF7DFFA0BAA13A92846B9
:10361000FDF794FB0BAA15A93DA8FDF78FFB0BAA9C
:1036200017A941A8FDF78AFB0BAA19A945A8FDF720
:1036300085FB042320931F951FAA0AAB06CA3846B0
:10364000FEF7C2FA26AA1BA93B465046FEF77AFDB2
:103650003846FDF786FB45A8FDF720FB41A8FDF79E
:103660001DFB3DA8FDF71AFB2846FDF717FB26A812
:10367000FDF777FB35A8FDF711FB3046FDF70EFB94
:103680001CA8FDF7F5FA1E2326A827932694289454
:1036900029942A94FCF785FE26A93846FCF7A8FF52
:1036A0002C4A214638460EF0E9F9014630460EF024
:1036B0000AF8294930460EF02DFA014628460EF048
:1036C00002F839981CF0A0F928460DF009FF3046A1
:1036D0000DF006FF38460DF003FF26AA5146284696
:1036E000FFF7E4FD294626A8FCF70CFE55A8FDF7D8
:1036F00038FB52A8FDF735FB51A8FDF7B9FA4FA8E2
:10370000FDF7B6FA1AA8FDF7B3FA18A8FDF7B0FA54
:1037100016A8FDF7ADFA14A8FDF7AAFA12A8FDF74E
:10372000A7FA10A8FDF7A4FA0EA8FDF7A1FA0CA8B5
:10373000FDF79EFA20465FB0BDE8F08F637B02087C
:10374000867B0208A27B020810790208BF7B020870
:10375000DB7B0208ED7B0208897A020838B51F4C32
:103760001F4D204601F0E2FF1E4A1F49204610244B
:1037700001F0BEFB2246002128461AF096FF28469B
:103780001A4D002101F027FA2246002128461AF09E
:103790008CFF2146284601F01EFA1A211448FDF735
:1037A000A7F908211348FDF7A3F909211248FDF7ED
:1037B0009FF927211148FDF79BF90A211048FDF7D1
:1037C00097F913210F48FDF793F915210E48FDF7DE
:1037D0008FF914210D48FDF78BF938BD1C05002029
:1037E00040050020980100204558000820050020D1
:1037F00030050020DC040020FC0400200C05002023
:10380000AC040020EC040020BC040020CC04002008
:103810004FF06043D3F8802ED1070AD5D3F8002E9D
:10382000D20706D51A68002AFCD04FF06042C3B216
:103830001370704710B50446FCF71CFD013C14F8EA
:10384000010F10B1FFF7E4FFF9E7BDE81040FCF706
:1038500021BD0000DFF830D0002103E00B4B5B58A6
:10386000435004310A480B4B42189A42F6D30A4A95
:1038700002E0002342F8043B084B9A42F9D301F0DE
:10388000E9F8FCF7B7FC70470000022018BB0208FB
:10389000980100206404002068040020801D00209E
:1038A000FEE700000E4B02681A6082685A60C26828
:1038B0009A600269DA6042691A6100229A6190F99D
:1038C0001920013201D1082205E090F918200132B7
:1038D0000CBF04220C2202485A6100F06CBA00BFEF
:1038E00054050020F0B50E4685B0044639493046EF
:1038F000154601F03BF938490746284601F036F9EC
:103900000146384601F014F9344B2060984213D038
:1039100003F5806398421BD0A3F55043984223D10E
:103920002F4B1A6C42F400321A641B6C03F4003300
:103930000293029B012316E0294B5A6C42F01002BD
:103940005A645B6C03F010030193019B00230AE0AF
:10395000234B5A6C42F020025A645B6C03F0200344
:103960000393039B052363601A49304601F0C2F8B4
:103970001949284601F0BEF8721C03D001213046D7
:1039800000F0EEF86B1C03D00121284600F0E8F8A7
:103990004FF41653A3600023E3602361636126762E
:1039A00065762046FFF77EFF22680E4B9A420FD1C4
:1039B0000D4B01221A600D4B04F118052068616857
:1039C0001A4603C20834AC421346F7D1206810608F
:1039D00005B0F0BDC07C02086C7C020800100140FC
:1039E00000380240004400405005002094050020AB
:1039F0000368034A18681360C0F34010704700BFA3
:103A00005405002010B5046801460846FFF7F0FF92
:103A10000028FAD06068C0F3080010BD0368034AAC
:103A200018681360C0F3C010704700BF5405002031
:103A300038B5056804462046FFF7F0FF0028FAD0A5
:103A4000C1F30801696038BD7FB507284DD8DFE8AC
:103A500000F004101C28344C4C40274B27481A6BAC
:103A600042F001021A631B6B03F001030093009BF9
:103A70003FE0214B22481A6B42F002021A631B6B93
:103A800003F002030193019B33E01B4B1D481A6BAB
:103A900042F004021A631B6B03F004030293029BBF
:103AA00027E0154B18481A6B42F008021A631B6B8B
:103AB00003F008030393039B1BE00F4B13481A6B9F
:103AC00042F010021A631B6B03F010030493049B73
:103AD0000FE0094B0E481A6B42F080021A631B6B11
:103AE00003F080030593059B03E00A4800F0F2FF12
:103AF000002007B05DF804FB0038024000000240DF
:103B00000004024000080240000C02400010024085
:103B1000001C0240167C020830B5054687B0C0F391
:103B200003100C4605F00F05FFF78EFF012304F08C
:103B30000F0203FA05F5094B019553F82230029361
:103B4000C4F302130393C4F3C314032301A904931E
:103B5000059400F07BFC07B030BD00BF387C020844
:103B600038B500F00F05C0F303100C46FFF76CFFEB
:103B70006900C26803238B4022EA0303032CC3605D
:103B8000C36828BF00248C401C43C46038BD0000BB
:103B9000054B186830B901221A60044B044A1A60B8
:103BA00000F02EBE704700BFEC050020B0050020DD
:103BB000000C004008B5044B1B680BB9FFF7E8FF89
:103BC000024B586A08BD00BFEC050020000C004005
:103BD000034B1B685863DA6842F00202DA607047F0
:103BE000B0050020034B1A68D36823F00203D360AA
:103BF000704700BFB0050020024B1B686FF0020247
:103C00001A617047B005002010B50021044604F089
:103C10000F04FFF781FF0120A04010BD70B50446DE
:103C20004B1C0E4621700DD0C1F30310FFF70CFFA3
:103C300005463046FFF7E8FF05F1100318356060D0
:103C4000A360E56070BD90F90000FFF789BF01290E
:103C500090F9000018BF0021FFF75EBF08B500F023
:103C60003DFEBDE8084000F0BDBC00002DE9F84372
:103C700005682B69074623F44052C368B968C069D8
:103C800013433A692B61EB6811437A6923F41643B5
:103C90000A43024323F00C031343EB606B6923F4E4
:103CA0004072BB69B0F5004F43EA02036B613F4BC2
:103CB00036D19D4203D003F580639D4216D100F0BA
:103CC000ADFB7E68192460437600B0FBF6F600F089
:103CD000A5FB7A684FF064086043B6FBF8F6520023
:103CE0003601B0FBF2F900F099FB15E000F07EFB25
:103CF0007E68192460437600B0FBF6F600F076FB90
:103D00007A684FF064086043B6FBF8F6520036015B
:103D1000B0FBF2F900F06AFB44437868400034E0FD
:103D20009D4202D0224B9D4216D100F077FB7E6867
:103D300019246043B600B0FBF6F600F06FFB7A681A
:103D40004FF064086043B6FBF8F692003601B0FB12
:103D5000F2F900F063FB15E000F048FB7E681924DF
:103D60006043B600B0FBF6F600F040FB7A684FF017
:103D700064086043B6FBF8F692003601B0FBF2F936
:103D800000F034FB444378688000B4FBF0F0B0FBF3
:103D9000F8F008FB109212013232B2FBF8F303F094
:103DA0000F033343AB60BDE8F88300BF0010014050
:103DB00000140140704710B5044630B390F8393014
:103DC00003F0FF021BB980F83820FFF7F3FF2268E9
:103DD000022384F83930D36823F40053D36020469B
:103DE000FFF744FF23681A6922F490421A615A6966
:103DF00022F02A025A61DA6842F40052DA600020A6
:103E00000123E06384F8393010BD012010BD0000AB
:103E100003682DE9F341DD07044603D423689807BE
:103E20004CD49EE08B4B9A6802F00C02042A07D017
:103E30009A6802F00C02082A0BD15B68590208D577
:103E4000844B1B689A03E9D56368002BE6D10120F7
:103E500067E1814D7F4E00232B7000F0E5FB41F2BE
:103E60008838074633689B0306D500F0DDFBC01B8E
:103E70004045F7D9032054E123792B70636873B16F
:103E800000F0D2FB734D064641F288372B68980349
:103E9000C4D400F0C9FB801BB842F7D9EAE700F0B0
:103EA000C3FB6C4D064641F288372B689903B5D5A4
:103EB00000F0BAFB801BB842F7D9DBE7654B9A6884
:103EC00012F00C0F07D09A6802F00C02082A18D1E1
:103ED0005B685A0215D45F4A13689B0702D5E368F2
:103EE000012BB4D11168F82393FAA3F3B3FA83F347
:103EF0002069DBB200FA03F321F0F8010B431360F1
:103F00002FE0E268554BF2B101221A6000F08CFB01
:103F1000504D06462B684F489F0705D400F084FBA0
:103F2000801B6428F6D9A5E70268F82393FAA3F367
:103F3000B3FA83F32169DBB201FA03F322F0F8024A
:103F4000134303600DE01A6000F06EFB414D06461E
:103F50002B68990705D500F067FB801B6428F7D90B
:103F600088E723681A0703D423685B074ED51FE050
:103F700062693B4B72B101221A6000F055FB354D6E
:103F800006466B6F9F07EFD400F04EFB801B642842
:103F9000F7D96FE71A6000F047FB2E4D06466B6FAE
:103FA0009807E1D500F040FB801B6428F7D961E752
:103FB000284B2C4D1A6C42F080521A641B6C03F093
:103FC00080530193019B2B6843F480732B6000F0B6
:103FD0002BFB06462B68D9051BD5234D1D4E002310
:103FE0002B7000F021FB41F288380746336F9A07A7
:103FF00015D4237A2B70A368EBB100F015FB154D97
:10400000064641F288372B6F9B070ED5A2696ABB23
:104010006CE000F009FB801B6428DBD92AE700F084
:1040200003FBC01B4045E1D924E700F0FDFA801BEB
:10403000B842E8D91EE700F0F7FA064D064641F20D
:1040400088372B6F9807E1D500F0EEFA801BB84255
:10405000F7D90FE70038024002380240000047421B
:10406000800E474200700040703802402E4DAB6811
:1040700003F00C03082B3FF4EAAE2C4E0023022A77
:10408000336042D100F0D0FA80462B68264F990168
:104090002ED447F6C07292FAA2F2B2FA82F24FF42C
:1040A000403393FAA3F3B3FA83F54FF0706191FABA
:1040B000A1F1B1FA81F0E169236A0B43616AD2B2DE
:1040C00091401943A36A5B085A1EEBB202FA03F34C
:1040D000E26A0B43C1B28A4013437B600123336021
:1040E00000F0A2FA04463B689A0108D5002018E0C7
:1040F00000F09AFAC8EB00006428C6D9BAE600F0CE
:1041000093FA001B6428EED9B4E600F08DFA044659
:104110002B689B01EAD500F087FA001B6428F7D9C9
:10412000A8E602B0BDE8F0810038024060004742D6
:104130007B4B1A6802F00F028A422DE9F0410546D6
:104140000E4674D2CAB21A701B6803F00F0399426C
:1041500002D00120BDE8F08101688F0706D57148C3
:10416000836823F0F002AB6813438360CE070BD45F
:1041700029684C0740F1C3806A48836823F4E05201
:10418000EB6813438360BAE06B68664A012B03D186
:10419000126812F4003F08E0991E0129126802D843
:1041A00012F0007F01E012F0020FD2D05D4CA26845
:1041B00022F003021343A36000F036FA6B68012B70
:1041C00006460ED141F28837A36803F00C03042B96
:1041D000CED000F029FA801BB842F5D90320BDE803
:1041E000F081022B0CD141F28837A36803F00C0355
:1041F000082BBDD000F018FA801BB842F5D9EDE7C6
:10420000032B08D141F28835A36800F00DFA801B1A
:10421000A842F9D9E2E741F28837A36813F00C0FFE
:10422000A6D000F001FA801BB842F6D9D6E70168A3
:10423000880706D53B48836823F0F002AB68134338
:104240008360CA0709D4364BF2B21A701B6803F0B8
:104250000F039E427FF47DAF8AE76B68314A012BE2
:1042600003D1126812F4003F08E0991E0129126878
:1042700002D812F0007F01E012F0020F3FF469AFA4
:10428000284CA26822F003021343A36000F0CCF98B
:104290006B68012B07460CD141F28838A36803F004
:1042A0000C03042BCFD000F0BFF9C01B4045F5D95B
:1042B00094E7022B0CD141F28838A36803F00C0379
:1042C000082BC0D000F0B0F9C01B4045F5D985E7F8
:1042D000032B08D141F28835A36800F0A5F9C01B73
:1042E000A842F9D97AE741F28838A36813F00C0F95
:1042F000A9D000F099F9C01B4045F6D96EE70B072D
:1043000007D5084A2969936823F4604343EAC10347
:1043100093600F2000F074FA0020BDE8F08100BF28
:10432000003C0240003802401F498B6803F00C0338
:10433000042B34D0082B34D148684B6800F03F0080
:1043400013F4800F47F6C0724B6892FAA2F2B2FAE9
:1043500082F247F6C071D2B201EA030115BF21FA19
:1043600002F3D140114A124A14BFB2FBF0F0B2FB83
:10437000F0F00D4A0CBF00FB01F343434FF4403112
:10438000506891FAA1F1B1FA81F100F44032C8B25B
:1043900022FA00F001304000B3FBF0F07047034810
:1043A00070470348704700BF0038024000127A008F
:1043B0000024F40008B5FFF7B7FF094B9A68F02313
:1043C00093FAA3F3B3FA83F302F0F002DBB222FA1A
:1043D00003F3044AD35CD840034B186008BD00BF08
:1043E00000380240147D02089C01002008B5FFF748
:1043F000E1FF084B9A684FF4E05393FAA3F3B3FA42
:1044000083F302F4E052DBB222FA03F3024AD35CF4
:10441000D84008BD00380240147D020808B5FFF7F7
:10442000C9FF084B9A684FF4604393FAA3F3B3FAB9
:1044300083F302F46042DBB222FA03F3024AD35C54
:10444000D84008BD00380240147D02082DE9F04F25
:10445000614E0B68DFF888C185B04FF00108019309
:10446000B6460023019A08FA03F434EA020240F047
:10447000AB804A6822F01009B9F1020F14D14FEA5B
:10448000D30A00EB8A0A03F0070BDAF820704FEA30
:104490008B0B0F2505FA0BF527EA05050F6907FABF
:1044A0000BF72F43CAF820704FEA430A0325076829
:1044B00005FA0AF5ED4302F0030B2F400BFA0AFB55
:1044C00009F1FF394BEA0707B9F1010F076012D86C
:1044D000876805EA0709CF6807FA0AF747EA090774
:1044E00087604768C2F3001927EA040709FA03F94D
:1044F00049EA07074760C7683D408F6807FA0AF72F
:104500003D43C560D5005FD5DCF8445045F4804597
:10451000CCF84450DCF8445023F0030909F18049F9
:1045200005F4804509F59C39039503F0030A039DC2
:10453000D9F808504FEA8A0A0F2707FA0AF725EA3E
:104540000705264FB84212D007F58067B84210D051
:1045500007F58067B8420ED007F58067B8420CD0E7
:1045600007F58067B84214BF0527042706E0002737
:1045700004E0012702E0022700E0032707FA0AFA15
:104580004AEA0505C9F808503568E74312F4803F48
:104590000CBF3D402543CEF80050DEF8045012F425
:1045A000003F0CBF3D4025437560B56812F4801F85
:1045B0000CBF3D402543CEF80850DEF80C50920267
:1045C00054BF3D402543F5600133102B7FF44AAFC3
:1045D00005B0BDE8F08F00BF003C01400000024084
:1045E0000038024008B50B4B1A6842F400721A609A
:1045F0001A6842F480621A601A6842F480721A6083
:10460000032000F0A5F80F2000F0FAF800F012F8EF
:10461000002008BD003C0240024A136801331360C9
:10462000704700BFF0050020014B1868704700BFBD
:10463000F005002070477047224A036890420ED070
:10464000B0F1804F0BD0A2F57C42904207D002F52A
:104650008062904203D002F58062904214D14A6891
:1046600023F070031343174A904225D0B0F1804FD6
:1046700022D0154A90421FD002F5806290421BD092
:1046800002F58062904217D0104A904214D002F591
:104690008062904210D002F5806290420CD003609C
:1046A0008B68C3620B688362064B984204BF0B6938
:1046B0000363012343617047CA6823F440731343C3
:1046C000EDE700BF00000140000400400040014051
:1046D00010B50446A0B190F8393003F0FF021BB9C1
:1046E00080F83820FFF7A7FF022384F839302068CC
:1046F000211DFFF7A1FF012384F83930002010BDF0
:10470000012010BD10B50123046A8B4024EA030385
:104710000362036A8A4042EA0301016210BD00009D
:1047200010B5044601220068FFF7ECFF2368064A33
:10473000934202BF5A6C42F400425A641A6842F033
:1047400001021A60002010BD00000140FFF7E8BF21
:10475000074AD36823F4E0631B041B0C43F0BF63D8
:10476000000243F4003300F4E0600343D360704779
:1047700000ED00E030B50C4CA268A468B4F1006F05
:1047800013460CD1131F094C094A53F8045F42F831
:10479000045FA242F9D1044A4FF0005393601030F5
:1047A00043F8201030BD00BF00ED00E09401002070
:1047B000FCFFFF1F38B5104B1A68D26812F0020FC9
:1047C0001C4601D000F080F92368DA68520711D541
:1047D0006FF00402094D1A615C6A2B68E31AB3F5A5
:1047E0007A7F07D3FFF718FF034B2C601B6804F593
:1047F0007A729A6338BD00BFF8050020F4050020E6
:10480000234B37B51A6C234C42F008021A641A6C19
:1048100002F008020192019A1A6A42F008021A6232
:104820001A6A22F008021A6200F058F81A4B236044
:104830004FF0FF33E360194B194A1B68B3FBF2F3E7
:104840000025013B204663602561A5606561FFF797
:104850003FFF14493220FFF78DFF134B4FF48022A6
:104860005A6029462046FFF771FF04212046FFF7D2
:104870006DFF23680D495A6A0A6002F57A729A63DD
:10488000DA68284642F00402DA6003B030BD00BFA7
:1048900000380240F8050020000C00409C01002078
:1048A00040420F00B547000800E100E0F405002099
:1048B0007FB50F230193022302934FF4805200230C
:1048C000032101A8039304920593FFF731FCB0FA8A
:1048D00080F0400907B05DF804FB0000174A184952
:1048E000936803F00C03042B03D0082B03D0154B63
:1048F00018E0154B16E05068536810F4800F03F071
:104900003F03506814BF104A0E4AB2FBF3F30B4A40
:104910005268C2F30142C0F388100132434352008F
:10492000B3FBF2F30B60054B084A9B68C3F3031318
:10493000D25C0B68D3400B60704700BF0038024068
:104940009C0100200024F40000127A00247D02085B
:104950001A4B00B51A6C42F080521A641B6C184A4C
:104960008FB003F080530093009B136823F44043FF
:1049700043F400431360136803F440430193019B25
:104980000123029300B105230393022308934FF4FC
:104990008003099304230A930C930823C0220DEB90
:1049A00003000B920D93FFF733FA10B9FFF780FF66
:1049B00000E000200FB05DF804FB00BF00380240AB
:1049C000007000401A4B10B51A6C42F080521A6405
:1049D0001B6C184A8EB003F080530093009B136841
:1049E00023F4404343F400431360136803F440434B
:1049F0000193019B03230293012305931023069344
:104A00000223C0220893082300240B920DEB03001D
:104A10000422039409940A930C920D93FFF7F8F97A
:104A200010B9FFF745FF00E020460EB010BD00BFF3
:104A3000003802400070004008B50120FFF788FFF1
:104A400030B9FFF785FF18B9FFF7BCFF00B9FEE7E3
:104A500008BD0000174AD2F8883010B543F470033F
:104A6000154CC2F888302368002143F0010323600D
:104A7000A160236823F0847323F4803323600F4BF9
:104A80006360236823F4802323604FF00063E160B8
:104A900093600B4B0B4A1A60FFF7A4FDFFF7CCFFA6
:104AA000236A43F008032362236A23F00803236286
:104AB00010BD00BF00ED00E00038024010300024BF
:104AC0009C0100200024F400014800F09AB800BFC7
:104AD000487D02080FB407B5054B04AA1B6852F8BD
:104AE000041BD868019219F0DBFF012019F01AF8B5
:104AF0008402002010B50446013001D110BD0C31F4
:104B000091F900305A1C0BD09C42F8D1204689689C
:104B1000FFF702F820460021BDE81040FFF720B85B
:104B20000248BDE81040FFF7D5BF00BF507D020826
:104B3000884208B50AD0431C07D0013106D004488A
:104B4000FFF7C8FF4FF0FF3008BD084608BD00BFA3
:104B5000617D020891F900305A1C05D0834201D1D1
:104B6000486870470C31F5E718467047421C10B58D
:104B7000044607D0FFF7EEFF431C044602D102486B
:104B8000FFF7A8FF204610BD727D020870B50E46E3
:104B900004461546FFF742F8013609D020460021A9
:104BA000FFF755F829462046BDE87040FFF74BB89F
:104BB00070BD38B50D460446C168436802B91B0490
:104BC0000B6020460121FFF742F829462046BDE848
:104BD0003840FFF738B80022FFF7D8BF70B50E464F
:104BE00004461546FFF71AF8013606D02A46204635
:104BF0000021BDE87040FFF7DCBF70BD0022FFF769
:104C0000EDBF036870B5DB680446984763685A686F
:104C100023681AB99B68BDE8704018475B6815683F
:104C200098476368281A00285A6807DC9168596019
:104C30001B68002BEAD050689847E7E723681068A4
:104C40001B69BDE87040184738B50446FEF7B2FF4F
:104C50000546FEF7AFFF401BA042FAD338BD4FF424
:104C60007A735843FFF7F0BF08B572B69620FFF786
:104C7000F6FF9620FFF7F3FFF8E70000044B1B68F0
:104C800023B9032202210348FEF72CBE704700BF60
:104C9000500500209405002002284FF0000309DD94
:104CA000C21E074951F8220041F8223020B10368A2
:104CB0005B681847184670474FF0FF30704700BFD9
:104CC0003C060020022870B50C4615460FDC0E4B42
:104CD0001B680BB9FFF7D2FF6619B44205D014F870
:104CE000011B0A48FEF7A4FEF7E7284670BD03380B
:104CF000074B53F8200020B10368BDE870401B68E3
:104D000018474FF0FF3070BD50050020940500207B
:104D10003C060020022810B50C460ADC0B4B1B6831
:104D20000BB9FFF7ABFF0A48FEF76CFE20700120BD
:104D300010BD0338074B53F8200020B10368BDE8CD
:104D400010409B6818474FF0FF3010BD5005002001
:104D5000940500203C060020022807DD0338064B9E
:104D600053F8200020B10368DB6818470120704722
:104D70004FF0FF30704700BF3C060020022807DDDF
:104D80000338064B53F8200020B103681B6918470D
:104D9000002070474FF0FF30704700BF3C060020F6
:104DA000022808B504D84FF400534B60002008BD1A
:104DB00018F0B2FE092303604FF0FF3008BD08B5BC
:104DC000012018F0AFFE704708B5FEF747FFFFF768
:104DD000FAFFBDE80840FEF76DBB0000074A136804
:104DE0001844EFF30881884229BF054B10600C225C
:104DF0004FF0FF302CBF1A6018467047A00100200A
:104E00007C1D0020074C08B523680546986818F0FB
:104E10004FFF2368D86818F04BFF0DB1FFF724FF50
:104E2000FEE700BF8402002000F067B82DE9F041E2
:104E30001D460368164653F8082C88B004460F46F2
:104E4000811853F8040C002305938DF818308DF861
:104E500019308DF81A3010230793A35853F8043CE7
:104E6000984201D0002040E0036802948DE882005F
:104E700005AA0392D3F81C80062233462946C04770
:104E8000059A002AEED09DF81A0000F00603062BC2
:104E90002AD09DF819109DF818300B4003F0060336
:104EA000062B21D001F005010429DBD0A0B9002D8B
:104EB00005DB5019844214BF012006200AE0AB1C18
:104EC00007D0336800941C6A29463B463046A04709
:104ED00000E001208DF81A009DF81A3003F0060357
:104EE000062BBFD1059800E0104608B0BDE8F08160
:104EF0000B460146184618F001BE19F0F9BA000039
:104F000010B5034B0360044600F006FB204610BDBD
:104F1000B87D020810B50446FFF7F2FF2046FFF700
:104F2000ECFF204610BD2DE9F14F0E461946834691
:104F3000174699460A9CDDF82CA0DDF830800D9DBF
:104F400000F0B4FA78B1002E2C602F7106DB3444E7
:104F5000A0450CBF06240124AC711EE002361CD112
:104F60000123AB7119E0444504D15146584600F085
:104F70009DFA88B9DBF8080003680D95CDF83080FC
:104F8000CDF82CA00A94DC693A464B463146A4463B
:104F900001B0BDE8F04F60476F71002001B0BDE87F
:104FA000F08F2DE9F041069E964280460F4614464A
:104FB0001D4603D1194600F079FA58B9D8F808000F
:104FC000036806961E6A22462B463946B446BDE85B
:104FD000F04160470620BDE8F0812DE9F04104462C
:104FE0000D4616461F4600F0AAFA48B9A0680368A5
:104FF0009C6932463B462946A446BDE8F0416047DD
:10500000BDE8F08110B5034B0360044600F084FA5C
:10501000204610BD4C7E020810B50446FFF7F2FF93
:105020002046FFF76AFF204610BD2DE9F74FDDF857
:1050300030904A4504460F461646984605D1194613
:1050400000F034FA08B1062026E0E56804EBC50458
:105050000DB3E3689A0702D4013D083CF8E713F06A
:10506000010A4FEA232203D0FB1CF5D033689A587B
:10507000A0680368CDF80090D3F820B032444346CE
:105080003946D8470328E7D9BAF1000F04D040F0D9
:105090000100C0B200E0012003B0BDE8F08FF0B421
:1050A0000D1E049C05DB5019844214BF012006200C
:1050B00008E0023505D0056804942C6AA446F0BCCB
:1050C00060470120F0BC70472DE9F04F91B0884651
:1050D0001D9C0793A3680692D90644BF8368A3600A
:1050E0001C9A1A9B9342824608D11B9900F0DEF964
:1050F00020B19DF818306371002727E107995046C9
:1051000000F0D4F90746C8B11A9B2360B8F1000F2C
:105110009DF8183023710BDB1A9B98441C9B434568
:105120000CBF4FF006084FF0010884F80680E3E753
:1051300018F1020FE0D10123A371DDE7B8F1000FF0
:10514000A9BF1C9B0897C8EB03030893012309938D
:10515000069B4FF0000943F00103CDF82890CB46A1
:105160000B93DAF80C3005930AEBC3020492059B0B
:10517000002B00F0A380049BA568DB680F95DA077D
:1051800048BF1A98CDF834B04FEA232148BF0068D1
:105190008DF838B048BF41581A988DF839B001449D
:1051A00008988DF83AB04CBF0B9A069A30B18842F5
:1051B000099E2CBF00200120B04278D09B070DD45F
:1051C00018F1020F08D1AE0706D1059B013B0593EC
:1051D000049B083B0493CAE702F0FD02049B986815
:1051E0000DAD036803951C9D02951B9D8DE8220063
:1051F0004146DD69079BA84761799DF839209DF8F4
:105200003A501143062D0346617101D0022D06D19B
:105210000D9B23609DF838302371A5714AE0226808
:10522000B9F1000F0ED16AB90D9A9DF8385022607D
:105230002571002A36D0002934D0DAF80820D507A5
:1052400030D437E052B10D9B9A4205D122799DF8B6
:1052500038301343237124E02BB920B90D9B03B3DD
:10526000B9F1000F1DD00329A67904D9C80753D579
:10527000A368990750D556B395B385EA0603DBB208
:10528000032B3AD9032D07D90D9B23609DF83830A5
:1052900023712E464FF00009B207A67156D4F307CA
:1052A00054D54B466279042A06D099468DE70123EE
:1052B0000A938AE7074649E01F4647E00A9B23B165
:1052C000099B13B1059B09934BE74F463EE0032D25
:1052D00029D9EB070DD5DAF808309E0709D522E069
:1052E000032E29D9F00706D5DAF80830990723D418
:1052F00001E00126C1E70125BFE73540EDB2032DEE
:1053000005D9002323600223A37101271EE0012396
:10531000C4F800B0A371C5E7002E08BF0126002D18
:1053200008BF0125A9E71C9B009341461B9B0798DA
:10533000FFF7B5FE06469FE71C9B00930D9A1B9B4B
:1053400007984146FFF7ABFE054696E7384611B091
:10535000BDE8F08F2DE9F04F89B08046029192466A
:105360001C4600F0ECF80546002840F08580D4F893
:105370000890D8F80C6019F0100F18BFD8F80890F2
:1053800009F0010308EBC6074FF0000B0393002E52
:105390005FD0FA68CDF810B002F00103009312F06C
:1053A00002038DF814B0CDF81890CDF81CB001931D
:1053B00004D1039B13B9013E083FE8E7BAF1000F9F
:1053C00007D0009B121213B1DAF800309A585244F9
:1053D00000E05246B868029903689D6904ABA8478B
:1053E00005460028E7D0079B082B03D1009B0BB193
:1053F000BB6807939DF81430032B01D9019A6AB357
:10540000E168A9B904AB0FCB84E80F002379032B23
:1054100032D99A0704D5D8F8083013F0010F05E007
:10542000DB0729D5D8F8083013F0020FC3D123E0E9
:105430002368049A934202D00023236013E0ABB99F
:10544000079808280FD008290DD000F02FF868B968
:1054500009E02579003518BF01250DE023F002038E
:105460008DF81430CCE70223237105E022799DF8F2
:105470001430134323719EE7284609B0BDE8F08F2E
:1054800010B5002814BF04460124204619F028F85E
:1054900030B90DF0B7FC08B918F0DDFA8047F4E731
:1054A00010BDFFF7EDBF704700207047814208B57F
:1054B0000ED0406803782A2B0CD049680B782A2B31
:1054C00008BF01311AF037FDB0FA80F0400908BD7D
:1054D000012008BD002008BD7FB51023029303689A
:1054E000002415469E6900946B468DF80440039491
:1054F0001268B0479DF8043003F00603062B03BF83
:10550000009B2B600120204604B070BD00989042A3
:105510000CBF06200120704710B5034B0360044602
:10552000FFF7C1FF204610BD907E020810B504466B
:10553000FFF7F2FF2046FFF7E0FC204610BD38B52C
:1055400015461C46FFF7B2FF20B10823E36006238F
:105550002560237138BD2DE9F041069E099C9846CF
:10556000089B9E420746154603D10799FFF79EFF09
:1055700048B941463846FFF799FF28B10123266014
:105580002571A37100E065710020BDE8F0812DE96F
:10559000F04105460C4616461F46FFF787FF48B9FF
:1055A000032F07D823683246294620465B69BDE8A9
:1055B000F0411847BDE8F081C3689A68C26002B143
:1055C000506042685A600A68904201D10B6005E061
:1055D0004268916888420CBF9360D36098604360D2
:1055E00070478368DA68826002B1506042685A602E
:1055F0000A68904201D10B6005E04268D168884298
:105600000CBFD3609360D8604360704703782BB9B8
:1056100043685B68984201D1C3680CE083681BB1A2
:10562000DA6842B11346FBE743689A68824202D1C6
:1056300018465B68F9E718467047C36823B11846F7
:105640009B68002BFBD10AE04368DA68824202D1F2
:1056500018465B68F9E7C268934218BF184670475E
:10566000FFF7D4BF2DE9F0471F4603F104090023DB
:105670000C464A608B60CB600B7068B197429160BA
:1056800001D179600CE0BB689A4208BFB9604FF065
:1056900001084FF0000A17E0D160FB689A42F6D18A
:1056A000FC60F4E766683278002A3AD17568AB6826
:1056B0009E421FD1EB685BB11A784AB986F8008028
:1056C00083F800802A702C467B689C42EAD128E04F
:1056D000F3689C4204D149463046FFF76DFF3446DB
:1056E0006368494683F80080284685F800A0FFF7E4
:1056F00078FF14E013B11A78002ADFD0B3689C4217
:1057000004D149463046FFF76CFF3446636849468A
:1057100083F80080284685F800A0FFF74DFF254656
:10572000D1E701221A70BDE8F08700002DE9F843A7
:10573000334D2B685A1C07462A60002B5CD1314C34
:10574000314B3248DFF8F080DFF8F090304E012224
:105750001A702368996800F021FB23682D48596866
:1057600000F01CFB23682C48D96800F017FB274980
:1057700040460CF0A7FB2749484600F009F92649A6
:1057800030460CF09FFB244924480CF09BFB336906
:10579000C6F8748043F4005333612368C9F87880F5
:1057A00099681F481F4EDFF8988000F007FB2368B8
:1057B0001D48596800F002FB23681C48D9681C4C3E
:1057C00000F0FCFA164930460CF0F2FB1649404650
:1057D00000F048F9154920460CF0EAFB134915483A
:1057E0000CF0E6FB2369C8F8786043F400532361AA
:1057F0002B68666701332B603846BDE8F88300BF2D
:105800003C07002084020020A4010020DC1B0020B3
:10581000C4160020E01900202C190020281B0020AD
:1058200004190020501700209C160020B41B0020F3
:10583000081A00207418002054190020981A00201B
:10584000E01700200D4A1368591E022B10B50446BC
:10585000116011D10A480CF088FB0A480CF085FB56
:1058600009480CF082FB09480CF0F5FB08480CF0E5
:10587000F2FB08480CF0EFFB204610BD3C0700206F
:1058800054190020C4160020281B002050170020A7
:10589000081A0020741800200CCA0EF016BB000075
:1058A0000F4B10B504460360002343608360C36060
:1058B000036143618361C361036200F1240204F167
:1058C0006C012C3040F8083C40F8043C0830884219
:1058D000F8D108236366A2660EF0DCFE204610BDF8
:1058E000007F020870B5846905460E4634B16368CE
:1058F000A2682946304698472468F7E770BD38B556
:105900000446806940B1C3685A1EC26023B9056865
:10591000FFF7F3FA2846F5E70023A36138BD00003E
:105920000C4B10B5002104460360FFF7DBFF204657
:10593000FFF7E5FFA06E04F12403984204D008B1FC
:10594000FFF772FA0023A36604F16C000DF016FC59
:10595000204610BD007F020810B50446FFF7E0FFA7
:105960002046FFF7CAFA204610BD0B6810B5036049
:105970000446486853F80C1C60500021616053F8DD
:105980000C0C114620440CF015FA204610BD000006
:1059900070B500F10805044628460E460CF0D6F90D
:1059A000054B23601433A36000232846636031460F
:1059B0000CF000FA204670BD1C7F020838B5044682
:1059C0000D4609B9136800E00D4B236015B953F873
:1059D0000C3C00E0082323440DB9526800E0094A5A
:1059E0001A600023AA07636003D504F108000CF0D5
:1059F00071F9EB0702D52046FFF77FFA204638BD44
:105A00001C7F0208307F020800220221FFF7D6BF68
:105A1000036853F80C3C1844F6E710B50446FFF74A
:105A2000F3FF2046FFF769FA204610BD036853F8DC
:105A30000C3C1844F1E70A460021FFF7BFBF0B6892
:105A400010B503600446486853F80C1C60500021F0
:105A5000616053F80C0C114620440CF00EFA2046FD
:105A600010BD000070B500F10805044628460E463A
:105A70000CF0CEF9054B23601433A36000232846B5
:105A8000636031460CF0F9F9204670BD4C7F020886
:105A900038B504460D4609B9136800E00D4B236084
:105AA00015B953F80C3C00E0082323440DB95268A3
:105AB00000E0094A1A600023AA07636003D504F1D5
:105AC00008000CF011F9EB0702D52046FFF715FA94
:105AD000204638BD4C7F0208607F02080022022168
