:020000040800F2
:100000000000022015450008614500086145000810
:1000100061450008614500086145000800000000D6
:100020000000000000000000000000006145000822
:1000300061450008000000006145000861450008B6
:1000400061450008614500086145000861450008F8
:1000500061450008614500086145000861450008E8
:1000600061450008614500086145000861450008D8
:1000700061450008614500086145000861450008C8
:100080006145000861450008614500080000000066
:1000900000000000000000000000000061450008B2
:1000A0006145000861450008614500086145000898
:1000B0006145000861450008614500086145000888
:1000C0006145000861450008614500086145000878
:1000D0006145000861450008614500080000000016
:1000E0006145000861450008614500080000000006
:1000F0000000000000000000000000006145000852
:1001000000000000614500086145000861450008E5
:1001100000000000000000000000000000000000DF
:100120006145000861450008614500086145000817
:100130006145000800000000000000000000000011
:100140000000000000000000000000006145000801
:1001500061450008614500086145000861450008E7
:100160006145000861450008000000000000000033
:10017000000000000000000000000000000000007F
:1001800000000000614500080000000000000000C1
:10019000614500086145000810B5054C237833B966
:1001A000044B13B10448AFF300800123237010BD4A
:1001B00068040020000000000CD50208084B10B5B0
:1001C0001BB108490848AFF300800848036803B929
:1001D00010BD074B002BFBD0BDE81040184700BFF7
:1001E000000000006C0400200CD502086004002010
:1001F00000000000154B002B08BF134B9D46A3F5D4
:10020000803A00218B460F461348144A121A1FF0F9
:1002100024FB0F4B002B00D098470E4B002B00D037
:1002200098470020002104000D000D48002802D04E
:100230000C48AFF300801FF0E1F82000290005F022
:1002400099FE1EF045FD00BF0000080000000220DE
:10025000000000000000000068040020081E0020CC
:10026000000000000000000008B504F003FB0021BE
:1002700008BD0000044B01221A60044B5A6A044B6B
:100280001A6000225A60704784040020000C00406D
:1002900088040020034B1A68034B5A62034B002268
:1002A0001A60704788040020000C0040840400207D
:1002B0000A6802604A6842608A688260CA68C260EE
:1002C0000A690261704702680B689A4211D142685C
:1002D0004B689A420DD182688B689A4209D1C268F4
:1002E000CB689A4205D1036908691B1A58425841E4
:1002F00070470020704708B5FFF7E5FF80F0010068
:10030000C0B208BD0A6802608A6882604A684260BA
:10031000CA68C2600A690261704702680B689A4243
:1003200016DB17D142684B689A4211DB12D1826802
:100330008B689A420CDB0DD1C268CB689A4207DB0E
:1003400008D1036908698342ACBF002001207047CF
:10035000012070470020704770B50C689C420ADB92
:1003600094FBF3F415682C4414600C6894FBF3F2CE
:1003700003FB124313E0002C12DA94FBF3F686EA37
:10038000E675A5EBE67503FB1644002C0CBF2C4666
:100390006C1C15682D1B15600A6804FB03230B6099
:1003A00070BD70B5044600F10C052A4604F108063C
:1003B0004FF47A7300F11001FFF7CEFF3246294661
:1003C0004FF47A73251D2046FFF7C6FF2A463146B3
:1003D0003C232046FFF7C0FF3C2322462946204607
:1003E000FFF7BAFF204670BD10B547F6FF730360F4
:1003F0003B234360836040F2E7330446C3600361FC
:10040000FFF7CFFF204610BD2DE9F0438BB00E461D
:100410004FF03B0840F2E737044647F6FF7968465D
:100420001546CDF80090CDF80480CDF808800397EC
:100430000497FFF7B6FF69463046FFF744FF78B9E7
:1004400005A8CDF81490CDF81880CDF81C80089739
:100450000997FFF7A6FF05A92846FFF734FF68B103
:1004600047F6FF7323603B236360A36040F2E733EA
:10047000E36023612046FFF794FF1AE06B68706821
:10048000B168F268376936681844AB680690194459
:10049000EB6807911A442B692D6808923B44354458
:1004A00005A805950993FFF77CFF05A92046FFF7EE
:1004B000FFFE20460BB0BDE8F0832DE9F0438BB082
:1004C0000E464FF03B0840F2E737044647F6FF7907
:1004D00068461546CDF80090CDF80480CDF8088028
:1004E00003970497FFF75DFF69463046FFF7EBFE81
:1004F00078B905A8CDF81490CDF81880CDF81C80F7
:1005000008970997FFF74DFF05A92846FFF7DBFE7F
:1005100068B147F6FF7323603B236360A36040F23A
:10052000E733E36023612046FFF73BFF1AE06B6887
:100530007068A968EA682F692D68C01AB3680690C8
:10054000591AF36807919A1A336936680892DB1BC7
:10055000751B05A805950993FFF723FF05A92046FC
:10056000FFF7A6FE20460BB0BDE8F083D0B51646D7
:100570001F4604461C4A00233046394627F020FC1B
:1005800060602046FFF70DFF6268174B5343F61A71
:1005900067EBE377154A00233046394627F010FC15
:1005A000A0602046FFF7FDFEA268104B5343F61AE9
:1005B00067EBE3774FF47A7200233046394627F031
:1005C000FFFBE0602046FFF7ECFEE2684FF47A7331
:1005D0005343F61A26612046FFF7E3FE2046FFF755
:1005E000E0FE2046D0BD00BF0087930340420F00CD
:1005F00030B59FB047F6FF7305933B230D46069336
:100600000793044640F2E73305A808930993FFF7E0
:10061000C8FE05A92846FFF756FE20B1184905A8CF
:1006200020F06DFD0BE02B690293EB680193AB6842
:10063000009395E80C00134905A820F0C1FC04F1D3
:100640000803236005A821F097FA05AB0F2803EBF8
:100650000005049007D9002204A9204611F0FAFFF2
:10066000049B2060A3602A4605A9206812F081F847
:10067000049B2268636000212046D1541FB030BD26
:100680001C81020820810208D0B50446FFF7ECFD6A
:10069000084BD3E900670023821B23606360A360DB
:1006A000E3602361204661EB0703FFF75FFF20460D
:1006B000D0BD00BF9004002008B5FFF7D5FD024B68
:1006C000C3E9000108BD00BF9004002004480023D6
:1006D000036043608360C3600361FFF762BE00BFD5
:1006E0009804002070477047704770477047704704
:1006F0007047704770477047704770477047704742
:10070000704770477047704700207047002070475F
:1007100000207047704770477047704770477047B8
:100720007047704770470000054B9A685B68126815
:100730001A420CBF012300230B600120704700BF49
:1007400078050020704703685B68184703685B689A
:10075000184703685B68184703685B6818470368B5
:100760005B68184710B5044605F09DFC204610BD97
:1007700008B508B1FFF7F6FF08BD10B5044605F04F
:1007800092FC204610BD08B508B1FFF7F6FF08BD82
:1007900010B5044605F087FC204610BD08B508B129
:1007A000FFF7F6FF08BD10B5044605F07CFC2046B7
:1007B00010BD10B5044605F076FC204610BD10B5FE
:1007C000044605F070FC204610BD10B5044605F047
:1007D0006AFC204610BD10B5044605F064FC2046B6
:1007E00010BD10B5044605F05EFC204610BD10B5E6
:1007F000044605F058FC204610BD10B5044605F02F
:1008000052FC204610BD10B5044605F04CFC2046B5
:1008100010BD10B5044605F046FC204610BD10B5CD
:10082000044605F040FC204610BD10B5044605F016
:100830003AFC204610BD10B5044605F034FC2046B5
:1008400010BD10B5044605F02EFC204610BD10B5B5
:10085000044605F028FC204610BD05F024BC05F038
:1008600022BC05F020BC05F01EBC05F01CBC05F048
:100870001ABC05F018BC05F016BC05F014BC05F058
:1008800012BC05F010BC05F00EBC05F00CBC05F068
:100890000ABC05F008BC002380F8983000F1D401B0
:1008A0003030FFF72FBD002380F8983000F1D401DD
:1008B0003030FFF727BD002380F8983000F1D401D5
:1008C0003030FFF71FBD002380F8B03000F1EC019D
:1008D0003030FFF717BD002380F8B03000F1EC0195
:1008E0003030FFF70FBD000010B50446084603493D
:1008F00005F0B2FE08B104F10C0010BDB08702088B
:1009000010B504460846034905F0A6FE08B104F1F7
:100910000C0010BDB087020810B504460846034914
:1009200005F09AFE08B104F10C0010BDB087020872
:1009300010B504460846034905F08EFE08B104F1DF
:100940000C0010BDB087020810B5044608460349E4
:1009500005F082FE08B104F10C0010BDB08702085A
:1009600010B504460846034905F076FE08B104F1C7
:100970000C0010BDB087020810B5044608460349B4
:1009800005F06AFE08B104F10C0010BDB087020842
:1009900010B504460846034905F05EFE08B104F1AF
:1009A0000C0010BDB087020810B504460846034984
:1009B00005F052FE08B104F10C0010BDB08702082A
:1009C00010B504460846034905F046FE08B104F197
:1009D0000C0010BDB087020810B504460846034954
:1009E00005F03AFE08B104F10C0010BDB087020812
:1009F00010B504460846034905F02EFE08B104F17F
:100A00000C0010BDB087020810B504460846034923
:100A100005F022FE08B104F10C0010BDB0870208F9
:100A200010B504460846034905F016FE08B104F166
:100A30000C0010BDB087020810B5044608460349F3
:100A400005F00AFE08B104F10C0010BDB0870208E1
:100A5000014803F04FBD00BF2D930208014803F089
:100A600049BD00BF34930208014803F043BD00BFF5
:100A70003B930208014803F03DBD00BF42930208CA
:100A8000014803F037BD00BF4793020810B530316D
:100A90000446FFF70DFC204610BD10B5303104466A
:100AA000FFF706FC204610BD10B530310446FFF7B5
:100AB000FFFB204610BD10B530310446FFF7F8FBB0
:100AC000204610BD10B530310446FFF7F1FB20463B
:100AD00010BD000010B509480C4603F0B1FF07EE49
:100AE000100AF7EE087AB4EEE77AF1EE10FACCBF0E
:100AF000012300232360012010BD00BFDC0400207F
:100B000010B509480C4603F09BFF07EE100AF6EEFD
:100B1000007AB4EEE77AF1EE10FACCBF012300239D
:100B20002360012010BD00BF8805002000F10803EC
:100B300073B5044603600D4681B1084621F01CF8E8
:100B40000F2805EB000601900BD9002201A92046D1
:100B500011F080FD019B2060A36002E0074806F0D1
:100B600061FD32462946206811F0FEFD019B226896
:100B7000636000212046D15402B070BD4E9302083C
:100B800008B548B1B0F1805F01D306F045FD000122
:100B9000BDE8084005F04ABD08BD08B105F083BABC
:100BA000704708B548B1B0F1005F01D306F034FDDD
:100BB000C000BDE8084005F039BD08BDC3680C3071
:100BC0005B681847C3680C305B681847C3680C3013
:100BD0005B681847C3680C305B681847C3680C3003
:100BE0005B681847C3680C305B681847C3680C30F3
:100BF0005B681847C3680C305B681847C3680C30E3
:100C00005B681847036810B504469B689847A3685B
:100C1000013BA3602BB923682046DB68BDE8104088
:100C2000184710BD09680B4A0B4B39B9D168526897
:100C300012040A60DA685B681B0407E00129D168C6
:100C4000526808BF12040A60DA685B68136001200A
:100C5000704700BFE4040020F404002009680B4A38
:100C60000B4B19B9D1685268120408E00129D16808
:100C7000526804D112040A60DA685B6803E00A6013
:100C8000DA685B681B041360012070475805002078
:100C90001405002009680B4A0B4B19B9D16852683A
:100CA000120408E00129D168526804D112040A60D4
:100CB000DA685B6803E00A60DA685B681B0413604B
:100CC00001207047CC0400203405002009680B4A3D
:100CD0000B4B39B9D168526812040A60DA685B6854
:100CE0001B0407E00129D168526808BF12040A609A
:100CF000DA685B6813600120704700BF240500209C
:100D0000AC04002070B500F1100314460025A3F1D7
:100D10001006B14219D0ACB153F8106C2660656072
:100D200053F80C6C43F80C5C666053F8086C43F89D
:100D3000105CE560A66053F8046C43F8045CE66060
:100D400043F8085C10341033E1E7081A104470BD12
:100D5000054B9A685B6812681A420CBF0123002396
:100D60000B600120704700BF48050020054B9A68C2
:100D70005B6812681A420CBF012300230B6001203C
:100D8000704700BF6805002038B5102204460D46A4
:100D900000211EF062FD2046294604F0F2FF2046A5
:100DA00038BD38B5102204460D4600211EF055FD11
:100DB0002046294604F0F8FF204638BD38B50446E1
:100DC00000250649FFF774FA6561A561044904F13D
:100DD0001C00FFF7ABFE6563204638BD9804002079
:100DE0009593020870B5044615460E46FFF74CFC75
:100DF00000236361A361314604F11C0012F032F854
:100E00002B686363204670BD10B592B0044601465E
:100E10006846FFF7EDFB214A0021684611F004FF08
:100E2000014606A811F025FD1D4906A811F048FF4E
:100E300001460CA811F01DFD0C9803F05BFB0CA8FB
:100E400011F024FC06A811F021FC684611F01EFCEC
:100E5000216A0EAB0C930CA8002307310D938DF87B
:100E6000383011F046FD07220E490CA811F018FF8A
:100E700004F11C010CA811F009FF0C9803F03AFBD7
:100E80000CA811F003FC626B07490CA820F098F83D
:100E90000CA803F02FFB12B010BD00BF789302081E
:100EA00094930208809302088893020808B50121F0
:100EB0001A4803F028FD1A4BDA685B681B041360BC
:100EC000184BDA685B681B041360174BDA685B68C1
:100ED0001B041360154BDA685B681B041360144B2A
:100EE000DA685B681B041360124BDA685B681B04EA
:100EF0001360114BDA685B681B0413600F4BDA68F0
:100F00005B681B0413600E4BDA685B681B0413609C
:100F10000C4BDA685B681B04136008BD48050020B1
:100F2000E4040020F404002024050020AC04002088
:100F3000CC040020340500205805002014050020B2
:100F400004050020BC04002010B50446006828B148
:100F50004368013B43600BB9FFF754FE204610BDC8
:100F600010B504460C30FFF7EFFF201DFFF7ECFF34
:100F7000204610BD10B504460C30FFF7E5FF201DDC
:100F8000FFF7E2FF204610BD0B68036013B15A68FB
:100F900001325A60704710B551F8043B044640F8DE
:100FA000043BFFF7F1FF204610BD38B504460D465F
:100FB000FFF77EF905F1140104F11400FFF7EBFFD0
:100FC00005F11C0104F11C0011F04CFF6B6B636315
:100FD000204638BD70B505460E461446AE4207D0D1
:100FE0001CB129462046FFF7E0FF38353834F5E7D5
:100FF000204670BD70B50E4614460546B54207D072
:101000001CB129462046FFF7D0FF38343835F5E7C4
:10101000204670BD70B590E860000446AE4204D032
:101020002846FFF7A7FF1035F8E72068FFF7B5FD62
:10103000204670BD38B5C46884B104F1100504F1D0
:101040001C00FFF7E7FF2846FFF7E4FF6068FFF7A3
:10105000A4FD2046BDE8384005F025B838BD10B5E0
:1010600004461C3011F012FB04F11800FFF76CFF6E
:10107000204610BD10B551F8043B044640F8043B2F
:10108000FFF782FF204610BD38B551F8043B0446F7
:10109000154640F8043BFFF777FF294604F10800A6
:1010A000FFF7E8FF204638BD10B5044B044640F872
:1010B000043BFFF799F9204610BD00BF288F0208B6
:1010C00038B5044608680D4668B10023084A094946
:1010D00004F082FF38B12346291D43F8040B18465B
:1010E000FFF752FF02E0002323606360204638BD13
:1010F0000C840208D48102082DE9F0430C468BB021
:101100001146064604F1140520461746FFF7FAF883
:1011100004F158012846FFF7F5F8616B69B10B68D7
:1011200068469B689847214605A86A46FFF76CF910
:1011300005A92846FFF7E6F81AE0D4F82C80A46A3F
:10114000A04515D0D4F80090394605A8FFF7B0F8AF
:101150004946684605AAFFF7CFFF29466846FFF7CC
:10116000DCF818B169462846FFF7CCF80834E7E701
:1011700029463046FFF79CF830460BB0BDE8F083B7
:101180002DE9F0414B680E689E1B00230446036066
:1011900043608360F0100F46FFF703FD06442060B4
:1011A0006060A66097E840010546B04507D01DB1D4
:1011B00031462846FFF7EFFE08350836F5E765604B
:1011C0002046BDE8F081000038B5044608680D46A9
:1011D00068B10023084A094904F0FEFE38B12346ED
:1011E000291D43F8040B1846FFF7CEFE02E000234A
:1011F00023606360204638BD10820208D481020853
:1012000038B505460C68006884420BD014B1636899
:101210000133636028B14368013B43600BB9FFF7BA
:10122000F1FC2C60284638BD2DE9F04F97B0002521
:10123000D0F814A00469029580460E4603950495E3
:101240000595544500F0898023680B9323B1211D37
:101250000CA8FFF799FE00E00C930B9B04990493F4
:101260000DF15809059B109149F8143D0C9A05920F
:1012700048460C950B95FFF767FE0CA8FFF764FE38
:10128000D8F8107006A8E71BFFF7FEF93F111423EA
:10129000D8F804105F4301EB070B04990BA8303119
:1012A000FFF706F8594610A80BAAFFF7ADF810A9EA
:1012B00006A8FFF732F800284DD10498036801A969
:1012C000DB6898478346002845D0A3680B932BB171
:1012D00004F10C010CA8FFF757FE00E00C9300236B
:1012E0000C9A0B990C930B93029B10934846039B0B
:1012F000029103921193FFF727FE0CA8FFF724FE3B
:10130000D8F8043010A81F44FFF7BEF910A93846DA
:10131000FEF7F8FF10A8FFF7B7F910A93046FEF75F
:10132000F1FF029B736103A906F11800FFF768FF44
:10133000049910A8183111F095FD10A906F11C00B0
:1013400011F01CFA10A811F0A1F9019B736330464B
:10135000FFF75AFD03E0103473E74FF0000B05A8C8
:10136000FFF7F2FD03A8FFF7EFFD584617B0BDE801
:10137000F08F38B504460D46FFF70DFE05F1080164
:1013800004F10800FFF707FE204638BD2DE9F041C3
:1013900004460E46FFF7F4FE06F10C0104F10C00C2
:1013A000FFF7EEFEF369B769DF1B00233811A36175
:1013B000E3612362FFF7E4FB0744A061E061276279
:1013C000D6F81C80B7690546B84507D01DB1394627
:1013D0002846FFF7CEFF10351037F5E7E56106F137
:1013E000240104F12400FFF7CBFE2046BDE8F08184
:1013F00038B509C81B1A1B116FF07044E51A8D42ED
:1014000002D2104606F011F98B422CBFD81858189A
:10141000834203D8A04228BF204638BD204638BDAD
:1014200070B506460C466CB1E1683046FFF7F8FF30
:10143000A56804F11800FFF787FD204604F033FE8D
:101440002C46F0E770BD08B542684B689A4208D157
:101450004AB1096800681EF0CBF9B0FA80F0400983
:1014600008BD002008BD012008BD000010B5496876
:101470008EB0044638396846FFF797FD184904F1E5
:101480003000FEF73FFF002384F8B03004F1500134
:1014900007A8FFF7D8FF30B10D9B591E4B424B41B7
:1014A00084F800310BE004F1680107A8FFF7CBFFD7
:1014B00028B10D9B5A1E5342534184F8013194F8D0
:1014C00000313BB194F801310BB1012300E002235C
:1014D00084F8B0306846FFF7C2FD0EB010BD00BF03
:1014E0009804002010B549688EB004463839684623
:1014F000FFF75BFD184904F13000FEF703FF0023FE
:1015000084F8983004F1500107A8FFF79CFF30B130
:101510000D9B591E4B424B4184F8E9300BE004F11E
:10152000680107A8FFF78FFF28B10D9B5A1E534291
:10153000534184F8E83094F8E8303BB194F8E9304E
:101540000BB1022300E0012384F898306846FFF7CE
:1015500086FD0EB010BD00BF9804002010B549688C
:101560008EB0044638396846FFF71FFD184904F16C
:101570003000FEF7C7FE002384F8983004F15001D4
:1015800007A8FFF760FF30B10D9B591E4B424B413E
:1015900084F8E9300BE004F1680107A8FFF753FF76
:1015A00028B10D9B5A1E5342534184F8E83094F8F9
:1015B000E9300BB1022303E094F8E83013B10123C2
:1015C00084F898306846FFF74AFD0EB010BD00BFA2
:1015D0009804002010B549688EB004463839684632
:1015E000FFF7E3FC174904F13000FEF78BFE002300
:1015F00084F8983004F1500107A8FFF724FF30B1B8
:101600000D9B591E4B424B4184F8E8300BE004F12E
:10161000680107A8FFF717FF28B10D9B5A1E534218
:10162000534184F8E93094F8E83013B994F8E9307C
:1016300013B1012384F898306846FFF710FD0EB00F
:1016400010BD00BF9804002010B549688EB0044654
:1016500038396846FFF7A9FC184904F13000FEF755
:1016600051FE002384F8B03004F1500107A8FFF7C1
:10167000EAFE30B10D9B591E4B424B4184F80031BC
:101680000BE004F1680107A8FFF7DDFE28B10D9B10
:101690005A1E5342534184F8013194F800313BB152
:1016A00094F801310BB1012300E0022384F8B0303B
:1016B0006846FFF7D4FC0EB010BD00BF98040020B0
:1016C00038B504460D46AC4204D0201DFFF73CFC63
:1016D0000834F8E738BD10B5044603C8FFF7F0FF3B
:1016E0002068FFF75AFA204610BDF8B590E80C00C4
:1016F0009B1ADB1014BF1A4601229A1804460E46A4
:101700006FF0604504D2AA4228BF2A46174600E07F
:101710002F463846FFF745FA054694E80900181A9F
:10172000281802D03146FFF736FC94E803002B4618
:1017300000F108064FF0000EA6F1080291420ED00B
:1017400053B156F8082C83E8044056F8042C46F8A8
:1017500004EC5A6046F808EC08330836ECE70E1A39
:1017600008362E44FFF7ACFF2068FFF716FA84E82E
:10177000600005EBC705A560F8BD43688268934229
:1017800010B5044607D013B11846FFF704FC636890
:101790000833636010BDFFF7A8FF10BD38B50446DD
:1017A0000D46AC4204D02046FFF7DAFB1034F8E7D0
:1017B00038BD10B504462430FFF78DFFE169A069FC
:1017C000FFF7ECFFA069FFF7E8F904F10C00FFF761
:1017D00082FF2046FFF77FFF204610BD10B5C4688A
:1017E00054B12046054B40F8183BFFF7E2FF204676
:1017F000BDE8104004F057BC10BD00BF0C900208BB
:10180000F8B582684368934204460E4607D013B188
:101810001846FFF7AEFD636810336360F8BD124AE7
:101820000121FFF7E5FD0746FFF7AAF9054694E811
:101830000900181A281802D03146FFF79AFD2A46E7
:1018400094E80300FFF75EFA064694E80300FFF70A
:10185000A5FF2068FFF7A1F91036256005EB0715F5
:101860006660A560F8BD00BFA9930208436882685E
:1018700093422DE9F04105460C4613D073B10A6836
:101880001A6000225A60496862605960A16822604B
:10189000DA609960E168E260D960A26010336B6041
:1018A000BDE8F081194A0121FFF7A2FD8046FFF74C
:1018B00067F9064695E803000B1AF21812D027685C
:1018C000F75000235360D4F804E0A7686360C2F8BF
:1018D00004E02360D360D4F80CE09760E360C2F8C2
:1018E0000CE0A3603246FFF70DFA044695E80300CA
:1018F000FFF754FF2868FFF750F910342E6006EB0D
:1019000008166C60AE60BDE8F08100BFA9930208C4
:1019100070B50E461446051D2B1F9E4210D064B1B3
:10192000204655F8043C40F8043B2946FFF72CFBC1
:10193000291D04F10800FFF72EFB10341035EBE7EA
:10194000204670BD70B54B680D685D1B00230446D2
:1019500003604360836028110E46FFF711F90544C8
:1019600020606060A560024696E80300FFF7D0FFA4
:101970006060204670BD8B6870B5164604460D1D2C
:1019800001225BB130681A69904234BF9868D86808
:101990001D4634BF012200220346F2E732B1CA6875
:1019A00095420AD0284604F031FF00E0284633680B
:1019B00002699A424FF0000302D284E8280001E055
:1019C00084E80900204670BD38B51C460546031D55
:1019D00041B99A4206D01069216981422CBF00208A
:1019E000012000E00120214604F012FF6B69013361
:1019F0006B61204638BD2DE9F74305461C2017468C
:101A00001E46894604F012FE31463B68036100F130
:101A1000180851F8043B436104464046FFF7B4FA06
:101A200004F1100249466846FFF7A5FF019E009F9A
:101A30004EB12346324639464846FFF7C5FF0123DB
:101A400028602B7107E04046FFF77EFA204604F03D
:101A50002AFB2F602E71284603B0BDE8F0832DE9E4
:101A6000F7431C4605461C20894604F0DFFD236829
:101A700006461F6807612B1D00F1100899454FF0BD
:101A800000007061B0614C4608D16B69002B4BD0EF
:101A90002A691369BB4247D2044636E0D9F81030B0
:101AA000BB4217D9EB684B45484611D004F0AEFE57
:101AB0000369BB4205D2C368002B0CBF0024484613
:101AC00006E0684642462946FFF755FF009C01980C
:101AD000024619E01FD22B694B4513D0484604F04B
:101AE00082FE0369BB4206D9D9F80C30002B0CBF2B
:101AF0000020044606E0684642462946FFF73BFFC1
:101B00009DE81100224604462AB133462146284664
:101B1000FFF75AFF10E006F11800FFF715FA3046FC
:101B200004F0C1FA204607E0424629466846FFF71E
:101B300022FF009C019AE7E703B0BDE8F0830000B4
:101B40007FB5041D83680A4621464BB115681E699E
:101B5000AE4236BFDD689D680B4619462B46F4E75A
:101B60008C4203D014680B699C4208D204AB43F842
:101B7000042D02AA0092044AFFF771FF014601F109
:101B8000140004B070BD00BF2C93020838B504687F
:101B900043681B1BDC100A4B63430A4CE51A8D4259
:101BA00002D2104605F041FD8B422CBFD8185818C0
:101BB000834203D8A04228BF204638BD204638BD06
:101BC000B76DDBB62449920438B504460D46AC42E5
:101BD00004D02046FFF743FA3834F8E738BD10B593
:101BE000044603C8FFF7F0FF2068FEF7D6FF204643
:101BF00010BD00000E4B70B50446C360A830FFF75F
:101C00002EFA04F15C0604F1A405AE4204D0183D9E
:101C1000284610F03BFDF8E704F15000FFF7DFFF26
:101C2000044BE36004F12400BDE8704010F02EBDC9
:101C3000E88F0208348F02080E4B70B50446C3606B
:101C4000A830FFF70CFA04F15C0604F1A405AE42DB
:101C500004D0183D284610F019FDF8E704F15000B3
:101C6000FFF7BDFF044BE36004F12400BDE87040C2
:101C700010F00CBDC48F0208348F02080E4B70B5F3
:101C80000446C360A830FFF7EAF904F15C0604F1EA
:101C9000A405AE4204D0183D284610F0F7FCF8E742
:101CA00004F15000FFF79BFF044BE36004F12400B4
:101CB000BDE8704010F0EABCA08F0208348F020823
:101CC0000E4B70B50446C360C030FFF7C8F904F18D
:101CD0005C0604F1BC05AE4204D0183D284610F065
:101CE000D5FCF8E704F15000FFF779FF044BE360FF
:101CF00004F12400BDE8704010F0C8BC7C8F0208DD
:101D0000348F02080E4B70B50446C360C030FFF735
:101D1000A6F904F15C0604F1BC05AE4204D0183DFE
:101D2000284610F0B3FCF8E704F15000FFF757FF26
:101D3000044BE36004F12400BDE8704010F0A6BC41
:101D4000588F0208348F0208006810B103681B69BD
:101D50001847704738B504460D46AC4204D0201DE4
:101D6000FFF7F2F80834F8E738BD10B5044603C8A9
:101D7000FFF7F0FF2068FEF710FF204610BD10B5FA
:101D800004468030FFF72BFF04F16C00FFF727FFBC
:101D900004F14C00FFF7E9FF04F13C00FFF7E5FF19
:101DA00004F13800FFF7D0F804F12800FFF7DDFF59
:101DB000204610BD10B5C4683CB12046FFF7DFFFD8
:101DC0002046BDE8104004F06EB910BD08B50C30D7
:101DD000FFF7D5FF08BDF8B590E80C009B1ADB10A3
:101DE00014BF1A4601229A1804460E466FF0604549
:101DF00004D2AA4228BF2A46174600E02F4638469A
:101E0000FEF7CFFE94E80C009B1A0546C01806D0DA
:101E10003146043051F8042BEA50FFF7B5F894E846
:101E200003002B4600F108064FF0000EA6F1080251
:101E300091420ED053B156F8082C83E8044056F86E
:101E4000042C46F804EC5A6046F808EC08330836CF
:101E5000ECE70E1A08362E44FFF77CFF2068FEF7E9
:101E60009CFE84E8600005EBC705A560F8BD38B5A9
:101E700043688568AB4204460BD033B1184651F82D
:101E8000042B40F8042BFFF77FF863680833636086
:101E900038BDFFF7A0FF38BD70B50E461446051DCE
:101EA0002B1F9E4210D064B1204655F8043C40F8E8
:101EB000043B2946FFF768F8291D04F10800FFF7E5
:101EC0006AF810341035EBE7204670BDF7B502AB69
:101ED00003E90600019D009E00232D0104460360D6
:101EE000436083602811FEF74BFE771905440246D4
:101EF0002060A56039463046FFF7CEFF606020467F
:101F000003B0F0BD091A2DE9F041CD109046161D21
:101F1000041D2F46002F0BDD54F8043C46F8043C0A
:101F200021463046FFF76CF9013F08360834F1E7E7
:101F300025EAE57008EBC000BDE8F08181422DE99B
:101F4000F8430446884660D091E820022268A368DE
:101F5000C5EB0907F8109B1AB0EBE30F22D9FEF787
:101F600020FE0435064600F104082B1F99450ED0CB
:101F7000B8F1040F07D055F8043C48F8043C294652
:101F80004046FFF701F808F108080835EDE794E846
:101F90000300FFF7DFFE2068FEF7FFFD26603E44EA
:101FA000A6602FE06168891AB0EBE10F0CD82846D3
:101FB0004946FFF7A7FF66680546AE4222D0281DB6
:101FC000FEF7C2FF0835F8E729442846FFF79AFFD5
:101FD00094E84800D8F80050D8F80480F31A043385
:101FE00004361D442B1F98450CD0042E07D055F8FD
:101FF000043C46F8043C29463046FEF7C5FF083647
:102000000835EFE723681F4467602046BDE8F88382
:102010002DE9F047002504469CB0056045608560C9
:10202000C56005610E46FEF7BCF96561A561E56115
:102030002562656204F11400FEF7B3F9A562E5625A
:1020400025636563A563E56325646564E5642565CB
:102050006565316884F84850043104F15800FEF792
:1020600027F9E56625676567C4F88050C4F8845091
:10207000C4F888503168A5670BAE1831E56710A821
:10208000FFF784F91022294630461DF0E6FB109F29
:10209000DDF84490DFF8BC820F950D960E96083758
:1020A000A7F10805A94500F0E880199B1A98C11A04
:1020B0004FEA611E1E46BEF1000F33461ADD57F887
:1020C000082C3168914233D0B1688A4202D106F1BE
:1020D00008032EE031698A4202D106F1100328E09C
:1020E000203656F8081C8A4201D1183321E00EF13F
:1020F000FF3EE0E7821BD210022A0AD0032A02D058
:10210000012A13D10BE0316857F8082C91420FD007
:102110000833196857F8082C91420AD00833196817
:1021200057F8082C914218BF034602E0034600E02E
:102130003346B0EB030A294601A818BF4FF0010A45
:10214000FFF742F8294603A8FEF7BAFF019B43BBFD
:1021500098200593069304F069FA0646012343602C
:10216000836046F80C8B039B0793054604A908A8D7
:10217000FEF70AFF07A93046FFF74AFF08A8FEF757
:10218000E3FE7349069506A8FFF7DEFD05A9059055
:1021900080F848A004F12800FFF769FE1CAA039B01
:1021A00059E0002698200596069604F03FFA012390
:1021B000054602A943608360C0F80080019B079335
:1021C00008A8FEF7E1FEEE602E616E61AE61EE6181
:1021D00005F10C00FEF7E5F82E626E62AE62EE626B
:1021E0002E6305F12000FEF7DCF8079B2B6408A99D
:1021F0006E63AE63EE6305F14400FEF7C5FE07991A
:10220000AE640431EE642E65AE65EE652E6605F1B2
:102210006400FEF74DF8AE67EE67C5F88060C5F85C
:102220008460C5F88860C5F88C60C5F89060C5F812
:10223000946008A8FEF788FE4549069506A8FFF7B2
:1022400083FD05A9059080F848A004F12800FFF758
:102250000EFE019B1CAA42F8703D0AA905AB07A817
:10226000FFF7C9FB06A8FEF76FFE04A8FEF76CFE99
:1022700002A8FEF769FE083712E7109EDDF84480D9
:1022800008360027A6F10803984543D000210846E8
:10229000079708970997FFF75DFD169DDDF85C909D
:1022A00008970835A5F10803994521D055F8082C61
:1022B00056F8083C9A4219D1294603A8FEF784FF34
:1022C000294605A8FEF7FCFE039B03B9059B019375
:1022D00001A90AA8FFF734FC014607A8FFF7C7FDCC
:1022E00006A8FEF731FE04A8FEF72EFE1035D9E74A
:1022F0001CA956F8083C41F85C3D0AA8FFF720FCF1
:10230000006807A94C30FFF719FE07A8FFF72DFD5D
:102310000836B7E7149F139D04F13C06AF420BD07B
:1023200055F8083B079307A90AA8FFF709FC0146DF
:102330003046FFF79CFDF1E70C990AA8FFF770F80B
:1023400010A8FFF736FA20461CB0BDE8F08700BFA2
:10235000B087020818930208091A2DE9F0470D11F9
:10236000924604461646A946B9F1000F04F110073B
:1023700006F1100814DD57F8103C48F8103C211DF8
:10238000301DFEF73DFFA368B36004F10C0106F1B8
:102390000C00FEF735FF09F1FF3946463C46E3E7FE
:1023A00025EAE5700AEB0010BDE8F08781422DE9CF
:1023B000F04104460E4643D091E880012268A368AC
:1023C000C7EB080528119B1AB0EB231F17D9FEF79E
:1023D000D7FB4146024606463846FFF799FA94E88D
:1023E0008001B84504D03846FEF7C4FD1037F8E741
:1023F0002068FEF7D2FB26602E44A6601DE06368CD
:10240000991AB0EB211F0CD838464146FFF7A4FFBC
:1024100067680646B74210D03046FEF7ABFD10366F
:10242000F8E739443846FFF797FF94E8050033682A
:102430007168101A1844FFF72FFD23681D4465606A
:102440002046BDE8F08100002DE9F0470024054654
:1024500091468EB0046044608460C4600461984614
:102460000E46FDF79EFF6C61AC61EC612C62494643
:1024700005F12400FFF766FA414605F13000FFF749
:1024800061FA316805F140000431FDF711FF99E868
:1024900090000434231F9F4217D054F8043C099342
:1024A00023B121460AA8FEF76FFD00E00A930998C0
:1024B00018B991481EF030FC02E003681B69984788
:1024C0000AA8FEF741FD1034E4E798E890000434D0
:1024D000231F9F4217D054F8043C099323B121468F
:1024E0000AA8FEF751FD00E00A93099818B983483D
:1024F0001EF012FC02E003681B6998470AA8FEF769
:1025000023FD1034E4E731460EAF51F8043B47F8A1
:10251000283D05A8FEF738FD8C2004F087F83946E1
:1025200000260446FFF774FD102009940A9604F073
:102530007DF8012343608360714B0360099B6A69E6
:10254000C4606B61AB69A8610AA809920A93FEF79F
:10255000FBFC05A8FEF7F8FC494601A8FFF7F2F9D5
:1025600041463846FFF7EEF9282004F05FF801A94C
:10257000044646608660C660066146618661C66143
:10258000066246621030FFF711FF394604F11C0065
:10259000FFF70CFF636926699E1B3611266009A8A8
:1025A000FEF772F8D4F80480E368564AC8EB0303D8
:1025B0009B1053439E42B14627D956B1524B9E427F
:1025C00001D905F029F81420704304F02FF8804653
:1025D00000E0B046142303FB0686C246B9F1000FA3
:1025E0000BD0BAF1000F03D009A95046FDF760FEE9
:1025F00009F1FF390AF1140AF0E76068A660C4F82F
:102600000480E660FEF7C9FA41E0D4F80890C8EB10
:1026100009039B105A43964202D8B246C14626E0AF
:10262000C14506D0404609A9FDF76CFE08F1140823
:10263000F6E7D4F808906368324AC3EB09039B10AD
:1026400002FB1366C846B246BAF1000F0BD0B8F1D0
:10265000000F03D009A94046FDF72AFE0AF1FF3A10
:1026600008F11408F0E7142303FB06960EE0BAF114
:10267000000F08D0484609A9FDF744FE0AF1FF3AC9
:1026800009F11409F3E7142303FB0686A66000266C
:10269000102009940A9603F0C9FF01234360836068
:1026A0001A4B0360099BEA69C460EB612B6A2862DC
:1026B0000AA809920A93FEF747FC3846FEF7AAFCDF
:1026C00001A8FEF7A7FC6C690996082309A80C93DA
:1026D0000A960B960D96FDF764FE09AA2146384628
:1026E000FEF70AFD39462846FDF70CFE284685F818
:1026F0003C600EB0BDE8F087C5930208DD93020888
:1027000058910208CDCCCCCCCCCCCC0C7491020826
:1027100038B50D460446FDF7F5FD6B69636105F1BB
:10272000180104F11800FEF76BFD04F11C0005F11F
:102730001C0110F023F86B6B6363204638BD00006A
:10274000091A0D4B2DE9F041CC105C43904605462B
:1027500026461746002E07DD29463846FFF7D8FFE4
:1027600038353837013EF5E724EAE474382000FBB9
:102770000480BDE8F08100BFB76DDBB6091A2DE912
:10278000F041CD109046161D041D2F46002F0BDD85
:1027900054F8043C46F8043C21463046FEF730FD30
:1027A000013F08360834F1E725EAE57008EBC00080
:1027B000BDE8F0812DE9F8430446551A1746A36891
:1027C0002268E8109B1AB0EBE30F0E461ED9FEF705
:1027D000E8F981468046B7420AD0B8F1000F03D02D
:1027E00031464046FEF7D7FB083608F10808F2E705
:1027F00094E80300FEF764FF4D442068FEF7CDF92E
:10280000C4F800906560A560BDE8F8836568AD1AFE
:10281000B0EBE50F0AD839463046FFF7AFFF6168E5
:102820000546FEF74DFF6560BDE8F8830D44304670
:102830002946FFF7A3FF6668AF4207D01EB12946BD
:102840003046FEF7A8FB08350836F5E76660BDE8B8
:10285000F883091A2DE9F0470D11924604461646F1
:10286000A946B9F1000F04F1100706F1100814DDB4
:1028700057F8103C48F8103C211D301DFEF7C0FCF5
:10288000A368B36004F10C0106F10C00FEF7B8FC7C
:1028900009F1FF3946463C46E3E725EAE5700AEBD5
:1028A0000010BDE8F087000082B02DE9F04FF1B0D4
:1028B00004467B9303937D9B02930DF1180B7F9B42
:1028C00001938BE806000D46FEF7EEFBB04B23604C
:1028D00040AA002304F118081146A361E3612362B2
:1028E0006362A362E36223636363A363E3632364BA
:1028F00063644046FFF75EFF04F124074CAA4FF0E3
:10290000000311463846FFF755FF58A9226B0846C9
:10291000FFF79FFF616B06460DF5C87AFEF73EFF95
:10292000666304F13C064FF00003524651463046C0
:10293000A146FFF73FFF974B49F8303BDBF80430E7
:1029400005EBC30B5D453AD029465046FEF7B8FB70
:10295000649921B929464046FEF70FFF2AE0183155
:1029600010A8FEF713FD119A109B05929A4208D009
:10297000194640460493FEF700FF049B059A08336E
:10298000F3E710A8FEF715FF64991CA81831FEF7AD
:10299000FDFC239A229B05929A4208D0194648468C
:1029A0000493FEF72DFF049B059A1033F3E71CA850
:1029B000FEF7FFFE65A8FEF7C7FA0835C2E7039ADF
:1029C0007C9B154602EBC308454523D0294664A8E5
:1029D000FEF776FB649921B929463846FEF7CDFE0D
:1029E00013E0183128A8FEF7D1FCDDF8B0A0DDF81F
:1029F000AC90CA4506D049463846FEF7BEFE09F1FE
:102A00000809F6E728A8FEF7D4FE65A8FEF79CFAA9
:102A10000835D9E7019A809B154602EBC308454566
:102A200021D0294664A8FEF74BFB649921B92946B9
:102A30003046FEF7A2FE11E0183134A8FEF7A6FCDE
:102A4000DDF8F8903D9F4F4505D039463046FEF7FA
:102A500094FE0837F7E734A8FEF7ABFE65A8FEF74B
:102A600073FA0835DBE7029A7E9B154602EB0318E2
:102A7000454500F08680294608A8FEF721FB05F1B0
:102A800008010AA8FEF71CFB08990A9B29BB2BB971
:102A9000294604F13000FEF7B3FE6AE003F11801A5
:102AA00040A8FEF773FCDDF81091439E04F1300757
:102AB000B14510D029460CA8FEF76DFA31460EA894
:102AC000FEF769FA0CA93846FEF7D0FE0CA8FEF70F
:102AD00047FA0836ECE740A849E01831E3B94CA8BA
:102AE000FEF754FC569F559EB74213D031460CA8B2
:102AF000FEF751FA0A9B0E930BA90FA8FEF744FAB2
:102B00000CA904F13000FEF7B1FE0CA8FEF728FA7C
:102B10000836E9E74CA82AE058A8FEF737FCDDF8AC
:102B20008891619EB14521D00A9964A81831FEF7B9
:102B30002DFCDDF8A0B1679F04F1300ABB4510D031
:102B400031460CA8FEF727FA39460EA8FEF723FAFD
:102B50000CA95046FEF78AFE0CA8FEF701FA0837CA
:102B6000ECE764A8FEF725FE0836DBE758A8FEF779
:102B700020FE0BA8FEF7E8F909A8FEF7E5F91035E5
:102B800076E7204671B0BDE8F04F02B0704700BF55
:102B90000C9002081890020810B50446FEF784FA5B
:102BA0002046044B40F8183B0349FDF7BFFF204681
:102BB00010BD00BF348F0208F69302082DE9F043E0
:102BC00089B0002507464FF488700095019503F001
:102BD0002DFD01230646436083602D4B46F80C3BD8
:102BE00004462C4902A8FDF7A1FF04F1F80830467D
:102BF000FFF7D2FF284BE360414604F13C00FDF7AC
:102C000057FB04F15C0925656565A56504F164035E
:102C100004F1C40243F8083C43F8045C03F8185B71
:102C20009A424FF00006F5D104F1C00084F8BC6070
:102C3000FEF7C4F804F110014046FDF739FB1749CF
:102C400084F80C61484684F80D610FF0D0FF1449F8
:102C500004F174000FF0CBFF08AD124904F18C00B1
:102C60000FF0C5FF02A80FF011FD45F81C4D0E49ED
:102C70002846FFF769F8019B38607B60284601967B
:102C80000096FEF761F9384609B0BDE8F08300BF51
:102C9000909102082D930208588F0208FD930208B4
:102CA0000794020818940208B08702082DE9F0433F
:102CB00089B0002507464FF488700095019503F010
:102CC000B5FC01230646436083602D4B46F80C3B60
:102CD00004462C4902A8FDF729FF04F1F808304604
:102CE000FFF75AFF284BE360414604F13C00FDF733
:102CF000DFFA04F15C0925656565A56504F16403E7
:102D000004F1C40243F8083C43F8045C03F8185B80
:102D10009A424FF00006F5D104F1C00084F8BC607F
:102D2000FEF74CF804F110014046FDF7C1FA1749CF
:102D300084F80C61484684F80D610FF058FF14497F
:102D400004F174000FF053FF08AD124904F18C0038
:102D50000FF04DFF02A80FF099FC45F81C4D0E49ED
:102D60002846FEF7F1FF019B38607B6028460196FC
:102D70000096FEF7E9F8384609B0BDE8F08300BFD9
:102D8000AC910208479302087C8F02082294020843
:102D9000079402082C940208B08702082DE9F0433A
:102DA00089B000250746F8200095019503F03EFC08
:102DB00001230646436083602D4B46F80C3B0446D6
:102DC0002C4902A8FDF7B2FE04F1E0083046FFF7F7
:102DD000E3FE294BE360414604F13C00FDF768FA4D
:102DE00004F15C0925656565A56504F1640304F1DA
:102DF000AC0243F8083C43F8045C03F8185B9A42C1
:102E00004FF00006F5D1012304F1A80084F8A430A6
:102E1000FDF7D4FF04F110014046FDF749FA1749C8
:102E200084F8F460484684F8F5600FF0E0FE144939
:102E300004F174000FF0DBFE08AD124904F18C00C0
:102E40000FF0D5FE02A80FF021FC45F81C4D0E49ED
:102E50002846FEF779FF019B38607B602846019683
:102E60000096FEF771F8384609B0BDE8F08300BF60
:102E7000C891020842930208A08F02083694020803
:102E80004494020853940208B08702082DE9F043E5
:102E900089B000250746F8200095019503F0C6FB90
:102EA00001230646436083602C4B46F80C3B0446E6
:102EB0002B4902A8FDF73AFE04F1E0083046FFF77F
:102EC0006BFE284BE360414604F13C00FDF7F0F94E
:102ED00004F15C0925656565A56504F1640304F1E9
:102EE000AC0243F8083C43F8045C03F8185B9A42D0
:102EF0004FF00006F5D104F1A80084F8A460FDF7B6
:102F00005DFF04F110014046FDF7D2F9164984F83F
:102F1000F460484684F8F5600FF069FE134904F147
:102F200074000FF064FE08AD114904F18C000FF03D
:102F30005EFE02A80FF0AAFB45F81C4D0D4928467D
:102F4000FEF702FF019B38607B60284601960096E1
:102F5000FDF7FAFF384609B0BDE8F083E4910208B6
:102F60003B930208C48F0208369402085394020867
:102F70005D940208B08702082DE9F04389B000256E
:102F80000746F8200095019503F050FB0123064603
:102F9000436083602C4B46F80C3B04462B4902A847
:102FA000FDF7C4FD04F1E0083046FFF7F5FD284BBE
:102FB000E360414604F13C00FDF77AF904F15C0955
:102FC00025656565A56504F1640304F1AC0243F869
:102FD000083C43F8045C03F8185B9A424FF0000683
:102FE000F5D104F1A80084F8A460FDF7E7FE04F130
:102FF00010014046FDF75CF9164984F8F460484634
:1030000084F8F5600FF0F3FD134904F174000FF03C
:10301000EEFD08AD114904F18C000FF0E8FD02A8A7
:103020000FF034FB45F81C4D0D492846FEF78CFE89
:10303000019B38607B60284601960096FDF784FF6F
:10304000384609B0BDE8F0830092020834930208C4
:10305000E88F020844940208539402086894020816
:10306000B087020870B5044615460E46FEF71CF8F8
:103070002046064B40F8183B31460FF0F3FE294638
:1030800004F13000FDF714F9204670BD24900208C9
:10309000F0B58FB00024074650200194029403F04D
:1030A000C5FA0123064643608360164B46F80C3B85
:1030B0000546154908A8FDF739FDC82303A806935E
:1030C0000394049405940794FDF76BF903AA08A9E7
:1030D00030460EAEFFF7C6FF0C4BEB6008A80FF0B2
:1030E000D5FA46F8305D0A493046FEF72DFE029BC0
:1030F00038607B60304602940194FDF725FF384626
:103100000FB0F0BD1C920208FD9302084090020827
:10311000B0870208F0B58FB0002407465020019414
:10312000029403F083FA0123064643608360164B42
:1031300046F80C3B0546154908A8FDF7F7FCC823DF
:1031400003A806930394049405940794FDF729F9C2
:1031500003AA08A930460EAEFFF784FF0C4BEB60C4
:1031600008A80FF093FA46F8305D0A493046FEF79A
:10317000EBFD029B38607B60304602940194FDF7C2
:10318000E3FE38460FB0F0BD3892020822940208E0
:103190005C900208B0870208F0B58FB000240746A3
:1031A00050200194029403F041FA01230646436043
:1031B0008360164B46F80C3B0546154908A8FDF7F9
:1031C000B5FCC82303A806930394049405940794BC
:1031D000FDF7E7F803AA08A930460EAEFFF742FF55
:1031E0000C4BEB6008A80FF051FA46F8305D0A4925
:1031F0003046FEF7A9FD029B38607B6030460294A2
:103200000194FDF7A1FE38460FB0F0BD54920208BC
:103210000794020878900208B0870208F0B58FB0D2
:103220000024074650200194029403F0FFF9012383
:10323000064643608360164B46F80C3B054615492D
:1032400008A8FDF773FCC82303A80693039404940D
:1032500005940794FDF7A5F803AA08A930460EAE19
:10326000FFF700FF0C4BEB6008A80FF00FFA46F8D1
:10327000305D0A493046FEF767FD029B38607B608F
:10328000304602940194FDF75FFE38460FB0F0BD62
:10329000709202083694020894900208B0870208DF
:1032A000F0B58FB00024074650200194029403F03B
:1032B000BDF90123064643608360164B46F80C3B7C
:1032C0000546154908A8FDF731FCC82303A8069355
:1032D0000394049405940794FDF763F803AA08A9DE
:1032E00030460EAEFFF7BEFE0C4BEB6008A80FF0A9
:1032F000CDF946F8305D0A493046FEF725FD029BC0
:1033000038607B60304602940194FDF71DFE38461C
:103310000FB0F0BD8C92020844940208B0900208ED
:10332000B087020810B5044B044640F8183B0FF074
:10333000ADF9204610BD00BF2490020810B5034B24
:1033400003600446FFF7EEFF204610BD20910208FF
:1033500010B50446FFF7F2FF204602F0A4FE204617
:1033600010BD000010B5034B03600446FFF7DAFF01
:10337000204610BD0491020810B50446FFF7F2FF85
:10338000204602F090FE204610BD000010B5034B11
:1033900003600446FFF7C6FF204610BDE890020810
:1033A00010B50446FFF7F2FF204602F07CFE2046EF
:1033B00010BD000010B5034B03600446FFF7B2FFD9
:1033C000204610BDCC90020810B50446FFF7F2FF6E
:1033D000204602F068FE204610BD000010B5034BE9
:1033E00003600446FFF79EFF204610BDB090020820
:1033F00010B50446FFF7F2FF204602F054FE2046C7
:1034000010BD000010B5034B03600446FFF78AFFB0
:10341000204610BD9490020810B50446FFF7F2FF55
:10342000204602F040FE204610BD000010B5034BC0
:1034300003600446FFF776FF204610BD789002082F
:1034400010B50446FFF7F2FF204602F02CFE20469E
:1034500010BD000010B5034B03600446FFF762FF88
:10346000204610BD5C90020810B50446FFF7F2FF3D
:10347000204602F018FE204610BD000010B5034B98
:1034800003600446FFF74EFF204610BD409002083F
:1034900010B50446FFF7F2FF204602F004FE204676
:1034A00010BD10B50446FFF73DFF204602F0FBFDBE
:1034B000204610BD38B504460D46FDF7F5FD204603
:1034C000084B40F8183B29460FF0CCFC002323633F
:1034D0006363A363E363236404F13000FCF761FFDB
:1034E000204638BD24900208F0B589B00746002672
:1034F00050200096019603F099F801230546436099
:103500008360114B45F80C3B0446104902A8FDF7B7
:103510000DFB02A9284608ADFFF7CCFF0C4BE3607A
:1035200002A80FF0B3F845F81C4D0A492846FEF7EB
:103530000BFC019B38607B60284601960096FDF7E6
:1035400003FD384609B0F0BDA8920208189402089D
:10355000CC900208B0870208F0B589B00746002673
:1035600050200096019603F061F801230546436060
:103570008360114B45F80C3B0446104902A8FDF747
:10358000D5FA02A9284608ADFFF794FF0C4BE3607B
:1035900002A80FF07BF845F81C4D0A492846FEF7B3
:1035A000D3FB019B38607B60284601960096FDF7AF
:1035B000CBFC384609B0F0BDC49202082C94020836
:1035C000E8900208B0870208F0B589B007460026E7
:1035D00050200096019603F029F801230546436028
:1035E0008360114B45F80C3B0446104902A8FDF7D7
:1035F0009DFA02A9284608ADFFF75CFF0C4BE3607B
:1036000002A80FF043F845F81C4D0A492846FEF77A
:103610009BFB019B38607B60284601960096FDF776
:1036200093FC384609B0F0BDE09202085D940208B0
:1036300004910208B0870208F0B589B00746002659
:1036400050200096019602F0F1FF012305464360E9
:103650008360114B45F80C3B0446104902A8FDF766
:1036600065FA02A9284608ADFFF724FF0C4BE3607A
:1036700002A80FF00BF845F81C4D0A492846FEF742
:1036800063FB019B38607B60284601960096FDF73E
:103690005BFC384609B0F0BDFC9202086894020851
:1036A00020910208B087020870B505460E46144600
:1036B000B54207D01CB129462046FDF776FC3835C7
:1036C0003834F5E7204670BDF8B5541A17460C4A51
:1036D000E3105A4305460E4608D00A4B9A4201D9D8
:1036E00003F09AFF204602F0A1FF024614442A602C
:1036F000AC6039463046FFF7D7FF6860F8BD00BFC1
:10370000B76DDBB62449920470B591F8983090B04B
:1037100005460C4601F19C066BB910AA803142F8AF
:103720003C3D02A8FDF75EFB02A93046FEF7F0FF24
:1037300002A8FDF794FC94F89830012B0ED110AA42
:1037400004F1800142F83C3D02A8FDF74BFB02A9C1
:103750003046FEF7DDFF02A8FDF781FC94F89830B3
:10376000022B0ED110AA04F1800142F83C3D02A8C0
:10377000FDF738FB02A93046FEF7CAFF02A8FDF7A5
:103780006EFC314602A8FDF710FC00232B606B6035
:10379000AB6010AA02A92846FFF796FF02A8FDF722
:1037A0005EFC284610B070BD70B591F8983090B0AE
:1037B00004460D4601F19C066BB910AA803142F80F
:1037C0003C3D02A8FDF70EFB02A93046FEF7A0FF24
:1037D00002A8FDF744FC95F89830012B0ED110AAF1
:1037E00005F1800142F83C3D02A8FDF7FBFA02A971
:1037F0003046FEF78DFF02A8FDF731FC314602A8E6
:10380000FDF7D3FB002323606360A36010AA02A925
:103810002046FFF759FF02A8FDF721FC204610B013
:1038200070BD70B591F8983090B005460C4601F126
:103830009C066BB910AA803142F83C3D02A8FDF706
:10384000D1FA02A93046FEF763FF02A8FDF707FC94
:1038500094F89830012B0ED110AA04F1800142F89F
:103860003C3D02A8FDF7BEFA02A93046FEF750FF24
:1038700002A8FDF7F4FB94F89830022B0ED110AAA1
:1038800004F1800142F83C3D02A8FDF7ABFA02A921
:103890003046FEF73DFF02A8FDF7E1FB314602A8E6
:1038A000FDF783FB00232B606B60AB6010AA02A9BD
:1038B0002846FFF709FF02A8FDF7D1FB284610B004
:1038C00070BD70B591F8B03090B005460C4601F16E
:1038D000B4066BB910AA803142F83C3D02A8FDF74E
:1038E00081FA02A93046FEF713FF02A8FDF7B7FBE5
:1038F00094F8B030012B0ED110AA04F1800142F8E7
:103900003C3D02A8FDF76EFA02A93046FEF700FF23
:1039100002A8FDF7A4FB94F8B030022B0ED110AA38
:1039200004F1800142F83C3D02A8FDF75BFA02A9D0
:103930003046FEF7EDFE02A8FDF791FB314602A8E6
:10394000FDF733FB00232B606B60AB6010AA02A96C
:103950002846FFF7B9FE02A8FDF781FB284610B004
:1039600070BD70B591F8B03090B005460C4601F1CD
:10397000B4066BB910AA803142F83C3D02A8FDF7AD
:1039800031FA02A93046FEF7C3FE02A8FDF767FB35
:1039900094F8B030012B0ED110AA04F1800142F846
:1039A0003C3D02A8FDF71EFA02A93046FEF7B0FE24
:1039B00002A8FDF754FB94F8B030022B0ED110AAE8
:1039C00004F1800142F83C3D02A8FDF70BFA02A980
:1039D0003046FEF79DFE02A8FDF741FB314602A8E6
:1039E000FDF7E3FA00232B606B60AB6010AA02A91D
:1039F0002846FFF769FE02A8FDF731FB284610B004
:103A000070BD000093422DE9F74F04468846914669
:103A10009B467AD09B1A456882683D4F521B4FEAFD
:103A2000E30AD21007FB0AFA7A4392453ED86A1A93
:103A3000D6107E43B24501921BD2EE1A2A46294681
:103A400030460193FDF7C6FA6268019B1344636038
:103A5000C8EB0603DB105F43002F07DD383D383E1F
:103A600031462846FEF754FE013FF5E742465946E7
:103A700018E0019B09EB03072A4659463846FDF733
:103A8000B9FA6368C6EB0A0A382202FB0A3262609E
:103A900029464046FDF79EFA6368019A1344636025
:103AA000424639464846FEF74BFE2EE0194A51463B
:103AB000FEF76CF8054650B1174B984201D903F058
:103AC000ABFD3820684302F0B1FD064600E0064633
:103AD000324641462068FFF7E7FD59460246484610
:103AE000FDF788FA616802464046FFF7DDFD0746AC
:103AF00094E80300FEF768F82068FDF74EF83823D5
:103B000084E8C00003FB0565A56003B0BDE8F08F45
:103B1000B76DDBB6739402082449920473B5046848
:103B200005464FF000068DF800600C1BFFF76AFF9A
:103B30002868204402B070BDF0B50D4689B0044637
:103B4000114605F114001646FCF7D5FB20B1002301
:103B500023606360A3603DE0696B21B10B68204680
:103B6000DB68984736E0EF6AAD6A009101910291F7
:103B70000835A5F108039F421FD055F8081C03A87B
:103B80001431FCF795FB314603A8FCF79CFB002899
:103B9000EED055F8081C91F84830002BE8D032469A
:103BA00003A8FFF7C9FF049B039A01996846FFF732
:103BB000B5FF03A8FEF713F8DAE7019A009B6260ED
:103BC000029A2360A2600023684600930193029347
:103BD000FEF705F8204609B0F0BD00002DE9F04FD2
:103BE000C36F466B013391B004460D46C367002E88
:103BF0003ED0336830469B699847226FE36E04F1EC
:103C000014069A42314628460AD1FCF75CFB20B1E3
:103C1000606B03685B68984714E02946204621E002
:103C2000FCF751FB676B04F16C083B68E8B1D3F813
:103C30001490224629460BA8FCF73FFC0BAA4146EC
:103C40003846C84729462046FCF75CFB616B0B6889
:103C500006A89B68984721460BA806AAFCF7D4FB48
:103C60000BA93046FCF74EFBD2E0D3F81090E0E70A
:103C70006C48DFF8B48100F03DFC29462046FCF793
:103C800041FB009601960296039604960596E66B14
:103C9000276C0836A6F108094F4521D056F8081CB4
:103CA0000BA81431FCF704FB21460BA8FCF723FBFF
:103CB00060B156F8082C136FD26E9B1ADB10424687
:103CC0005A4303D1494603A8FEF7D1F856F8080C29
:103CD000236F016FE26E6C30FFF720FF0836D9E7E3
:103CE00004F1140841462046FCF7EDFA002851D0B3
:103CF000D4F82C90A66A0836A6F10807B94549D031
:103D000056F8081C0BA81431FCF7D2FA41460BA850
:103D1000FCF7D9FA0028EED039466846FEF7A7F836
:103D200056F8081C0B6DCA6C9B1ADB08E3D02246C0
:103D300006A8FFF701FF56F8083CD3F850B0DF6C37
:103D40000837A7F1080AD34520D057F8081C0BA85C
:103D50001431FCF7ADFA21460BA8FCF7CCFA60B1A0
:103D600057F8081C304A0B6FC96E5B1ADB105A43B8
:103D700003D1514603A8FEF77AF857F8080C079BC1
:103D8000016F069A6C30FFF7C9FED9E706A8FDF768
:103D900026FFB0E79DE8C000B74205D0294656F897
:103DA000080BFFF71BFFF7E7049F039EB74205D000
:103DB000294656F8080BFFF711FFF7E7A56AE66AF0
:103DC000B54216D02F460835AE4211D029680BA84F
:103DD0001431FCF76DFA396806A81431FCF768FA5B
:103DE00006A90BA8FCF799FA002818BF2F46EAE7A6
:103DF0003E4631680BA81431FCF75AFA0BA940462D
:103E0000FCF780FA03A8FDF7B0FF6846FDF7ADFFA9
:103E1000E56E216F2846FDF7D7FE256711B0BDE896
:103E2000F08F00BF8B940208B76DDBB62DE9F04F21
:103E30000C46AFB081469046FCF73EFC94F83C300F
:103E400023B341462046FCF768FA002800F0E580DD
:103E500021466069FFF7C2FE616920A81431FCF7B2
:103E600027FA20A92046FCF74DFAEAE721466069C7
:103E7000FFF7B4FE616920A81431FCF719FA20A9F4
:103E80002046FCF73FFA04A8FDF7A9FE20A8FCF79E
:103E9000FBFB414620A8FCF740FA30B941462046DA
:103EA000FCF73BFA002800F0B88020A8FCF7ECFBF8
:103EB000214620A8FCF731FA00285CD012A8FCF7B4
:103EC0007DFF12A9E069FDF7AFF900284FD06569C1
:103ED00012A920A8FDF769F8286F6B6F984207D0E8
:103EE00010B120A9FDF761F82B6F38332B6730E054
:103EF0004E4A012105F16C00FDF748FE064650B11F
:103F00004B4B984201D903F087FB3820704302F0F5
:103F10008DFB074600E007462B6FE86E181A38182D
:103F200002D020A9FDF741F83A46296FE86EFFF765
:103F3000BBFB296F8246E86EFDF746FEE86EFCF794
:103F40002CFE0AF138032B67382303FB0676EF6655
:103F50006E6720A8FDF783F820A8FCF795FB20A941
:103F60002046FCF7CFF912A8FDF779F803E012A874
:103F7000FDF775F899E72246616904A8FFF7DCFDB3
:103F8000049B059A9A423FF471AF214607A8FCF7BB
:103F90008FF9059F049EB7423FF468AF059920A8AA
:103FA0003839FDF702F8059838380590FDF757F8CD
:103FB00027A90CA8E5690DF1B80A0EF053FF20A857
:103FC000FCF722FF2D9BD5F820B04AF8AC3DED69F7
:103FD0001035A5F110039B4517D055F8101C12A8F9
:103FE00018310EF03FFF0CA912A8FDF72CFA019032
:103FF00012A80EF04BFB019B002BE9D055F8100CDA
:1040000003685146DB689847E2E70CA80EF03EFBD8
:1040100020A8FDF724F83836BDE721464846FCF7CE
:1040200047F948462FB0BDE8F08F00BFA9930208BA
:10403000244992042DE9F041ADF5047DFCF736FFEB
:10404000A7481CF069FEA7481CF066FE09A8FEF709
:10405000B5FD0BA8FEF72AFE0DA8FEF79FFE0FA8E0
:10406000FEF714FF11A8FEF787FF4FAD9E481CF026
:1040700053FE09A92846FCF7FDFF0BA951A8FCF740
:10408000F9FF0DA953A8FCF7F5FF0FA955A8FCF7F8
:10409000F1FF64AE11A957A8FCF7ECFF299509A917
:1040A000052530462A95FCF7E5FF0BA966A8FCF725
:1040B000E1FF0DA968A8FCF7DDFF0FA96AA8FCF7CE
:1040C000D9FF37AF11A96CA8FCF7D4FF0DA938466A
:1040D0002B962C95FCF7CEFF0FA939A8FCF7CAFF49
:1040E0000DA93BA8FCF7C6FF0DF1FC0811A93DA8DE
:1040F000FCF7C0FF022309A940462E932D97FCF739
:10410000B9FF0BA941A8FCF7B5FF0FA943A8FCF71D
:10411000B1FF11A945A8FCF7ADFF04234820CDF855
:10412000C880339302F082FA32AE804696E80300EC
:1041300003AB83E803002DAD95E8030001AB83E8F2
:1041400003002C9B009329AC94E806002B9B40466F
:10415000FEF7AAFB002310201493CDF84C8002F048
:1041600065FA012343608360604B0360C0F80C80F4
:10417000149046A8FCF7E8FE44A8FCF7E5FE42A828
:10418000FCF7E2FE40A8FCF7DFFE3BA8FCF7E8FEE8
:104190003846FCF7E5FE6CAC62AD201D083CFCF730
:1041A000D3FEA542F9D157AC4DAD201D083CFCF71C
:1041B000CBFEA542F9D14E481CF0AEFD15A8FEF786
:1041C00067FF17A8FEF7A6FF19A8FEF7E5FF1BA8D3
:1041D000FFF724F81DA8FFF763F81FA8FFF784F97D
:1041E00021A8FFF7B9F923A8FFF7EEF925A8FFF7F3
:1041F00023FA40481CF090FD2DA8FCF745FA64AC6A
:10420000139B279314A928A8FCF7BEFE09AA15A999
:104210002046FCF739FF09AA19A968A8FCF734FF62
:104220000BAA17A96CA8FCF72FFF0BAA19A970A855
:10423000FCF72AFF0DAA1BA974A8FCF725FF0FAAFB
:104240001BA978A8FCF720FF0DAA1DA97CA8FCF7E4
:104250001BFF11AA1DA980A8FCF716FF08232A93AB
:10426000299429AA07AB06CA3FAE32A8FDF72EFE55
:1042700009AA1FA93046FCF707FF0BAA21A943A8EA
:10428000FCF702FF0FAA23A947A8FCF7FDFE11AA1D
:1042900025A94BA8FCF7F8FE04232C932B962BAAF8
:1042A00006CA08AB37A8FDF711FE37AB32AA27A91B
:1042B0004FA8FEF7C9F837A8FCF7ACFE4BA8FCF7EF
:1042C00059FE47A8FCF756FE43A8FCF753FE3046BC
:1042D000FCF750FE32A8FCF79DFE07250CE000BF5E
:1042E00095940208B8940208D49402083C910208FC
:1042F000F19402080D95020804EB0510FCF73AFE54
:1043000015F1FF35F8D228A8FCF71EFE00251E2364
:1043100032A833933295349535953695FCF741F8AC
:1043200032A937A8FCF764F9314A294637A80EF0BC
:104330007BFC014630460EF09CFA2E4930460EF0CA
:10434000BFFC014620460EF094FA64981CF034FC41
:1043500020460EF09BF930460EF098F937A80EF083
:1043600095F932AA4FA92046FFF760FD214632A8F1
:10437000FBF7C8FF5BA8FCF74DFE58A8FCF74AFE08
:1043800057A8FCF7E1FD55A8FCF7DEFD26A8FCF7D1
:10439000DBFD24A8FCF7D8FD22A8FCF7D5FD20A85A
:1043A000FCF7D2FD1EA8FCF7CFFD1CA8FCF7CCFD46
:1043B0001AA8FCF7C9FD18A8FCF7C6FD16A8FCF75B
:1043C000C3FD14A8FCF7C0FD12A8FCF7BDFD10A8A2
:1043D000FCF7BAFD0EA8FCF7B7FD0CA8FCF7B4FD7E
:1043E0000AA8FCF7B1FD28460DF5047DBDE8F08173
:1043F0001F9502089493020810B5234C204602F042
:104400006BFA224A2249204601F048FE0021214849
:10441000FCF7BAFC10212048FCF7B6FC06211F4827
:10442000FCF7B2FC20211E4800F0CCFA21211D48E7
:1044300000F0C8FA27211C48FCF7B3FC16211B48E2
:10444000FCF7AFFC1A211A48FCF7ABFC082119480D
:10445000FCF7A7FC09211848FCF7A3FC0721174823
:10446000FCF79FFC0A211648FCF79BFC132115481A
:10447000FCF797FC15211448FCF793FC1421134812
:10448000FCF78FFC10BD00BF440500209801002000
:10449000F169000878050020680500204805002023
:1044A00088050020DC04002004050020BC04002056
:1044B000E4040020F404002024050020AC040020C3
:1044C000CC040020340500205805002014050020ED
:1044D0004FF06043D3F8802ED1070AD5D3F8002ED1
:1044E000D20706D51A68002AFCD04FF06042C3B24A
:1044F0001370704710B50446FBF7BCFE013C14F87E
:10450000010F10B1FFF7E4FFF9E7BDE81040FBF73A
:10451000C1BE0000DFF830D0002103E00B4B5B5838
:10452000435004310A480B4B42189A42F6D30A4AC8
:1045300002E0002342F8043B084B9A42F9D301F011
:1045400043FBFBF757FE70470000022018D5020816
:10455000980100206404002068040020081E002048
:10456000FEE700000E4B02681A6082685A60C2685B
:104570009A600269DA6042691A6100229A6190F9D0
:104580001920013201D1082205E090F918200132EA
:104590000CBF04220C2202485A6100F006BB00BF87
:1045A00094050020F0B50E4685B0044639493046E2
:1045B000154601F095FB38490746284601F090FB67
:1045C0000146384601F06EFB344B2060984213D010
:1045D00003F5806398421BD0A3F55043984223D142
:1045E0002F4B1A6C42F400321A641B6C03F4003334
:1045F0000293029B012316E0294B5A6C42F01002F1
:104600005A645B6C03F010030193019B00230AE0E2
:10461000234B5A6C42F020025A645B6C03F0200377
:104620000393039B052363601A49304601F01CFB8A
:104630001949284601F018FB721C03D001213046AD
:1046400000F0EEF86B1C03D00121284600F0E8F8DA
:104650004FF41653A3600023E36023616361267661
:1046600065762046FFF77EFF22680E4B9A420FD1F7
:104670000D4B01221A600D4B04F11805206861688A
:104680001A4603C20834AC421346F7D120681060C2
:1046900005B0F0BDF4950208A09502080010014095
:1046A000003802400044004090050020D40500205E
:1046B0000368034A18681360C0F34010704700BFD6
:1046C0009405002010B5046801460846FFF7F0FF86
:1046D0000028FAD06068C0F3080010BD0368034AE0
:1046E00018681360C0F3C010704700BF9405002025
:1046F00038B5056804462046FFF7F0FF0028FAD0D9
:10470000C1F30801696038BD7FB507284DD8DFE8DF
:1047100000F004101C28344C4C40274B27481A6BDF
:1047200042F001021A631B6B03F001030093009B2C
:104730003FE0214B22481A6B42F002021A631B6BC6
:1047400003F002030193019B33E01B4B1D481A6BDE
:1047500042F004021A631B6B03F004030293029BF2
:1047600027E0154B18481A6B42F008021A631B6BBE
:1047700003F008030393039B1BE00F4B13481A6BD2
:1047800042F010021A631B6B03F010030493049BA6
:104790000FE0094B0E481A6B42F080021A631B6B44
:1047A00003F080030593059B03E00A4801F04CFAEF
:1047B000002007B05DF804FB003802400000024012
:1047C0000004024000080240000C024000100240B9
:1047D000001C02404895020830B5054687B0C0F37A
:1047E00003100C4605F00F05FFF78EFF012304F0C0
:1047F0000F0203FA05F5094B019553F82230029395
:10480000C4F302130393C4F3C314032301A9049351
:10481000059400F015FD07B030BD00BF6C9502088F
:1048200038B500F00F05C0F303100C46FFF76CFF1E
:104830006900C26803238B4022EA0303032CC36090
:10484000C36828BF00248C401C43C46038BD0000EE
:10485000054B186830B901221A60044B044A1A60EB
:1048600001F088B8704700BF2C060020F00500203A
:10487000000C004008B5044B1B680BB9FFF7E8FFBC
:10488000024B586A08BD00BF2C060020000C0040F7
:10489000034B1B685863DA6842F00202DA60704723
:1048A000F0050020034B1A68D36823F00203D3609D
:1048B000704700BFF0050020024B1B686FF002023A
:1048C0001A617047F005002010B50021044604F07D
:1048D0000F04FFF781FF0120A04010BD70B5044612
:1048E0004B1C0E4621700DD0C1F30310FFF70CFFD7
:1048F00005463046FFF7E8FF05F110031835606004
:10490000A360E56070BD90F90000FFF789BF012941
:1049100090F9000018BF0021FFF75EBF08B501F055
:1049200097F8BDE8084000F057BD00001FB5244BC4
:10493000026841791A6000230122019202930393D5
:104940000F2938D8DFE801F025080A0C0E101214E0
:1049500016181A1C1E20222400921BE0022318E0C5
:10496000032316E0042314E0052312E0062310E0DD
:1049700007230EE008230CE009230AE00A2308E0DD
:104980000B2306E00C2304E00D2302E00E2300E0DD
:104990000F23009369460A4800F070FE084800F0B3
:1049A000E3FD0A21064800F033FE20B9044800F078
:1049B00062FE80B200E0002005B05DF804FB00BF9D
:1049C0003006002037B50D4604461949284601F047
:1049D00087F917492060284601F09EF9C0F3C320EB
:1049E00060711349284601F03FF9124A2571136896
:1049F000E3B901251560104A1048516C41F48071EB
:104A00005164526C02F480720192019A22688360B0
:104A100080E80C0003618361436283620363C362C5
:104A2000C3600562C361436100F000FD03B030BDA7
:104A30004896020874060020003802403006002024
:104A400008B5FFF773FF07EE900AB8EE677ADFED5F
:104A5000037A67EE277A17EE900A08BD01088039BD
:104A60002DE9F84305682B69074623F44052C368D3
:104A7000B968C06913433A692B61EB6811437A69DD
:104A800023F416430A43024323F00C031343EB6061
:104A90006B6923F44072BB69B0F5004F43EA02032F
:104AA0006B613F4B36D19D4203D003F580639D423D
:104AB00016D100F0ADFB7E68192460437600B0FB90
:104AC000F6F600F0A5FB7A684FF064086043B6FB89
:104AD000F8F652003601B0FBF2F900F099FB15E050
:104AE00000F07EFB7E68192460437600B0FBF6F68A
:104AF00000F076FB7A684FF064086043B6FBF8F686
:104B000052003601B0FBF2F900F06AFB44437868CA
:104B1000400034E09D4202D0224B9D4216D100F06D
:104B200077FB7E6819246043B600B0FBF6F600F010
:104B30006FFB7A684FF064086043B6FBF8F69200AA
:104B40003601B0FBF2F900F063FB15E000F048FB22
:104B50007E6819246043B600B0FBF6F600F040FB17
:104B60007A684FF064086043B6FBF8F692003601AD
:104B7000B0FBF2F900F034FB444378688000B4FBEA
:104B8000F0F0B0FBF8F008FB109212013232B2FBE9
:104B9000F8F303F00F033343AB60BDE8F88300BFC5
:104BA0000010014000140140704710B5044630B3B6
:104BB00090F8393003F0FF021BB980F83820FFF776
:104BC000F3FF2268022384F83930D36823F40053BA
:104BD000D3602046FFF744FF23681A6922F490420D
:104BE0001A615A6922F02A025A61DA6842F40052C4
:104BF000DA6000200123E06384F8393010BD012021
:104C000010BD000003682DE9F341DD07044603D41D
:104C1000236898074CD49EE08B4B9A6802F00C02F4
:104C2000042A07D09A6802F00C02082A0BD15B68AC
:104C3000590208D5844B1B689A03E9D56368002B99
:104C4000E6D1012067E1814D7F4E00232B7000F0FB
:104C5000E5FB41F28838074633689B0306D500F030
:104C6000DDFBC01B4045F7D9032054E123792B70AD
:104C7000636873B100F0D2FB734D064641F288378A
:104C80002B689803C4D400F0C9FB801BB842F7D945
:104C9000EAE700F0C3FB6C4D064641F288372B680B
:104CA0009903B5D500F0BAFB801BB842F7D9DBE712
:104CB000654B9A6812F00C0F07D09A6802F00C024C
:104CC000082A18D15B685A0215D45F4A13689B07FB
:104CD00002D5E368012BB4D11168F82393FAA3F34A
:104CE000B3FA83F32069DBB200FA03F321F0F80191
:104CF0000B4313602FE0E268554BF2B101221A60BA
:104D000000F08CFB504D06462B684F489F0705D49A
:104D100000F084FB801B6428F6D9A5E70268F8231D
:104D200093FAA3F3B3FA83F32169DBB201FA03F335
:104D300022F0F802134303600DE01A6000F06EFBEE
:104D4000414D06462B68990705D500F067FB801B8F
:104D50006428F7D988E723681A0703D423685B0718
:104D60004ED51FE062693B4B72B101221A6000F020
:104D700055FB354D06466B6F9F07EFD400F04EFB99
:104D8000801B6428F7D96FE71A6000F047FB2E4DAF
:104D900006466B6F9807E1D500F040FB801B642846
:104DA000F7D961E7284B2C4D1A6C42F080521A64F7
:104DB0001B6C03F080530193019B2B6843F48073B9
:104DC0002B6000F02BFB06462B68D9051BD5234D25
:104DD0001D4E00232B7000F021FB41F2883807465E
:104DE000336F9A0715D4237A2B70A368EBB100F0C8
:104DF00015FB154D064641F288372B6F9B070ED5E4
:104E0000A2696ABB6CE000F009FB801B6428DBD957
:104E10002AE700F003FBC01B4045E1D924E700F07E
:104E2000FDFA801BB842E8D91EE700F0F7FA064DFC
:104E3000064641F288372B6F9807E1D500F0EEFA6D
:104E4000801BB842F7D90FE7003802400238024011
:104E500000004742800E4742007000407038024018
:104E60002E4DAB6803F00C03082B3FF4EAAE2C4E3A
:104E70000023022A336042D100F0D0FA80462B682A
:104E8000264F99012ED447F6C07292FAA2F2B2FAD6
:104E900082F24FF4403393FAA3F3B3FA83F54FF061
:104EA000706191FAA1F1B1FA81F0E169236A0B43D3
:104EB000616AD2B291401943A36A5B085A1EEBB2F1
:104EC00002FA03F3E26A0B43C1B28A4013437B60E8
:104ED0000123336000F0A2FA04463B689A0108D52A
:104EE000002018E000F09AFAC8EB00006428C6D948
:104EF000BAE600F093FA001B6428EED9B4E600F09D
:104F00008DFA04462B689B01EAD500F087FA001B56
:104F10006428F7D9A8E602B0BDE8F0810038024065
:104F2000600047427B4B1A6802F00F028A422DE96B
:104F3000F04105460E4674D2CAB21A701B6803F0DF
:104F40000F03994202D00120BDE8F08101688F076C
:104F500006D57148836823F0F002AB681343836081
:104F6000CE070BD429684C0740F1C3806A48836898
:104F700023F4E052EB6813438360BAE06B68664A3F
:104F8000012B03D1126812F4003F08E0991E012999
:104F9000126802D812F0007F01E012F0020FD2D0A6
:104FA0005D4CA26822F003021343A36000F036FABE
:104FB0006B68012B06460ED141F28837A36803F0D7
:104FC0000C03042BCED000F029FA801BB842F5D98F
:104FD0000320BDE8F081022B0CD141F28837A36891
:104FE00003F00C03082BBDD000F018FA801BB84268
:104FF000F5D9EDE7032B08D141F28835A36800F01D
:105000000DFA801BA842F9D9E2E741F28837A3687C
:1050100013F00C0FA6D000F001FA801BB842F6D9AD
:10502000D6E70168880706D53B48836823F0F0027D
:10503000AB6813438360CA0709D4364BF2B21A70C7
:105040001B6803F00F039E427FF47DAF8AE76B6815
:10505000314A012B03D1126812F4003F08E0991E77
:105060000129126802D812F0007F01E012F0020F4D
:105070003FF469AF284CA26822F003021343A360F7
:1050800000F0CCF96B68012B07460CD141F288384F
:10509000A36803F00C03042BCFD000F0BFF9C01BB2
:1050A0004045F5D994E7022B0CD141F28838A3682A
:1050B00003F00C03082BC0D000F0B0F9C01B404532
:1050C000F5D985E7032B08D141F28835A36800F0B4
:1050D000A5F9C01BA842F9D97AE741F28838A3683C
:1050E00013F00C0FA9D000F099F9C01B4045F6D978
:1050F0006EE70B0707D5084A2969936823F46043D4
:1051000043EAC10393600F2000F034FC0020BDE8A7
:10511000F08100BF003C0240003802401F498B680C
:1051200003F00C03042B34D0082B34D148684B68AF
:1051300000F03F0013F4800F47F6C0724B6892FAFC
:10514000A2F2B2FA82F247F6C071D2B201EA0301CA
:1051500015BF21FA02F3D140114A124A14BFB2FB23
:10516000F0F0B2FBF0F00D4A0CBF00FB01F343433B
:105170004FF44031506891FAA1F1B1FA81F100F495
:105180004032C8B222FA00F001304000B3FBF0F028
:105190007047034870470348704700BF003802401B
:1051A00000127A000024F40008B5FFF7B7FF094B9E
:1051B0009A68F02393FAA3F3B3FA83F302F0F002B0
:1051C000DBB222FA03F3044AD35CD840034B1860E5
:1051D00008BD00BF00380240149702089C0100205F
:1051E00008B5FFF7E1FF084B9A684FF4E05393FAD4
:1051F000A3F3B3FA83F302F4E052DBB222FA03F32F
:10520000024AD35CD84008BD003802401497020817
:1052100008B5FFF7C9FF084B9A684FF4604393FA4B
:10522000A3F3B3FA83F302F46042DBB222FA03F38E
:10523000024AD35CD84008BD0038024014970208E7
:105240002DE9F04F614E0B68DFF888C185B04FF053
:1052500001080193B6460023019A08FA03F434EAE0
:10526000020240F0AB804A6822F01009B9F1020F47
:1052700014D14FEAD30A00EB8A0A03F0070BDAF8DD
:1052800020704FEA8B0B0F2505FA0BF527EA050571
:105290000F6907FA0BF72F43CAF820704FEA430A49
:1052A0000325076805FA0AF5ED4302F0030B2F40CA
:1052B0000BFA0AFB09F1FF394BEA0707B9F1010FB5
:1052C000076012D8876805EA0709CF6807FA0AF766
:1052D00047EA090787604768C2F3001927EA04070D
:1052E00009FA03F949EA07074760C7683D408F6834
:1052F00007FA0AF73D43C560D5005FD5DCF8445096
:1053000045F48045CCF84450DCF8445023F00309C0
:1053100009F1804905F4804509F59C39039503F0AE
:10532000030A039DD9F808504FEA8A0A0F2707FAA3
:105330000AF725EA0705264FB84212D007F580671D
:10534000B84210D007F58067B8420ED007F58067E5
:10535000B8420CD007F58067B84214BF0527042770
:1053600006E0002704E0012702E0022700E003270F
:1053700007FA0AFA4AEA0505C9F808503568E7430A
:1053800012F4803F0CBF3D402543CEF80050DEF8BC
:10539000045012F4003F0CBF3D4025437560B568D2
:1053A00012F4801F0CBF3D402543CEF80850DEF8B4
:1053B0000C50920254BF3D402543F5600133102B41
:1053C0007FF44AAF05B0BDE8F08F00BF003C01405C
:1053D000000002400038024008B50B4B1A6842F446
:1053E00000721A601A6842F480621A601A6842F405
:1053F00080721A60032000F065FA0F2000F0BAFAFC
:1054000000F012F8002008BD003C0240024A136878
:1054100001331360704700BF78060020014B186805
:10542000704700BF780600207047704710B50446EB
:10543000002800F0938090F83D3003F0FF021BB984
:1054400080F83C20FFF7F1FF022384F83D30444B05
:105450005A6822F440325A60596862680A435A60B6
:10546000236821695A68E06A22F480725A605A6897
:1054700042EA01225A605A6822F040725A60596822
:10548000A2680A435A609A6822F400629A60996896
:10549000E2680A439A60334A90420ED0996821F03C
:1054A000706199609A6802439A609A6822F040524B
:1054B0009A609968226B0A4306E09A6822F070624B
:1054C0009A609A6822F040529A609A68A16922F024
:1054D00002029A609A6842EA41029A60626AAAB13C
:1054E0005A6842F400625A605A6822F460425A6074
:1054F0004FF4604292FAA2F2B2FA82F2A16A5868BC
:105500000139D2B201FA02F2024302E05A6822F4EF
:1055100000625A60DA6A22F47002DA62226AD96A98
:10552000013A41EA0252DA629A68E16922F40072B1
:105530009A609A6842EA41229A609A68616922F404
:1055400080629A609A6842EA81229A600020012370
:10555000206484F83C0084F83D3010BD012010BD6B
:10556000002301400100000F82B00023019390F856
:105570003C30012B3ED0012380F83C3090F83D3088
:105580000268222B0CBF3223122380F83D3093682F
:10559000DB0708D51A49002380F83C30486810F032
:1055A0001F0012D01AE09368164943F0010393607C
:1055B000154B1B68B3FBF1F303EB43030193019B12
:1055C000002BE7D0019B013BF8E7936813F04053B1
:1055D00013D1916841F0804191600DE00B498A42FE
:1055E0000AD1906810F0405006D1936843F0804390
:1055F000936002E0022000E0184602B0704700BF4E
:105600000023014040420F009C0100200020014087
:1056100003689A6870B5560504460D460AD59B681E
:10562000D80507D5042384F83D30002384F83C30A6
:10563000012070BDFFF7F2FE0646226813689B0743
:105640000FD4691CFAD035B90320002384F83D003B
:1056500084F83C3070BDFFF7E1FE801B8542ECD240
:10566000F2E794F83D30252B0CBF3523152384F841
:105670003D30002070BD0368D86C7047F7B500233B
:10568000019390F83C30012B69D00D6804688F6855
:105690000123092D80F83C30AEB210D906EB46024A
:1056A000D4F80CE0A2F11E0307229A402EEA02026F
:1056B000E260E26807FA03F31343E3600EE0226955
:1056C00005EB45034FF0070E0EFA03FE22EA0E0229
:1056D0002261226907FA03F3134323614B68062B07
:1056E0004FEA83020DD81344676B591F1F238B4069
:1056F00027EA03036363626B06FA01F111436163F6
:105700001DE00C2B0ED81344216BA3F123021F23A1
:10571000934021EA03032363236B06FA02F21A4340
:1057200022630CE01344E76A413B1F229A4027EAB8
:105730000202E262E16A06FA03F20A43E262164BEF
:105740009C4204D0002380F83C30184622E0122D01
:1057500007D1124A536843F48003536001E00220EA
:1057600018E0A5F11003012BECD80C4A5368102D5A
:1057700043F400035360E5D1094B0A4A1B68B3FBAD
:10578000F2F20A2353430193019B002BDAD0019BD1
:10579000013BF8E703B0F0BD0020014000230140C9
:1057A0009C01002040420F0070470000224A03681D
:1057B00090420ED0B0F1804F0BD0A2F57C429042C7
:1057C00007D002F58062904203D002F580629042D9
:1057D00014D14A6823F070031343174A904225D02E
:1057E000B0F1804F22D0154A90421FD002F580625E
:1057F00090421BD002F58062904217D0104A90422E
:1058000014D002F58062904210D002F5806290427E
:105810000CD003608B68C3620B688362064B9842AE
:1058200004BF0B690363012343617047CA6823F413
:1058300040731343EDE700BF000001400004004047
:105840000040014010B50446A0B190F8393003F093
:10585000FF021BB980F83820FFF7A6FF022384F867
:1058600039302068211DFFF7A1FF012384F839306A
:10587000002010BD012010BD10B50123046A8B402B
:1058800024EA03030362036A8A4042EA03010162D5
:1058900010BD000010B5044601220068FFF7ECFFC0
:1058A0002368064A934202BF5A6C42F400425A648B
:1058B0001A6842F001021A60002010BD0000014089
:1058C000FFF7E8BF074AD36823F4E0631B041B0C0F
:1058D00043F0BF63000243F4003300F4E06003438D
:1058E000D360704700ED00E030B50C4CA268A468AE
:1058F000B4F1006F13460CD1131F094C094A53F839
:10590000045F42F8045FA242F9D1044A4FF0005309
:105910009360103043F8201030BD00BF00ED00E070
:1059200094010020FCFFFF1F38B5104B1A68D268A5
:1059300012F0020F1C4601D000F080F92368DA68EB
:10594000520711D56FF00402094D1A615C6A2B6889
:10595000E31AB3F57A7F07D3FFF758FD034B2C60AA
:105960001B6804F57A729A6338BD00BF8006002078
:105970007C060020234B37B51A6C234C42F00802FA
:105980001A641A6C02F008020192019A1A6A42F033
:1059900008021A621A6A22F008021A6200F058F825
:1059A0001A4B23604FF0FF33E360194B194A1B6811
:1059B000B3FBF2F30025013B204663602561A5603F
:1059C0006561FFF73FFF14493220FFF78DFF134B4E
:1059D0004FF480225A6029462046FFF771FF0421C8
:1059E0002046FFF76DFF23680D495A6A0A6002F5E9
:1059F0007A729A63DA68284642F00402DA6003B0E9
:105A000030BD00BF0038024080060020000C00407E
:105A10009C01002040420F002959000800E100E0ED
:105A20007C0600207FB50F230193022302934FF4DD
:105A300080520023032101A8039304920593FFF7EA
:105A400071FAB0FA80F0400907B05DF804FB00007D
:105A5000174A1849936803F00C03042B03D0082B52
:105A600003D0154B18E0154B16E05068536810F43E
:105A7000800F03F03F03506814BF104A0E4AB2FB78
:105A8000F3F30B4A5268C2F30142C0F388100132AB
:105A900043435200B3FBF2F30B60054B084A9B688B
:105AA000C3F30313D25C0B68D3400B60704700BF95
:105AB000003802409C0100200024F40000127A000B
:105AC000249702081A4B00B51A6C42F080521A64EF
:105AD0001B6C184A8FB003F080530093009B13682F
