:020000040800F2
:10000000000002205D320008A9320008A932000871
:10001000A9320008A9320008A93200080000000037
:10002000000000000000000000000000A9320008ED
:10003000A932000800000000A9320008A932000817
:10004000A9320008A9320008A9320008A932000824
:10005000A9320008A9320008A9320008A932000814
:10006000A9320008A9320008A9320008A932000804
:10007000A9320008A9320008A9320008A9320008F4
:10008000A9320008A9320008A932000800000000C7
:10009000000000000000000000000000A93200087D
:1000A000A9320008A9320008A9320008A9320008C4
:1000B000A9320008A9320008A9320008A9320008B4
:1000C000A9320008A9320008A9320008A9320008A4
:1000D000A9320008A9320008A93200080000000077
:1000E000A9320008A9320008A93200080000000067
:1000F000000000000000000000000000A93200081D
:1001000000000000A9320008A9320008A932000846
:1001100000000000000000000000000000000000DF
:10012000A9320008A9320008A9320008A932000843
:10013000A9320008000000000000000000000000DC
:10014000000000000000000000000000A9320008CC
:10015000A9320008A9320008A9320008A932000813
:10016000A9320008A93200080000000000000000C9
:10017000000000000000000000000000000000007F
:1001800000000000A932000800000000000000008C
:10019000A9320008A932000810B5054C237833B9FC
:1001A000044B13B10448AFF300800123237010BD4A
:1001B00068040020000000002CB80208084B10B5AD
:1001C0001BB108490848AFF300800848036803B929
:1001D00010BD074B002BFBD0BDE81040184700BFF7
:1001E000000000006C0400202CB80208600400200D
:1001F00000000000154B002B08BF134B9D46A3F5D4
:10020000803A00218B460F461348144A121A1EF0FA
:10021000C4F90F4B002B00D098470E4B002B00D099
:1002200098470020002104000D000D48002802D04E
:100230000C48AFF300801DF085FF2000290004F07A
:100240003DFD1DF0E9FB00BF00000800000002209A
:10025000000000000000000068040020D81D0020FD
:10026000000000000000000008B503F0A7F900211D
:1002700008BD0000044B01221A60044B5A6A044B6B
:100280001A6000225A60704784040020000C00406D
:1002900088040020034B1A68034B5A62034B002268
:1002A0001A60704788040020000C0040840400207D
:1002B0000A6802604A6842608A688260CA68C260EE
:1002C0000A690261704702680B689A4211D142685C
:1002D0004B689A420DD182688B689A4209D1C268F4
:1002E000CB689A4205D1036908691B1A58425841E4
:1002F00070470020704708B5FFF7E5FF80F0010068
:10030000C0B208BD0A6802608A6882604A684260BA
:10031000CA68C2600A690261704702680B689A4243
:1003200016DB17D142684B689A4211DB12D1826802
:100330008B689A420CDB0DD1C268CB689A4207DB0E
:1003400008D1036908698342ACBF002001207047CF
:10035000012070470020704770B50C689C420ADB92
:1003600094FBF3F415682C4414600C6894FBF3F2CE
:1003700003FB124313E0002C12DA94FBF3F686EA37
:10038000E675A5EBE67503FB1644002C0CBF2C4666
:100390006C1C15682D1B15600A6804FB03230B6099
:1003A00070BD70B5044600F10C052A4604F108063C
:1003B0004FF47A7300F11001FFF7CEFF3246294661
:1003C0004FF47A73251D2046FFF7C6FF2A463146B3
:1003D0003C232046FFF7C0FF3C2322462946204607
:1003E000FFF7BAFF204670BD10B547F6FF730360F4
:1003F0003B234360836040F2E7330446C3600361FC
:10040000FFF7CFFF204610BD2DE9F0438BB00E461D
:100410004FF03B0840F2E737044647F6FF7968465D
:100420001546CDF80090CDF80480CDF808800397EC
:100430000497FFF7B6FF69463046FFF744FF78B9E7
:1004400005A8CDF81490CDF81880CDF81C80089739
:100450000997FFF7A6FF05A92846FFF734FF68B103
:1004600047F6FF7323603B236360A36040F2E733EA
:10047000E36023612046FFF794FF1AE06B68706821
:10048000B168F268376936681844AB680690194459
:10049000EB6807911A442B692D6808923B44354458
:1004A00005A805950993FFF77CFF05A92046FFF7EE
:1004B000FFFE20460BB0BDE8F0832DE9F0438BB082
:1004C0000E464FF03B0840F2E737044647F6FF7907
:1004D00068461546CDF80090CDF80480CDF8088028
:1004E00003970497FFF75DFF69463046FFF7EBFE81
:1004F00078B905A8CDF81490CDF81880CDF81C80F7
:1005000008970997FFF74DFF05A92846FFF7DBFE7F
:1005100068B147F6FF7323603B236360A36040F23A
:10052000E733E36023612046FFF73BFF1AE06B6887
:100530007068A968EA682F692D68C01AB3680690C8
:10054000591AF36807919A1A336936680892DB1BC7
:10055000751B05A805950993FFF723FF05A92046FC
:10056000FFF7A6FE20460BB0BDE8F083D0B51646D7
:100570001F4604461C4A00233046394626F0C0FA7E
:1005800060602046FFF70DFF6268174B5343F61A71
:1005900067EBE377154A00233046394626F0B0FA78
:1005A000A0602046FFF7FDFEA268104B5343F61AE9
:1005B00067EBE3774FF47A7200233046394626F032
:1005C0009FFAE0602046FFF7ECFEE2684FF47A7392
:1005D0005343F61A26612046FFF7E3FE2046FFF755
:1005E000E0FE2046D0BD00BF0087930340420F00CD
:1005F00030B59FB047F6FF7305933B230D46069336
:100600000793044640F2E73305A808930993FFF7E0
:10061000C8FE05A92846FFF756FE20B1184905A8CF
:100620001FF00DFC0BE02B690293EB680193AB68A4
:10063000009395E80C00134905A81FF061FB04F135
:100640000803236005A820F037F905AB0F2803EB5A
:100650000005049007D9002204A9204610F09EFE50
:10066000049B2060A3602A4605A9206810F025FF9E
:10067000049B2268636000212046D1541FB030BD26
:100680005C6E0208606E0208D0B50446FFF7ECFD10
:10069000084BD3E900670023821B23606360A360DB
:1006A000E3602361204661EB0703FFF75FFF20460D
:1006B000D0BD00BF9004002008B5FFF7D5FD024B68
:1006C000C3E9000108BD00BF9004002004480023D6
:1006D000036043608360C3600361FFF762BE00BFD5
:1006E0009804002070477047704770477047704704
:1006F0007047704700207047002070470020704707
:10070000704770477047704703685B68184710B5BB
:10071000044604F06CFB204610BD08B508B1FFF795
:10072000F6FF08BD10B5044604F061FB204610BD7D
:1007300008B508B1FFF7F6FF08BD10B5044604F090
:1007400056FB204610BD08B508B1FFF7F6FF08BDFF
:1007500010B5044604F04BFB204610BD10B504460E
:1007600004F045FB204610BD10B5044604F03FFBE5
:10077000204610BD10B5044604F039FB204610BDDC
:1007800010B5044604F033FB204610BD04F02FBB27
:1007900004F02DBB04F02BBB04F029BB04F027BBF5
:1007A000002380F8B03000F1EC013030FFF7AABD33
:1007B00010B504460846034904F0F2FD08B104F1FF
:1007C0000C0010BD8872020810B5044608460349A3
:1007D00004F0E6FD08B104F10C0010BD88720208B7
:1007E00010B504460846034904F0DAFD08B104F1E7
:1007F0000C0010BD8872020810B504460846034973
:1008000004F0CEFD08B104F10C0010BD887202089E
:1008100010B504460846034904F0C2FD08B104F1CE
:100820000C0010BD88720208014802F007BD00BF2D
:10083000BD76020810B530310446FFF739FD204679
:1008400010BD000010B509480C4602F09DFF07EEF0
:10085000100AF6EE007AB4EEE77AF1EE10FACCBFA9
:10086000012300232360012010BD00BF5805002094
:1008700000F1080373B5044603600D4681B10846D4
:1008800020F01AF80F2805EB000601900BD9002282
:1008900001A9204610F082FD019B2060A36002E0C8
:1008A000074805F063FD32462946206810F000FE37
:1008B000019B2268636000212046D15402B070BDC4
:1008C000C376020808B548B1B0F1805F01D305F0E6
:1008D00047FD0001BDE8084004F04CBD08BD08B16B
:1008E00004F085BA704708B548B1B0F1005F01D394
:1008F00005F036FDC000BDE8084004F03BBD08BD72
:10090000C3680C305B681847C3680C305B681847D5
:10091000C3680C305B681847054B9A685B681268BF
:100920001A420CBF012300230B600120704700BF57
:1009300048050020036810B504469B689847A368E3
:10094000013BA3602BB923682046DB68BDE810405B
:10095000184710BD09680B4A0B4B39B9D16852686A
:1009600012040A60DA685B681B0407E00129D16899
:10097000526808BF12040A60DA685B6813600120DD
:10098000704700BFCC040020DC04002070B500F1EB
:10099000100314460025A3F11006B14219D0ACB1E2
:1009A00053F8106C2660656053F80C6C43F80C5CCF
:1009B000666053F8086C43F8105CE560A66053F875
:1009C000046C43F8045CE66043F8085C10341033B0
:1009D000E1E7081A104470BD10B5044B044640F816
:1009E000183B10F0F7FC204610BD00BF74750208DC
:1009F00010B50446FFF7F0FF204604F0F8F9204652
:100A000010BD000010B5044B044640F8183B10F030
:100A1000E1FC204610BD00BF7475020810B5044605
:100A2000FFF7F0FF204604F0E2F9204610BD000079
:100A300010B5044B044640F8183B10F0CBFC2046A0
:100A400010BD00BF7475020810B50446FFF7F0FF33
:100A5000204604F0CCF9204610BD38B510220446DB
:100A60000D4600211DF099FD2046294604F040F86E
:100A7000204638BD38B5044600250649FFF718FC66
:100A80006561A561044904F11C00FFF7F1FE65638F
:100A9000204638BD980400200A77020870B5044645
:100AA00015460E46FFF7F0FD00236361A361314652
:100AB00004F11C0011F07AF82B686363204670BDC6
:100AC00010B592B0044601466846FFF791FD214AF1
:100AD0000021684610F04CFF014606A810F06DFD9D
:100AE0001D4906A810F090FF01460CA810F065FD06
:100AF0000C9802F0A3FB0CA810F06CFC06A810F0F8
:100B000069FC684610F066FC216A0EAB0C930CA8D9
:100B1000002307310D938DF8383010F08EFD072239
:100B20000E490CA810F060FF04F11C010CA810F095
:100B300051FF0C9802F082FB0CA810F04BFC626B8A
:100B400007490CA81FF0DCF80CA802F077FB12B0E4
:100B500010BD00BFED76020809770208F57602089D
:100B6000FD760208144BDA685B681B041360134BB4
:100B7000DA685B681B041360114BDA685B681B045E
:100B80001360104BDA685B681B0413600E4BDA6865
:100B90005B681B0413600D4BDA685B681B04136011
:100BA0000B4BDA685B681B0413600A4BDA685B68FE
:100BB0001B041360704700BFCC040020DC0400203D
:100BC0000C0500201C050020AC040020EC040020D3
:100BD000BC040020FC04002010B50446006828B1C5
:100BE0004368013B43600BB9FFF7A4FE204610BDEC
:100BF00010B504460C30FFF7EFFF201DFFF7ECFFA8
:100C0000204610BD10B504460C30FFF7E5FF201D4F
:100C1000FFF7E2FF204610BD0B68036013B15A686E
:100C200001325A60704710B551F8043B044640F851
:100C3000043BFFF7F1FF204610BD38B504460D46D2
:100C4000FFF736FB05F1140104F11400FFF7EBFF89
:100C500005F11C0104F11C0010F0A8FF6B6B63632D
:100C6000204638BD70B505460E461446AE4207D044
:100C70001CB129462046FFF7E0FF38353834F5E748
:100C8000204670BD70B50E4614460546B54207D0E5
:100C90001CB129462046FFF7D0FF38343835F5E738
:100CA000204670BD38B551F8043B0546144640F85F
:100CB000043BFFF7B1FF214605F10C0051F8043B5E
:100CC000AB60FFF7A9FF284638BD70B590E860001B
:100CD0000446AE4204D02846FFF794FF1035F8E7EB
:100CE0002068FFF7FCFD204670BD38B5C46884B1AC
:100CF00004F1100504F11C00FFF7E7FF2846FFF799
:100D0000E4FF6068FFF7EBFD2046BDE8384004F0E3
:100D10006EB838BD10B504461C3010F05BFB04F112
:100D20001800FFF759FF204610BD000010B5044B16
:100D3000044640F8043BFFF757FB204610BD00BFB8
:100D40000875020838B5044608680D4668B10023E6
:100D5000084A094903F0E4FF38B12346291D43F846
:100D6000040B1846FFF758FF02E00023236063607E
:100D7000204638BDE46F0208146F02082DE9F043E5
:100D80000C468BB01146064604F114052046174662
:100D9000FFF7B8FA04F158012846FFF7B3FA616B80
:100DA00069B10B6868469B689847214605A86A4662
:100DB000FFF72AFB05A92846FFF7A4FA1AE0D4F8A2
:100DC0002C80A46AA04515D0D4F80090394605A817
:100DD000FFF76EFA4946684605AAFFF7CFFF294696
:100DE0006846FFF79AFA18B169462846FFF78AFA6B
:100DF0000834E7E729463046FFF75AFA30460BB089
:100E0000BDE8F0832DE9F0414B680E689E1B00237E
:100E10000446036043608360F0100F46FFF763FDF4
:100E2000064420606060A66097E840010546B04532
:100E300007D01DB131462846FFF7F5FE08350836C4
:100E4000F5E765602046BDE8F081000038B504464E
:100E500008680D4668B10023084A094903F060FF9D
:100E600038B12346291D43F8040B1846FFF7D4FE7A
:100E700002E0002323606360204638BD506F020803
:100E8000146F020838B505460C68006884420BD020
:100E900014B163680133636028B14368013B436068
:100EA0000BB9FFF747FD2C60284638BD2DE9F04F00
:100EB00097B00025D0F814A00469029580460E462C
:100EC000039504950595544500F0898023680B939C
:100ED00023B1211D0CA8FFF79FFE00E00C930B9B94
:100EE000049904930DF15809059B109149F8143D9C
:100EF0000C9A059248460C950B95FFF76DFE0CA8D1
:100F0000FFF76AFED8F8107006A8E71BFFF7BCFBD6
:100F10003F111423D8F804105F4301EB070B049929
:100F20000BA83031FFF7C4F9594610A80BAAFFF7F8
:100F30006BFA10A906A8FFF7F0F900284DD1049824
:100F4000036801A9DB6898478346002845D0A36859
:100F50000B932BB104F10C010CA8FFF75DFE00E030
:100F60000C9300230C9A0B990C930B93029B1093F8
:100F70004846039B029103921193FFF72DFE0CA8A4
:100F8000FFF72AFED8F8043010A81F44FFF77CFBB7
:100F900010A93846FFF7B6F910A8FFF775FB10A99E
:100FA0003046FFF7AFF9029B736103A906F1180001
:100FB000FFF768FF049910A8183110F0F7FD10A989
:100FC00006F11C0010F07EFA10A810F003FA019B45
:100FD00073633046FFF774FD03E0103473E74FF09E
:100FE000000B05A8FFF7F8FD03A8FFF7F5FD58462D
:100FF00017B0BDE8F08F38B504460D46FFF713FE75
:1010000005F1080104F10800FFF70DFE204638BD88
:101010002DE9F04104460E46FFF7F4FE06F10C01FF
:1010200004F10C00FFF7EEFEF369B769DF1B002344
:101030003811A361E3612362FFF744FC0744A06118
:10104000E0612762D6F81C80B7690546B84507D02D
:101050001DB139462846FFF7CEFF10351037F5E7AA
:10106000E56106F1240104F12400FFF7CBFE2046E0
:10107000BDE8F08138B509C81B1A1B116FF0704428
:10108000E51A8D4202D2104605F073F98B422CBF4F
:10109000D8185818834203D8A04228BF204638BD2C
:1010A000204638BD70B506460C466CB1E168304646
:1010B000FFF7F8FFA56804F11800FFF78DFD204643
:1010C00003F095FE2C46F0E770BD08B542684B680A
:1010D0009A4208D14AB1096800681DF029FAB0FAAD
:1010E00080F0400908BD002008BD012008BD0000B7
:1010F00010B549688EB0044638396846FFF79DFD43
:10110000184904F13000FFF7FDF8002384F8B030EF
:1011100004F1500107A8FFF7D8FF30B10D9B591E0D
:101120004B424B4184F800310BE004F1680107A801
:10113000FFF7CBFF28B10D9B5A1E5342534184F851
:10114000013194F800313BB194F801310BB1012326
:1011500000E0022384F8B0306846FFF7DBFD0EB0F4
:1011600010BD00BF9804002038B504460D46AC42BF
:1011700004D0201DFFF730FD0834F8E738BD10B566
:10118000044603C8FFF7F0FF2068FFF7A8FB2046DE
:1011900010BDF8B590E80C009B1ADB1014BF1A467E
:1011A00001229A1804460E466FF0604504D2AA4206
:1011B00028BF2A46174600E02F463846FFF793FB24
:1011C000054694E80900181A281802D03146FFF79E
:1011D0002AFD94E803002B4600F108064FF0000EAC
:1011E000A6F1080291420ED053B156F8082C83E8BC
:1011F000044056F8042C46F804EC5A6046F808EC13
:1012000008330836ECE70E1A08362E44FFF7ACFF19
:101210002068FFF764FB84E8600005EBC705A56064
:10122000F8BD43688268934210B5044607D013B1F5
:101230001846FFF7F8FC63680833636010BDFFF7DA
:10124000A8FF10BD38B504460D46AC4204D0204678
:10125000FFF7CEFC1034F8E738BD10B50446243053
:10126000FFF78DFFE169A069FFF7ECFFA069FFF7C9
:1012700036FB04F10C00FFF782FF2046FFF77FFFEB
:10128000204610BD10B5C46854B12046054B40F847
:10129000183BFFF7E2FF2046BDE8104003F0A7BD72
:1012A00010BD00BF5C750208F8B5826843689342C0
:1012B00004460E4607D013B11846FFF79CFE63683C
:1012C00010336360F8BD124A0121FFF7D3FE0746D1
:1012D000FFF7F8FA054694E80900181A281802D012
:1012E0003146FFF788FE2A4694E80300FFF74EFBDD
:1012F000064694E80300FFF7A5FF2068FFF7EFFA22
:101300001036256005EB07156660A560F8BD00BFC7
:101310001E7702084368826893422DE9F041054632
:101320000C4613D073B10A681A6000225A604968EB
:1013300062605960A1682260DA609960E168E260E9
:10134000D960A26010336B60BDE8F081194A0121B9
:10135000FFF790FE8046FFF7B5FA064695E80300D2
:101360000B1AF21812D02768F75000235360D4F8F4
:1013700004E0A7686360C2F804E02360D360D4F897
:101380000CE09760E360C2F80CE0A3603246FFF720
:10139000FDFA044695E80300FFF754FF2868FFF7BD
:1013A0009EFA10342E6006EB08166C60AE60BDE845
:1013B000F08100BF1E77020870B50E461446051D69
:1013C0002B1F9E4210D064B1204655F8043C40F8D3
:1013D000043B2946FFF720FC291D04F10800FFF714
:1013E00022FC10341035EBE7204670BD70B54B6819
:1013F0000D685D1B00230446036043608360281171
:101400000E46FFF75FFA054420606060A560024663
:1014100096E80300FFF7D0FF6060204670BD8B6840
:1014200070B5164604460D1D01225BB130681A697D
:10143000904234BF9868D8681D4634BF012200220C
:101440000346F2E732B1CA6895420AD0284604F052
:1014500081F800E02846336802699A424FF00003A1
:1014600002D284E8280001E084E80900204670BD2B
:1014700038B51C460546031D41B99A4206D010698D
:10148000216981422CBF0020012000E0012021467B
:1014900004F062F86B6901336B61204638BD2DE9B9
:1014A000F74305461C2017461E46894603F062FF97
:1014B00031463B68036100F1180851F8043B436171
:1014C00004464046FFF7A8FB04F11002494668466F
:1014D000FFF7A5FF019E009F4EB1234632463946D5
:1014E0004846FFF7C5FF012328602B7107E04046FF
:1014F000FFF772FB204603F07AFC2F602E7128461E
:1015000003B0BDE8F0832DE9F7431C4605461C20D7
:10151000894603F02FFF236806461F6807612B1DCD
:1015200000F1100899454FF000007061B0614C4621
:1015300008D16B69002B4BD02A691369BB4247D293
:10154000044636E0D9F81030BB4217D9EB684B455A
:10155000484611D003F0FEFF0369BB4205D2C368C1
:10156000002B0CBF0024484606E068464246294648
:10157000FFF755FF009C0198024619E01FD22B6926
:101580004B4513D0484603F0D2FF0369BB4206D94E
:10159000D9F80C30002B0CBF0020044606E068464A
:1015A00042462946FFF73BFF9DE8110022460446CC
:1015B0002AB1334621462846FFF75AFF10E006F1CC
:1015C0001800FFF709FB304603F011FC204607E046
:1015D000424629466846FFF722FF009C019AE7E74A
:1015E00003B0BDE8F08300007FB5041D83680A46A0
:1015F00021464BB115681E69AE4236BFDD689D6855
:101600000B4619462B46F4E78C4203D014680B694D
:101610009C4208D204AB43F8042D02AA0092044A6B
:10162000FFF771FF014601F1140004B070BD00BF67
:10163000BC76020838B5046843681B1BDC100A4BF3
:1016400063430A4CE51A8D4202D2104604F091FE23
:101650008B422CBFD8185818834203D8A04228BF09
:10166000204638BD204638BDB76DDBB6244992040C
:1016700038B504460D46AC4204D02046FFF74AFB7D
:101680003834F8E738BD10B5044603C8FFF7F0FF5B
:101690002068FFF724F9204610BD00000E4B70B5FE
:1016A0000446C360C030FFF735FB04F15C0604F16B
:1016B000BC05AE4204D0183D28460FF08BFEF8E77B
:1016C00004F15000FFF7DFFF044BE36004F1240056
:1016D000BDE870400FF07EBE387502081475020830
:1016E000006810B103681B69184770472DE9F04383
:1016F00089B0002507464FF488700095019503F0E6
:1017000039FE0123064643608360304B46F80C3BAC
:1017100004462F4902A8FFF7ABF83046FFF706FB57
:1017200004F1F8082B4B2C49E36004F12400FFF787
:101730009FF82A4BE360414604F13C00FEF7B8FDF8
:1017400004F15C0925656565A56504F1640304F190
:10175000C40243F8083C43F8045C03F8185B9A425F
:101760004FF00006F5D104F1C00084F8BC60FFF72B
:1017700081F904F110014046FEF79AFD184984F8FA
:101780000C61484684F80D6110F0D5F8154904F154
:10179000740010F0D0F808AD134904F18C0010F07B
:1017A000CAF802A80FF016FE45F81C4D0F4928464E
:1017B000FFF796FF019B38607B60284601960096F4
:1017C000FFF70AFA384609B0BDE8F0833876020818
:1017D0003A77020814750208407702083875020843
:1017E0004F77020847770208587702088872020884
:1017F000F0B58FB00024074650200194029403F006
:10180000B9FD01230646436083601B4B46F80C3B41
:1018100005461A4908A8FFF72BF8C82303A8069322
:101820000394049405940794FEF7BBFD3046FFF73C
:101830007DFA134BEB6008A905F1240010F0B6F90E
:101840000EAE03A905F13C00FEF732FD0D4BEB6037
:1018500008A80FF0BFFD46F8305D0B493046FFF792
:101860003FFF029B38607B60304602940194FFF793
:10187000B3F938460FB0F0BD547602084F7702082E
:10188000747502089075020888720208F0B58FB06E
:101890000024074650200194029403F06BFD0123BD
:1018A0000646436083601B4B46F80C3B05461A49CD
:1018B00008A8FEF7DDFFC82303A806930394049449
:1018C00005940794FEF76DFD3046FFF72FFA134B92
:1018D000EB6008A905F1240010F068F90EAE03A929
:1018E00005F13C00FEF7E4FC0D4BEB6008A80FF09F
:1018F00071FD46F8305D0B493046FFF7F1FE029B63
:1019000038607B60304602940194FFF765F93846F1
:101910000FB0F0BD707602084777020874750208B0
:10192000AC75020888720208F0B589B00025074638
:1019300050200095019503F01DFD012306464360EC
:101940008360194B46F80C3B0446184902A8FEF781
:101950008FFF3046FFF7EAF902A9154BE36004F167
:10196000240010F023F908AE04F13C00E56325647F
:101970006564A564E564FEF714FD0E4BE36002A800
:101980000FF028FD46F81C4D0B493046FFF7A8FE26
:10199000019B38607B60304601950095FFF71CF98C
:1019A000384609B0F0BD00BF8C76020858770208AF
:1019B00074750208C87502088872020838B50446B2
:1019C0000D46AC4204D0201DFFF706F90834F8E7B5
:1019D00038BD10B5044603C8FFF7F0FF2068FEF7D6
:1019E0007EFF204610BD10B504468030FFF74BFE49
:1019F00004F16C00FFF747FE04F14C00FFF7E9FF2C
:101A000004F13C00FFF7E5FF04F13800FFF7E4F8CC
:101A100004F12800FFF7DDFF204610BD10B5C468B3
:101A20003CB12046FFF7DFFF2046BDE8104003F041
:101A3000DEB910BD08B50C30FFF7D5FF08BDF8B50D
:101A400090E80C009B1ADB1014BF1A4601229A186A
:101A500004460E466FF0604504D2AA4228BF2A46CB
:101A6000174600E02F463846FEF73DFF94E80C008D
:101A70009B1A0546C01806D03146043051F8042B95
:101A8000EA50FFF7C9F894E803002B4600F1080676
:101A90004FF0000EA6F1080291420ED053B156F855
:101AA000082C83E8044056F8042C46F804EC5A60ED
:101AB00046F808EC08330836ECE70E1A08362E44D0
:101AC000FFF77CFF2068FEF70AFF84E8600005EB63
:101AD000C705A560F8BD38B543688568AB420446C4
:101AE0000BD033B1184651F8042B40F8042BFFF704
:101AF00093F863680833636038BDFFF7A0FF38BD13
:101B000070B50E461446051D2B1F9E4210D064B1C1
:101B1000204655F8043C40F8043B2946FFF77CF882
:101B2000291D04F10800FFF77EF810341035EBE7AB
:101B3000204670BDF7B502AB03E90600019D009E8B
:101B400000232D0104460360436083602811FEF7E3
:101B5000B9FE7719054402462060A5603946304633
:101B6000FFF7CEFF6060204603B0F0BD091A2DE9F3
:101B7000F041CD109046161D041D2F46002F0BDDA1
:101B800054F8043C46F8043C21463046FFF77AF905
:101B9000013F08360834F1E725EAE57008EBC0009C
:101BA000BDE8F08181422DE9F8430446884660D0C3
:101BB00091E820022268A368C5EB0907F8109B1A78
:101BC000B0EBE30F22D9FEF78EFE0435064600F196
:101BD00004082B1F99450ED0B8F1040F07D055F813
:101BE000043C48F8043C29464046FFF715F808F144
:101BF00008080835EDE794E80300FFF7DFFE2068EA
:101C0000FEF76DFE26603E44A6602FE06168891AEB
:101C1000B0EBE10F0CD828464946FFF7A7FF6668EE
:101C20000546AE4222D0281DFEF7D6FF0835F8E75C
:101C300029442846FFF79AFF94E84800D8F8005056
:101C4000D8F80480F31A043304361D442B1F98453A
:101C50000CD0042E07D055F8043C46F8043C294625
:101C60003046FEF7D9FF08360835EFE723681F44F2
:101C700067602046BDE8F8832DE9F047002504465B
:101C80009CB0056045608560C56005610E46FEF745
:101C900088FB6561A561E5612562656204F1140058
:101CA000FEF77FFBA562E56225636563A563E563D7
:101CB00025646564E56425656565316884F8485088
:101CC000043104F15800FEF7F3FAE566256765670D
:101CD000C4F88050C4F88450C4F888503168A567AF
:101CE0000BAE1831E56710A8FFF792F910222946CC
:101CF00030461CF052FC109FDDF84490DFF8BC82A7
:101D00000F950D960E960837A7F10805A94500F026
:101D1000E880199B1A98C11A4FEA611E1E46BEF14F
:101D2000000F33461ADD57F8082C3168914233D042
:101D3000B1688A4202D106F108032EE031698A4275
:101D400002D106F1100328E0203656F8081C8A421A
:101D500001D1183321E00EF1FF3EE0E7821BD210E3
:101D6000022A0AD0032A02D0012A13D10BE03168DB
:101D700057F8082C91420FD00833196857F8082CEF
:101D800091420AD00833196857F8082C914218BFBD
:101D9000034602E0034600E03346B0EB030A29465F
:101DA00001A818BF4FF0010AFFF750F8294603A811
:101DB000FEF7C8FF019B43BB98200593069303F0F1
:101DC000D9FA064601234360836046F80C8B039BD7
:101DD0000793054604A908A8FEF71EFF07A9304689
:101DE000FFF74AFF08A8FEF7F7FE7349069506A815
:101DF000FFF776FC05A9059080F848A004F12800BB
:101E0000FFF769FE1CAA039B59E00026982005965F
:101E1000069603F0AFFA0123054602A943608360EA
:101E2000C0F80080019B079308A8FEF7F5FEEE605E
:101E30002E616E61AE61EE6105F10C00FEF7B1FA44
:101E40002E626E62AE62EE622E6305F12000FEF736
:101E5000A8FA079B2B6408A96E63AE63EE6305F1D5
:101E60004400FEF7D9FE0799AE640431EE642E6596
:101E7000AE65EE652E6605F16400FEF719FAAE67F1
:101E8000EE67C5F88060C5F88460C5F88860C5F85D
:101E90008C60C5F89060C5F8946008A8FEF79CFEB9
:101EA0004549069506A8FFF71BFC05A9059080F893
:101EB00048A004F12800FFF70EFE019B1CAA42F87F
:101EC000703D0AA905AB07A8FFF7E9FA06A8FEF7D7
:101ED00083FE04A8FEF780FE02A8FEF77DFE083709
:101EE00012E7109EDDF8448008360027A6F10803AB
:101EF000984543D000210846079708970997FFF7B0
:101F00005DFD169DDDF85C9008970835A5F1080386
:101F1000994521D055F8082C56F8083C9A4219D119
:101F2000294603A8FEF792FF294605A8FEF70AFFF7
:101F3000039B03B9059B019301A90AA8FFF754FB72
:101F4000014607A8FFF7C7FD06A8FEF745FE04A84F
:101F5000FEF742FE1035D9E71CA956F8083C41F8B7
:101F60005C3D0AA8FFF740FB006807A94C30FFF76B
:101F700019FE07A8FFF72DFD0836B7E7149F139D3C
:101F800004F13C06AF420BD055F8083B079307A974
:101F90000AA8FFF729FB01463046FFF79CFDF1E751
:101FA0000C990AA8FFF77EF810A8FFF756F920460B
:101FB0001CB0BDE8F08700BF88720208A87602084E
:101FC000091A2DE9F0470D11924604461646A94616
:101FD000B9F1000F04F1100706F1100814DD57F8ED
:101FE000103C48F8103C211D301DFEF74BFFA36844
:101FF000B36004F10C0106F10C00FEF743FF09F198
:10200000FF3946463C46E3E725EAE5700AEB001057
:10201000BDE8F08781422DE9F04104460E4643D0E9
:1020200091E880012268A368C7EB080528119B1A74
:10203000B0EB231F17D9FEF745FC41460246064682
:102040003846FFF7B9F994E88001B84504D038461E
:10205000FEF7D8FD1037F8E72068FEF740FC266051
:102060002E44A6601DE06368991AB0EB211F0CD8BE
:1020700038464146FFF7A4FF67680646B74210D0CE
:102080003046FEF7BFFD1036F8E739443846FFF713
:1020900097FF94E8050033687168101A1844FFF739
:1020A0002FFD23681D4465602046BDE8F0810000D7
:1020B0002DE9F0470024054691468EB00460446047
:1020C0008460C460046198460E46FEF76AF96C614C
:1020D000AC61EC612C62494605F12400FFF786F9FA
:1020E000414605F13000FFF781F9316805F1400004
:1020F0000431FEF7DDF899E890000434231F9F4275
:1021000017D054F8043C099323B121460AA8FEF7DE
:1021100083FD00E00A93099818B991481DF09CFCD2
:1021200002E003681B6998470AA8FEF755FD1034C2
:10213000E4E798E890000434231F9F4217D054F836
:10214000043C099323B121460AA8FEF765FD00E08F
:102150000A93099818B983481DF07EFC02E00368D1
:102160001B6998470AA8FEF737FD1034E4E73146AB
:102170000EAF51F8043B47F8283D05A8FEF74CFD8B
:102180008C2003F0F7F8394600260446FFF774FD6B
:10219000102009940A9603F0EDF801234360836050
:1021A000714B0360099B6A69C4606B61AB69A8618C
:1021B0000AA809920A93FEF70FFD05A8FEF70CFD89
:1021C000494601A8FFF712F941463846FFF70EF9D4
:1021D000282003F0CFF801A9044646608660C66057
:1021E000066146618661C661066246621030FFF78D
:1021F00011FF394604F11C00FFF70CFF63692669E3
:102200009E1B3611266009A8FEF73EFAD4F804801A
:10221000E368564AC8EB03039B1053439E42B14602
:1022200027D956B1524B9E4201D904F099F8142097
:10223000704303F09FF8804600E0B046142303FB90
:102240000686C246B9F1000F0BD0BAF1000F03D0D9
:1022500009A95046FEF72CF809F1FF390AF1140AD2
:10226000F0E76068A660C4F80480E660FEF737FB1C
:1022700041E0D4F80890C8EB09039B105A439642FA
:1022800002D8B246C14626E0C14506D0404609A95B
:10229000FEF738F808F11408F6E7D4F808906368F8
:1022A000324AC3EB09039B1002FB1366C846B246D1
:1022B000BAF1000F0BD0B8F1000F03D009A94046C6
:1022C000FDF7F6FF0AF1FF3A08F11408F0E71423CE
:1022D00003FB06960EE0BAF1000F08D0484609A9A4
:1022E000FEF710F80AF1FF3A09F11409F3E7142395
:1022F00003FB0686A6600026102009940A9603F0C8
:1023000039F80123436083601A4B0360099BEA6933
:10231000C460EB612B6A28620AA809920A93FEF74F
:102320005BFC3846FEF7D1FC01A8FEF7CEFC6C69D9
:102330000996082309A80C930A960B960D96FEF7AA
:1023400030F809AA21463846FEF718FD39462846D6
:10235000FDF7D8FF284685F83C600EB0BDE8F08751
:10236000617702087977020800760208CDCCCCCCE0
:10237000CCCCCC0C1C76020838B50D460446FDF7D3
:10238000C1FF6B69636105F1180104F11800FEF7E4
:1023900079FD04F11C0005F11C010FF093F86B6B43
:1023A0006363204638BD0000091A0D4B2DE9F0414A
:1023B000CC105C439046054626461746002E07DDA6
:1023C00029463846FFF7D8FF38353837013EF5E75C
:1023D00024EAE474382000FB0480BDE8F08100BFEB
:1023E000B76DDBB6091A2DE9F041CD109046161DE8
:1023F000041D2F46002F0BDD54F8043C46F8043C26
:1024000021463046FEF73EFD013F08360834F1E72D
:1024100025EAE57008EBC000BDE8F0812DE9F8433E
:102420000446551A1746A3682268E8109B1AB0EBB9
:10243000E30F0E461ED9FEF756FA81468046B74294
:102440000AD0B8F1000F03D031464046FEF7EBFB4F
:10245000083608F10808F2E794E80300FEF784FE66
:102460004D442068FEF73BFAC4F800906560A56013
:10247000BDE8F8836568AD1AB0EBE50F0AD83946B8
:102480003046FFF7AFFF61680546FEF76DFE6560F9
:10249000BDE8F8830D4430462946FFF7A3FF666880
:1024A000AF4207D01EB129463046FEF7BCFB0835C7
:1024B0000836F5E76660BDE8F883091A2DE9F047AC
:1024C0000D11924604461646A946B9F1000F04F1D3
:1024D000100706F1100814DD57F8103C48F8103CBE
:1024E000211D301DFEF7CEFCA368B36004F10C0182
:1024F00006F10C00FEF7C6FC09F1FF3946463C46E2
:10250000E3E725EAE5700AEB0010BDE8F08700007C
:1025100082B02DE9F04FF1B004467B9303937D9B8D
:1025200002930DF1180B7F9B01938BE806000D467B
:10253000FEF7FCFBB04B236040AA002304F118080F
:102540001146A361E36123626362A362E3622363D2
:102550006363A363E363236463644046FFF75EFF42
:1025600004F124074CAA4FF0000311463846FFF748
:1025700055FF58A9226B0846FFF79FFF616B06467F
:102580000DF5C87AFEF75EFE666304F13C064FF077
:102590000003524651463046A146FFF73FFF974B96
:1025A00049F8303BDBF8043005EBC30B5D453AD00E
:1025B00029465046FEF7C6FB649921B92946404694
:1025C000FEF72FFE2AE0183110A8FEF721FD119A20
:1025D000109B05929A4208D0194640460493FEF794
:1025E00020FE049B059A0833F3E710A8FEF735FE9A
:1025F00064991CA81831FEF70BFD239A229B0592C3
:102600009A4208D0194648460493FEF74DFE049BB3
:10261000059A1033F3E71CA8FEF71FFE65A8FEF726
:10262000DBFA0835C2E7039A7C9B154602EBC30828
:10263000454523D0294664A8FEF784FB649921B957
:1026400029463846FEF7EDFD13E0183128A8FEF7BD
:10265000DFFCDDF8B0A0DDF8AC90CA4506D04946F5
:102660003846FEF7DEFD09F10809F6E728A8FEF76F
:10267000F4FD65A8FEF7B0FA0835D9E7019A809B0A
:10268000154602EBC308454521D0294664A8FEF74C
:1026900059FB649921B929463046FEF7C2FD11E085
:1026A000183134A8FEF7B4FCDDF8F8903D9F4F4593
:1026B00005D039463046FEF7B4FD0837F7E734A8B1
:1026C000FEF7CBFD65A8FEF787FA0835DBE7029A2F
:1026D0007E9B154602EB0318454500F0868029468F
:1026E00008A8FEF72FFB05F108010AA8FEF72AFB50
:1026F00008990A9B29BB2BB9294604F13000FEF743
:10270000D3FD6AE003F1180140A8FEF781FCDDF873
:102710001091439E04F13007B14510D029460CA812
:10272000FEF781FA31460EA8FEF77DFA0CA938466D
:10273000FEF7F0FD0CA8FEF75BFA0836ECE740A8C0
:1027400049E01831E3B94CA8FEF762FC569F559E4C
:10275000B74213D031460CA8FEF765FA0A9B0E93D8
:102760000BA90FA8FEF758FA0CA904F13000FEF7E8
:10277000D1FD0CA8FEF73CFA0836E9E74CA82AE0A0
:1027800058A8FEF745FCDDF88891619EB14521D03F
:102790000A9964A81831FEF73BFCDDF8A0B1679FE9
:1027A00004F1300ABB4510D031460CA8FEF73BFAC5
:1027B00039460EA8FEF737FA0CA95046FEF7AAFDD7
:1027C0000CA8FEF715FA0837ECE764A8FEF745FDFC
:1027D0000836DBE758A8FEF740FD0BA8FEF7FCF92A
:1027E00009A8FEF7F9F9103576E7204671B0BDE883
:1027F000F04F02B0704700BF5C75020868750208B0
:1028000070B505460E461446B54207D01CB12946A0
:102810002046FEF712FA38353834F5E7204670BD09
:1028200070B591F8B03090B004460D4601F1B40691
:102830006BB910AA803142F83C3D02A8FEF72EF990
:1028400002A93046FFF798FD02A8FEF763FA95F853
:10285000B030012B0ED110AA05F1800142F83C3DA9
:1028600002A8FEF71BF902A93046FFF785FD02A872
:10287000FEF750FA95F8B030022B0ED110AA05F1F0
:10288000800142F83C3D02A8FEF708F902A9304653
:10289000FFF772FD02A8FEF73DFA314602A8FEF7E7
:1028A000CCF9002323606360A360382002F062FD4E
:1028B00000F1380302462060A36010A902A8FFF7C8
:1028C0009FFF606002A8FEF725FA204610B070BD99
:1028D00093422DE9F74F0446884691469B467AD0AD
:1028E0009B1A456882683D4F521B4FEAE30AD2109B
:1028F00007FB0AFA7A4392453ED86A1AD6107E43FD
:10290000B24501921BD2EE1A2A462946304601935F
:10291000FEF7A8F96268019B13446360C8EB0603E5
:10292000DB105F43002F07DD383D383E3146284637
:10293000FFF722FD013FF5E74246594618E0019BAB
:1029400009EB03072A4659463846FEF79BF96368A8
:10295000C6EB0A0A382202FB0A3262602946404668
:10296000FEF780F96368019A134463604246394672
:102970004846FFF719FD2EE0194A5146FEF75AFE68
:10298000054650B1174B984201D903F0E9FC3820B5
:10299000684302F0EFFC064600E006463246414638
:1029A0002068FFF72DFF594602464846FEF76AF9B0
:1029B000616802464046FFF723FF074694E803009C
:1029C000FEF756FE2068FDF78AFF382384E8C00032
:1029D00003FB0565A56003B0BDE8F08FB76DDBB6FE
:1029E000927702082449920473B5046805464FF0B3
:1029F00000068DF800600C1BFFF76AFF2868204472
:102A000002B070BDF0B50D4689B00446114605F11F
:102A100014001646FDF76FFC20B1002323606360AD
:102A2000A3603DE0696B21B10B682046DB689847E5
:102A300036E0EF6AAD6A0091019102910835A5F187
:102A400008039F421FD055F8081C03A81431FDF756
:102A50002FFC314603A8FDF736FC0028EED055F8D0
:102A6000081C91F84830002BE8D0324603A8FFF745
:102A7000C9FF049B039A01996846FFF7B5FF03A8B5
:102A8000FEF701FEDAE7019A009B6260029A23607A
:102A9000A26000236846009301930293FEF7F3FDC2
:102AA000204609B0F0BD00002DE9F04FC36F466B22
:102AB000013391B004460D46C367002E3ED0336803
:102AC00030469B699847226FE36E04F114069A42E0
:102AD000314628460AD1FDF7F6FB20B1606B03684A
:102AE0005B68984714E02946204621E0FDF7EBFBA0
:102AF000676B04F16C083B68E8B1D3F81490224688
:102B000029460BA8FDF7D9FC0BAA41463846C84711
:102B100029462046FDF7F6FB616B0B6806A89B680B
:102B2000984721460BA806AAFDF76EFC0BA9304674
:102B3000FDF7E8FBD2E0D3F81090E0E76C48DFF84F
:102B4000B48100F07BFB29462046FDF7DBFB0096B5
:102B500001960296039604960596E66B276C083656
:102B6000A6F108094F4521D056F8081C0BA81431CE
:102B7000FDF79EFB21460BA8FDF7BDFB60B156F8A3
:102B8000082C136FD26E9B1ADB1042465A4303D1B6
:102B9000494603A8FEF79FFF56F8080C236F016F04
:102BA000E26E6C30FFF720FF0836D9E704F1140815
:102BB00041462046FDF787FB002851D0D4F82C90E1
:102BC000A66A0836A6F10807B94549D056F8081C88
:102BD0000BA81431FDF76CFB41460BA8FDF773FB06
:102BE0000028EED039466846FEF775FF56F8081CF7
:102BF0000B6DCA6C9B1ADB08E3D0224606A8FFF7D0
:102C000001FF56F8083CD3F850B0DF6C0837A7F145
:102C1000080AD34520D057F8081C0BA81431FDF73B
:102C200047FB21460BA8FDF766FB60B157F8081C6F
:102C3000304A0B6FC96E5B1ADB105A4303D1514601
:102C400003A8FEF748FF57F8080C079B016F069A88
:102C50006C30FFF7C9FED9E706A8FEF714FDB0E710
:102C60009DE8C000B74205D0294656F8080BFFF78B
:102C70001BFFF7E7049F039EB74205D0294656F88D
:102C8000080BFFF711FFF7E7A56AE66AB54216D011
:102C90002F460835AE4211D029680BA81431FDF734
:102CA00007FB396806A81431FDF702FB06A90BA83B
:102CB000FDF733FB002818BF2F46EAE73E46316890
:102CC0000BA81431FDF7F4FA0BA94046FDF71AFBE7
:102CD00003A8FEF77EFE6846FEF77BFEE56E216FD9
:102CE0002846FEF7C5FC256711B0BDE8F08F00BF90
:102CF000AA770208B76DDBB62DE9F04F0C46AFB0EE
:102D000081469046FDF7D8FC94F83C3023B3414609
:102D10002046FDF702FB002800F0E58021466069AF
:102D2000FFF7C2FE616920A81431FDF7C1FA20A99E
:102D30002046FDF7E7FAEAE721466069FFF7B4FEAF
:102D4000616920A81431FDF7B3FA20A92046FDF7E8
:102D5000D9FA04A8FEF797FC20A8FDF795FC414698
:102D600020A8FDF7DAFA30B941462046FDF7D5FA3A
:102D7000002800F0B88020A8FDF786FC214620A896
:102D8000FDF7CBFA00285CD012A8FDF773FE12A95C
:102D9000E069FEF78BF800284FD0656912A920A8DA
:102DA000FDF74BFF286F6B6F984207D010B120A939
:102DB000FDF743FF2B6F38332B6730E04E4A01217C
:102DC00005F16C00FEF736FC064650B14B4B9842BD
:102DD00001D903F0C5FA3820704302F0CBFA074658
:102DE00000E007462B6FE86E181A381802D020A9A9
:102DF000FDF723FF3A46296FE86EFFF701FD296FC3
:102E00008246E86EFEF734FCE86EFDF768FD0AF1D5
:102E100038032B67382303FB0676EF666E6720A81E
:102E2000FDF778FF20A8FDF72FFC20A92046FDF72D
:102E300069FA12A8FDF76EFF03E012A8FDF76AFF1A
:102E400099E72246616904A8FFF7DCFD049B059A17
:102E50009A423FF471AF214607A8FDF729FA059F72
:102E6000049EB7423FF468AF059920A83839FDF7B2
:102E7000E4FE059838380590FDF74CFF27A90CA80B
:102E8000E5690DF1B80A0EF091FE20A8FDF718FED5
:102E90002D9BD5F820B04AF8AC3DED691035A5F171
:102EA00010039B4517D055F8101C12A818310EF0CE
:102EB0007DFE0CA912A8FEF708F9019012A80EF0E9
:102EC00089FA019B002BE9D055F8100C0368514694
:102ED000DB689847E2E70CA80EF07CFA20A8FDF723
:102EE00019FF3836BDE721464846FDF7E1F9484667
:102EF0002FB0BDE8F08F00BF1E770208244992046E
:102F00002DE9F04FCDB0FDF72DFE88481CF0A4FD53
:102F100087481CF0A1FD09A8FEF7E8FB85481CF0D6
:102F20009BFD099B15930AA916A8FDF775FE0DF5E3
:102F3000987A15AB4CAE4FF0010817930AA9099B7C
:102F40004AF8CC3D1AA8CDF86080FDF765FE099BD4
:102F500046F88C3D00240DF1DC090AA92AA8CDF819
:102F600078A0CDF87C803794389439943A94CDF891
:102F70008C90CDF89080FDF74FFE48202F96CDF82D
:102F8000C08002F0F7F92FAD834695E8030003AB4C
:102F900083E8030023AF97E8030001AB83E8030055
:102FA0001F9B009317AA06CA1E9B5846FFF7B0FA4C
:102FB0001020CDF82CB00C9402F0DCF95E4B0360CD
:102FC000C0F80480C0F80880C0F80CB00C902AA8A3
:102FD000FDF702FE4846FDF70BFE1AA8FDF7FCFDC3
:102FE00016A8FDF7F9FD55481CF036FD0DA8FEF7B3
:102FF000FFFB0FA8FEF74AFC11A8FEF795FC50480E
:103000001CF02AFD5046FDF73FFB0B9B13930CA9C8
:1030100014A8FDF701FE09AA0DA92846FDF742FEF6
:1030200009AA0FA933A8FDF73DFE022316931595B3
:1030300015AA07AB06CA1EA8FEF77CFD09AA11A9AE
:103040003046FDF72FFE1796CDF8608017AA08AB23
:1030500006CA3846FEF76EFD1EAA13A93B4648462F
:10306000FFF726F83846FDF730FE3046FDF7CAFD7B
:103070001EA8FDF72AFE33A8FDF7C4FD2846FDF77C
:10308000C1FD14A8FDF7A8FD1E231EA81F931E94C2
:10309000209421942294FDF784F91EA93846FDF767
:1030A000A7FA284A214638460EF062FC014630460F
:1030B0000EF083FA244930460EF0A6FC014628465D
:1030C0000EF07BFA2F981CF017FC28460EF082F9C0
:1030D00030460EF07FF938460EF07CF91EAA4946BC
:1030E0002846FFF709FE29461EA8FDF70BF943A85D
:1030F000FDF7EBFD40A8FDF7E8FD3FA8FDF76CFDEF
:103100003DA8FDF769FD12A8FDF766FD10A8FDF7C3
:1031100063FD0EA8FDF760FD0CA8FDF75DFD0AA894
:10312000FDF75AFD20464DB0BDE8F08FB477020898
:10313000D7770208F3770208E475020810780208CE
:103140002C7802083E7802080977020838B5234C2B
:10315000234D204602F064FA224A234920461024D7
:1031600001F040FE2246002128461BF016FA2846B0
:103170001E4D002101F0A9FC2246002128461BF02B
:103180000CFA2146284601F0A0FC2121184800F045
:10319000BDFA0421174800F0B9FA1A211648FDF7C4
:1031A0005CFC08211548FDF758FC09211448FDF77F
:1031B00054FC27211348FDF750FC0A211248FDF763
:1031C0004CFC13211148FDF748FC15211048FDF770
:1031D00044FC14210F48FDF740FC38BD2C050020AD
:1031E00048050020980100203957000830050020CC
:1031F0005805002040050020CC040020DC040020FD
:103200000C0500201C050020AC040020EC0400206C
:10321000BC040020FC0400204FF06043D3F8802E53
:10322000D1070AD5D3F8002ED20706D51A68002A8E
:10323000FCD04FF06042C3B21370704710B5044623
:10324000FDF718F8013C14F8010F10B1FFF7E4FF87
:10325000F9E7BDE81040FDF71DB80000DFF830D0F9
:10326000002103E00B4B5B58435004310A480B4BE1
:1032700042189A42F6D30A4A02E0002342F8043B7D
:10328000084B9A42F9D301F043FBFCF7B3FF7047B8
:103290000000022038B802089801002064040020D1
:1032A00068040020D81D0020FEE700000E4B0268D5
:1032B0001A6082685A60C2689A600269DA6042697C
:1032C0001A6100229A6190F91920013201D1082275
:1032D00005E090F9182001320CBF04220C220248AC
:1032E0005A6100F006BB00BF64050020F0B50E4631
:1032F00085B0044639493046154601F095FB3849FA
:103300000746284601F090FB0146384601F06EFB67
:10331000344B2060984213D003F5806398421BD051
:10332000A3F55043984223D12F4B1A6C42F400323C
:103330001A641B6C03F400330293029B012316E012
:10334000294B5A6C42F010025A645B6C03F0100374
:103350000193019B00230AE0234B5A6C42F02002A8
:103360005A645B6C03F020030393039B05236360A3
:103370001A49304601F01CFB1949284601F018FB98
:10338000721C03D00121304600F0EEF86B1C03D014
:103390000121284600F0E8F84FF41653A3600023FB
:1033A000E36023616361267665762046FFF77EFF42
:1033B00022680E4B9A420FD10D4B01221A600D4B21
:1033C00004F11805206861681A4603C20834AC424B
:1033D0001346F7D12068106005B0F0BD10790208DF
:1033E000BC78020800100140003802400044004050
:1033F00060050020A40500200368034A18681360D4
:10340000C0F34010704700BF6405002010B5046889
:1034100001460846FFF7F0FF0028FAD06068C0F3C5
:10342000080010BD0368034A18681360C0F3C01099
:10343000704700BF6405002038B505680446204683
:10344000FFF7F0FF0028FAD0C1F30801696038BD2A
:103450007FB507284DD8DFE800F004101C28344C55
:103460004C40274B27481A6B42F001021A631B6B32
:1034700003F001030093009B3FE0214B22481A6BAD
:1034800042F002021A631B6B03F002030193019BDB
:1034900033E01B4B1D481A6B42F004021A631B6B8E
:1034A00003F004030293029B27E0154B18481A6BA4
:1034B00042F008021A631B6B03F008030393039B9B
:1034C0001BE00F4B13481A6B42F010021A631B6B80
:1034D00003F010030493049B0FE0094B0E481A6B92
:1034E00042F080021A631B6B03F080030593059B77
:1034F00003E00A4801F04CFA002007B05DF804FB35
:10350000003802400000024000040240000802406F
:10351000000C024000100240001C024067780208C4
:1035200030B5054687B0C0F303100C4605F00F0513
:10353000FFF78EFF012304F00F0203FA05F5094B94
:10354000019553F822300293C4F302130393C4F39A
:10355000C314032301A90493059400F015FD07B0DB
:1035600030BD00BF8878020838B500F00F05C0F301
:1035700003100C46FFF76CFF6900C26803238B4001
:1035800022EA0303032CC360C36828BF00248C40D5
:103590001C43C46038BD0000054B186830B90122D7
:1035A0001A60044B044A1A6001F088B8704700BFE3
:1035B000FC050020C0050020000C004008B5044BAD
:1035C0001B680BB9FFF7E8FF024B586A08BD00BF44
:1035D000FC050020000C0040034B1B685863DA68B0
:1035E00042F00202DA607047C0050020034B1A68FF
:1035F000D36823F00203D360704700BFC0050020EA
:10360000024B1B686FF002021A617047C005002070
:1036100010B50021044604F00F04FFF781FF0120DC
:10362000A04010BD70B504464B1C0E4621700DD055
:10363000C1F30310FFF70CFF05463046FFF7E8FF24
:1036400005F1100318356060A360E56070BD90F966
:103650000000FFF789BF012990F9000018BF002181
:10366000FFF75EBF08B501F097F8BDE8084000F02D
:1036700057BD00001FB5244B026841791A60002332
:1036800001220192029303930F2938D8DFE801F059
:1036900025080A0C0E10121416181A1C1E202224BB
:1036A00000921BE0022318E0032316E0042314E039
:1036B000052312E0062310E007230EE008230CE0A8
:1036C00009230AE00A2308E00B2306E00C2304E0A8
:1036D0000D2302E00E2300E00F23009369460A4801
:1036E00000F070FE084800F0E3FD0A21064800F0F3
:1036F00033FE20B9044800F062FE80B200E00020F2
:1037000005B05DF804FB00BF0006002037B50D468C
:1037100004461949284601F087F9174920602846D0
:1037200001F09EF9C0F3C32060711349284601F0EF
:103730003FF9124A25711368E3B901251560104A53
:103740001048516C41F480715164526C02F48072E3
:103750000192019A2268836080E80C000361836112
:10376000436283620363C362C3600562C3614361F2
:1037700000F000FD03B030BD64790208440600206B
:10378000003802400006002008B5FFF773FF07EE7F
:10379000900AB8EE677ADFED037A67EE277A17EEC4
:1037A000900A08BD010880392DE9F84305682B69A6
:1037B000074623F44052C368B968C06913433A69A5
:1037C0002B61EB6811437A6923F416430A430243E1
:1037D00023F00C031343EB606B6923F44072BB6965
:1037E000B0F5004F43EA02036B613F4B36D19D4277
:1037F00003D003F580639D4216D100F0ADFB7E68D7
:10380000192460437600B0FBF6F600F0A5FB7A6859
:103810004FF064086043B6FBF8F652003601B0FB87
:10382000F2F900F099FB15E000F07EFB7E681924A8
:1038300060437600B0FBF6F600F076FB7A684FF056
:1038400064086043B6FBF8F652003601B0FBF2F9AB
:1038500000F06AFB44437868400034E09D4202D0A7
:10386000224B9D4216D100F077FB7E6819246043FD
:10387000B600B0FBF6F600F06FFB7A684FF0640814
:103880006043B6FBF8F692003601B0FBF2F900F0A7
:1038900063FB15E000F048FB7E6819246043B60026
:1038A000B0FBF6F600F040FB7A684FF06408604326
:1038B000B6FBF8F692003601B0FBF2F900F034FBEB
:1038C000444378688000B4FBF0F0B0FBF8F008FBEC
:1038D000109212013232B2FBF8F303F00F033343BC
:1038E000AB60BDE8F88300BF001001400014014048
:1038F000704710B5044630B390F8393003F0FF023A
:103900001BB980F83820FFF7F3FF2268022384F800
:103910003930D36823F40053D3602046FFF744FFC7
:1039200023681A6922F490421A615A6922F02A0225
:103930005A61DA6842F40052DA6000200123E06341
:1039400084F8393010BD012010BD000003682DE956
:10395000F341DD07044603D4236898074CD49EE066
:103960008B4B9A6802F00C02042A07D09A6802F086
:103970000C02082A0BD15B68590208D5844B1B68DE
:103980009A03E9D56368002BE6D1012067E1814DF8
:103990007F4E00232B7000F0E5FB41F2883807468C
:1039A00033689B0306D500F0DDFBC01B4045F7D90B
:1039B000032054E123792B70636873B100F0D2FBCC
:1039C000734D064641F288372B689803C4D400F043
:1039D000C9FB801BB842F7D9EAE700F0C3FB6C4D86
:1039E000064641F288372B689903B5D500F0BAFB3B
:1039F000801BB842F7D9DBE7654B9A6812F00C0FD1
:103A000007D09A6802F00C02082A18D15B685A02A3
:103A100015D45F4A13689B0702D5E368012BB4D124
:103A20001168F82393FAA3F3B3FA83F32069DBB2A6
:103A300000FA03F321F0F8010B4313602FE0E26872
:103A4000554BF2B101221A6000F08CFB504D064636
:103A50002B684F489F0705D400F084FB801B642827
:103A6000F6D9A5E70268F82393FAA3F3B3FA83F330
:103A70002169DBB201FA03F322F0F8021343036079
:103A80000DE01A6000F06EFB414D06462B68990769
:103A900005D500F067FB801B6428F7D988E7236809
:103AA0001A0703D423685B074ED51FE062693B4BBE
:103AB00072B101221A6000F055FB354D06466B6F5E
:103AC0009F07EFD400F04EFB801B6428F7D96FE707
:103AD0001A6000F047FB2E4D06466B6F9807E1D544
:103AE00000F040FB801B6428F7D961E7284B2C4D80
:103AF0001A6C42F080521A641B6C03F080530193DD
:103B0000019B2B6843F480732B6000F02BFB06466F
:103B10002B68D9051BD5234D1D4E00232B7000F0BB
:103B200021FB41F288380746336F9A0715D4237A70
:103B30002B70A368EBB100F015FB154D064641F262
:103B400088372B6F9B070ED5A2696ABB6CE000F02B
:103B500009FB801B6428DBD92AE700F003FBC01BAC
:103B60004045E1D924E700F0FDFA801BB842E8D9CE
:103B70001EE700F0F7FA064D064641F288372B6F34
:103B80009807E1D500F0EEFA801BB842F7D90FE7AD
:103B9000003802400238024000004742800E47428F
:103BA00000700040703802402E4DAB6803F00C03EB
:103BB000082B3FF4EAAE2C4E0023022A336042D198
:103BC00000F0D0FA80462B68264F99012ED447F694
:103BD000C07292FAA2F2B2FA82F24FF4403393FA30
:103BE000A3F3B3FA83F54FF0706191FAA1F1B1FA42
:103BF00081F0E169236A0B43616AD2B291401943B3
:103C0000A36A5B085A1EEBB202FA03F3E26A0B43A3
:103C1000C1B28A4013437B600123336000F0A2FAF3
:103C200004463B689A0108D5002018E000F09AFA93
:103C3000C8EB00006428C6D9BAE600F093FA001B6E
:103C40006428EED9B4E600F08DFA04462B689B0197
:103C5000EAD500F087FA001B6428F7D9A8E602B07D
:103C6000BDE8F08100380240600047427B4B1A6893
:103C700002F00F028A422DE9F04105460E4674D249
:103C8000CAB21A701B6803F00F03994202D00120D8
:103C9000BDE8F08101688F0706D57148836823F07D
:103CA000F002AB6813438360CE070BD429684C073E
:103CB00040F1C3806A48836823F4E052EB68134301
:103CC0008360BAE06B68664A012B03D1126812F474
:103CD000003F08E0991E0129126802D812F0007F07
:103CE00001E012F0020FD2D05D4CA26822F0030274
:103CF0001343A36000F036FA6B68012B06460ED121
:103D000041F28837A36803F00C03042BCED000F0F7
:103D100029FA801BB842F5D90320BDE8F081022BB7
:103D20000CD141F28837A36803F00C03082BBDD0F7
:103D300000F018FA801BB842F5D9EDE7032B08D143
:103D400041F28835A36800F00DFA801BA842F9D92A
:103D5000E2E741F28837A36813F00C0FA6D000F019
:103D600001FA801BB842F6D9D6E70168880706D564
:103D70003B48836823F0F002AB6813438360CA07B3
:103D800009D4364BF2B21A701B6803F00F039E423F
:103D90007FF47DAF8AE76B68314A012B03D112684B
:103DA00012F4003F08E0991E0129126802D812F0AF
:103DB000007F01E012F0020F3FF469AF284CA268C7
:103DC00022F003021343A36000F0CCF96B68012BCF
:103DD00007460CD141F28838A36803F00C03042B8A
:103DE000CFD000F0BFF9C01B4045F5D994E7022BB6
:103DF0000CD141F28838A36803F00C03082BC0D023
:103E000000F0B0F9C01B4045F5D985E7032B08D178
:103E100041F28835A36800F0A5F9C01BA842F9D982
:103E20007AE741F28838A36813F00C0FA9D000F0AC
:103E300099F9C01B4045F6D96EE70B0707D5084A2C
:103E40002969936823F4604343EAC10393600F2018
:103E500000F034FC0020BDE8F08100BF003C0240CF
:103E6000003802401F498B6803F00C03042B34D048
:103E7000082B34D148684B6800F03F0013F4800FE2
:103E800047F6C0724B6892FAA2F2B2FA82F247F693
:103E9000C071D2B201EA030115BF21FA02F3D14089
:103EA000114A124A14BFB2FBF0F0B2FBF0F00D4A17
:103EB0000CBF00FB01F343434FF44031506891FACB
:103EC000A1F1B1FA81F100F44032C8B222FA00F057
:103ED00001304000B3FBF0F07047034870470348DF
:103EE000704700BF0038024000127A000024F4003E
:103EF00008B5FFF7B7FF094B9A68F02393FAA3F3CD
:103F0000B3FA83F302F0F002DBB222FA03F3044ABD
:103F1000D35CD840034B186008BD00BF0038024096
:103F2000307A02089C01002008B5FFF7E1FF084B3A
:103F30009A684FF4E05393FAA3F3B3FA83F302F4CD
:103F4000E052DBB222FA03F3024AD35CD84008BD48
:103F500000380240307A020808B5FFF7C9FF084B65
:103F60009A684FF4604393FAA3F3B3FA83F302F42D
:103F70006042DBB222FA03F3024AD35CD84008BDA8
:103F800000380240307A02082DE9F04F614E0B688C
:103F9000DFF888C185B04FF001080193B6460023D1
:103FA000019A08FA03F434EA020240F0AB804A684E
:103FB00022F01009B9F1020F14D14FEAD30A00EB35
:103FC0008A0A03F0070BDAF820704FEA8B0B0F25F3
:103FD00005FA0BF527EA05050F6907FA0BF72F43DA
:103FE000CAF820704FEA430A0325076805FA0AF564
:103FF000ED4302F0030B2F400BFA0AFB09F1FF39E6
:104000004BEA0707B9F1010F076012D8876805EA84
:104010000709CF6807FA0AF747EA09078760476880
:10402000C2F3001927EA040709FA03F949EA070766
:104030004760C7683D408F6807FA0AF73D43C5608F
:10404000D5005FD5DCF8445045F48045CCF84450A9
:10405000DCF8445023F0030909F1804905F4804558
:1040600009F59C39039503F0030A039DD9F808501C
:104070004FEA8A0A0F2707FA0AF725EA0705264FAB
:10408000B84212D007F58067B84210D007F58067B4
:10409000B8420ED007F58067B8420CD007F58067AC
:1040A000B84214BF0527042706E0002704E00127D3
:1040B00002E0022700E0032707FA0AFA4AEA0505A8
:1040C000C9F808503568E74312F4803F0CBF3D4003
:1040D0002543CEF80050DEF8045012F4003F0CBF28
:1040E0003D4025437560B56812F4801F0CBF3D400C
:1040F0002543CEF80850DEF80C50920254BF3D40E4
:104100002543F5600133102B7FF44AAF05B0BDE8BD
:10411000F08F00BF003C0140000002400038024028
:1041200008B50B4B1A6842F400721A601A6842F420
:1041300080621A601A6842F480721A60032000F0EC
:1041400065FA0F2000F0BAFA00F012F8002008BD5E
:10415000003C0240024A136801331360704700BFFD
:1041600048060020014B1868704700BF4806002031
:104170007047704710B50446002800F0938090F80F
:104180003D3003F0FF021BB980F83C20FFF7F1FF40
:10419000022384F83D30444B5A6822F440325A607E
:1041A000596862680A435A60236821695A68E06A5C
:1041B00022F480725A605A6842EA01225A605A68B0
:1041C00022F040725A605968A2680A435A609A689D
:1041D00022F400629A609968E2680A439A60334A5E
:1041E00090420ED0996821F0706199609A680243FC
:1041F0009A609A6822F040529A609968226B0A434A
:1042000006E09A6822F070629A609A6822F0405242
:104210009A609A68A16922F002029A609A6842EA5A
:1042200041029A60626AAAB15A6842F400625A6016
:104230005A6822F460425A604FF4604292FAA2F245
:10424000B2FA82F2A16A58680139D2B201FA02F2D6
:10425000024302E05A6822F400625A60DA6A22F4E9
:104260007002DA62226AD96A013A41EA0252DA62DB
:104270009A68E16922F400729A609A6842EA4122DF
:104280009A609A68616922F480629A609A6842EA48
:1042900081229A6000200123206484F83C0084F885
:1042A0003D3010BD012010BD002301400100000F72
:1042B00082B00023019390F83C30012B3ED00123C3
:1042C00080F83C3090F83D300268222B0CBF32233E
:1042D000122380F83D309368DB0708D51A49002384
:1042E00080F83C30486810F01F0012D01AE0936844
:1042F000164943F001039360154B1B68B3FBF1F3C0
:1043000003EB43030193019B002BE7D0019B013B8F
:10431000F8E7936813F0405313D1916841F080415E
:1043200091600DE00B498A420AD1906810F040502C
:1043300006D1936843F08043936002E0022000E0DE
:10434000184602B0704700BF0023014040420F00F2
:104350009C0100200020014003689A6870B5560552
:1043600004460D460AD59B68D80507D5042384F872
:104370003D30002384F83C30012070BDFFF7F2FE91
:104380000646226813689B070FD4691CFAD035B91A
:104390000320002384F83D0084F83C3070BDFFF713
:1043A000E1FE801B8542ECD2F2E794F83D30252BEC
:1043B0000CBF3523152384F83D30002070BD036801
:1043C000D86C7047F7B50023019390F83C30012B6F
:1043D00069D00D6804688F680123092D80F83C308E
:1043E000AEB210D906EB4602D4F80CE0A2F11E03DF
:1043F00007229A402EEA0202E260E26807FA03F31B
:104400001343E3600EE0226905EB45034FF0070E0E
:104410000EFA03FE22EA0E022261226907FA03F372
:10442000134323614B68062B4FEA83020DD81344D4
:10443000676B591F1F238B4027EA03036363626B7B
:1044400006FA01F1114361631DE00C2B0ED81344F1
:10445000216BA3F123021F23934021EA030323636B
:10446000236B06FA02F21A4322630CE01344E76A54
:10447000413B1F229A4027EA0202E262E16A06FA01
:1044800003F20A43E262164B9C4204D0002380F8F8
:104490003C30184622E0122D07D1124A536843F4EB
:1044A0008003536001E0022018E0A5F11003012B06
:1044B000ECD80C4A5368102D43F400035360E5D147
:1044C000094B0A4A1B68B3FBF2F20A2353430193D8
:1044D000019B002BDAD0019B013BF8E703B0F0BD54
:1044E00000200140002301409C01002040420F00B9
:1044F00070470000224A036890420ED0B0F1804F0E
:104500000BD0A2F57C42904207D002F58062904227
:1045100003D002F58062904214D14A6823F0700300
:104520001343174A904225D0B0F1804F22D0154A4C
:1045300090421FD002F5806290421BD002F580624B
:10454000904217D0104A904214D002F580629042F7
:1045500010D002F5806290420CD003608B68C36279
:104560000B688362064B984204BF0B690363012307
:1045700043617047CA6823F440731343EDE700BFFB
:1045800000000140000400400040014010B5044616
:10459000A0B190F8393003F0FF021BB980F8382041
:1045A000FFF7A6FF022384F839302068211DFFF7AA
:1045B000A1FF012384F83930002010BD012010BD77
:1045C00010B50123046A8B4024EA03030362036AE3
:1045D0008A4042EA0301016210BD000010B50446A2
:1045E00001220068FFF7ECFF2368064A934202BFEE
:1045F0005A6C42F400425A641A6842F001021A608E
:10460000002010BD00000140FFF7E8BF074AD36853
:1046100023F4E0631B041B0C43F0BF63000243F46C
:10462000003300F4E0600343D360704700ED00E026
:1046300030B50C4CA268A468B4F1006F13460CD1DD
:10464000131F094C094A53F8045F42F8045FA24261
:10465000F9D1044A4FF000539360103043F8201012
:1046600030BD00BF00ED00E094010020FCFFFF1F03
:1046700038B5104B1A68D26812F0020F1C4601D0F0
:1046800000F080F92368DA68520711D56FF0040250
:10469000094D1A615C6A2B68E31AB3F57A7F07D378
:1046A000FFF758FD034B2C601B6804F57A729A6380
:1046B00038BD00BF500600204C060020234B37B504
:1046C0001A6C234C42F008021A641A6C02F00802B9
:1046D0000192019A1A6A42F008021A621A6A22F0DA
:1046E00008021A6200F058F81A4B23604FF0FF33AB
:1046F000E360194B194A1B68B3FBF2F30025013B39
:10470000204663602561A5606561FFF73FFF14499E
:104710003220FFF78DFF134B4FF480225A60294659
:104720002046FFF771FF04212046FFF76DFF236845
:104730000D495A6A0A6002F57A729A63DA68284665
:1047400042F00402DA6003B030BD00BF003802401E
:1047500050060020000C00409C01002040420F0049
:104760007146000800E100E04C0600207FB50F23F1
:104770000193022302934FF480520023032101A8E6
:10478000039304920593FFF771FAB0FA80F04009A1
:1047900007B05DF804FB0000174A1849936803F05E
:1047A0000C03042B03D0082B03D0154B18E0154B3A
:1047B00016E05068536810F4800F03F03F03506810
:1047C00014BF104A0E4AB2FBF3F30B4A5268C2F30D
:1047D0000142C0F38810013243435200B3FBF2F3AD
:1047E0000B60054B084A9B68C3F30313D25C0B684C
:1047F000D3400B60704700BF003802409C0100208E
:104800000024F40000127A00407A02081A4B00B526
:104810001A6C42F080521A641B6C184A8FB003F075
:1048200080530093009B136823F4404343F40043F8
:104830001360136803F440430193019B0123029327
:1048400000B105230393022308934FF480030993D7
:1048500004230A930C930823C0220DEB03000B9250
:104860000D93FFF773F810B9FFF780FF00E0002009
:104870000FB05DF804FB00BF00380240007000403C
:104880001A4B10B51A6C42F080521A641B6C184A0D
:104890008EB003F080530093009B136823F44043D1
:1048A00043F400431360136803F440430193019BF6
:1048B0000323029301230593102306930223C022AE
:1048C0000893082300240B920DEB030004220394A9
:1048D00009940A930C920D93FFF738F810B9FFF77B
:1048E00045FF00E020460EB010BD00BF003802407A
:1048F0000070004008B50120FFF788FF30B9FFF7CE
:1049000085FF18B9FFF7BCFF00B9FEE708BD00003E
:10491000174AD2F8883010B543F47003154CC2F82A
:1049200088302368002143F001032360A1602368DD
:1049300023F0847323F4803323600F4B6360236878
:1049400023F4802323604FF00063E16093600B4BFE
:104950000B4A1A60FFF7E4FBFFF7CCFF236A43F032
:1049600008032362236A23F00803236210BD00BFFB
:1049700000ED00E000380240103000249C010020CF
:104980000024F400014800F0B6B800BF647A0208C1
:104990000FB407B5054B04AA1B6852F8041BD8686E
:1049A000019219F0F5FF012019F036F88402002079
:1049B00010B50446013001D110BD0C3191F9003021
:1049C0005A1C0BD09C42F8D120468968FEF7A8FDFE
:1049D00020460021BDE81040FEF7C6BD0248BDE8F4
:1049E0001040FFF7D5BF00BF6C7A0208884208B5B7
:1049F0000AD0431C07D0013106D00448FFF7C8FF96
:104A00004FF0FF3008BD084608BD00BF7D7A0208A0
:104A100091F900305A1C05D0834201D14868704793
:104A20000C31F5E718467047421C10B5044607D014
:104A3000FFF7EEFF431C044602D10248FFF7A8FF30
:104A4000204610BD8E7A020891F900305A1C05D01C
:104A5000834201D1886870470C31F5E718467047EA
:104A6000421C10B5044607D0FFF7EEFF431C044676
:104A700002D10248FFF78CFF204610BDAE7A020833
:104A800070B50E4604461546FEF7CCFD013609D03A
:104A900020460021FEF7DFFD29462046BDE8704094
:104AA000FEF7D5BD70BD38B50D460446C1684368F4
:104AB00002B91B040B6020460121FEF7CCFD2946FC
:104AC0002046BDE83840FEF7C2BD0022FFF7D8BF40
:104AD00070B50E4604461546FEF7A4FD013606D015
:104AE0002A4620460021BDE87040FFF7DCBF70BDBC
:104AF0000022FFF7EDBF036870B5DB6804469847F6
:104B000063685A6823681AB99B68BDE87040184703
:104B10005B68156898476368281A00285A6807DC9C
:104B2000916859601B68002BEAD050689847E7E706
:104B3000236810681B69BDE87040184738B5044603
:104B4000FEF73CFD0546FEF739FD401BA042FAD3B7
:104B500038BD4FF47A735843FFF7F0BF08B572B60B
:104B60009620FFF7F6FF9620FFF7F3FFF8E7000027
:104B7000044B1B6823B9032202210348FEF7B6BB8E
:104B8000704700BF60050020A405002002284FF0F8
:104B9000000309DDC21E074951F8220041F8223006
:104BA00020B103685B681847184670474FF0FF3024
:104BB000704700BF94060020022870B50C461546C9
:104BC0000FDC0E4B1B680BB9FFF7D2FF6619B4421E
:104BD00005D014F8011B0A48FEF72EFCF7E728461B
:104BE00070BD0338074B53F8200020B10368BDE8BF
:104BF00070401B6818474FF0FF3070BD6005002003
:104C0000A405002094060020022810B50C460ADCFA
:104C10000B4B1B680BB9FFF7ABFF0A48FEF7F6FB1F
:104C20002070012010BD0338074B53F8200020B13D
:104C30000368BDE810409B6818474FF0FF3010BD77
:104C400060050020A405002094060020022807DD4E
:104C50000338064B53F8200020B10368DB6818477F
:104C6000012070474FF0FF30704700BF94060020CE
:104C7000022807DD0338064B53F8200020B10368F3
:104C80001B691847002070474FF0FF30704700BF86
:104C900094060020022808B504D84FF400534B6056
:104CA000002008BD18F0B2FE092303604FF0FF306A
:104CB00008BD08B5012018F0AFFE704708B5FEF733
:104CC000D1FCFFF7FAFFBDE80840FEF719B9000074
:104CD000074A13681844EFF30881884229BF054B3F
:104CE00010600C224FF0FF302CBF1A60184670473E
:104CF000A0010020D41D0020074C08B523680546FC
:104D0000986818F04FFF2368D86818F04BFF0DB172
:104D1000FFF724FFFEE700BF8402002000F067B821
:104D20002DE9F0411D460368164653F8082C88B05B
:104D300004460F46811853F8040C002305938DF8A0
:104D400018308DF819308DF81A3010230793A358B6
:104D500053F8043C984201D0002040E003680294DC
:104D60008DE8820005AA0392D3F81C800622334600
:104D70002946C047059A002AEED09DF81A0000F097
:104D80000603062B2AD09DF819109DF818300B4009
:104D900003F00603062B21D001F005010429DBD026
:104DA000A0B9002D05DB5019844214BF0120062054
:104DB0000AE0AB1C07D0336800941C6A29463B46C6
:104DC0003046A04700E001208DF81A009DF81A3007
:104DD00003F00603062BBFD1059800E0104608B08B
:104DE000BDE8F0810B460146184618F001BE19F0E7
:104DF000F9BA000010B5034B0360044600F006FB4F
:104E0000204610BDD47A020810B50446FFF7F2FF21
:104E10002046FFF7ECFF204610BD2DE9F14F0E466E
:104E200019468346174699460A9CDDF82CA0DDF802
:104E300030800D9D00F0B4FA78B1002E2C602F71F7
:104E400006DB3444A0450CBF06240124AC711EE0EF
:104E500002361CD10123AB7119E0444504D15146FF
:104E6000584600F09DFA88B9DBF8080003680D95F4
:104E7000CDF83080CDF82CA00A94DC693A464B4638
:104E80003146A44601B0BDE8F04F60476F71002085
:104E900001B0BDE8F08F2DE9F041069E96428046B4
:104EA0000F4614461D4603D1194600F079FA58B949
:104EB000D8F80800036806961E6A22462B46394633
:104EC000B446BDE8F04160470620BDE8F0812DE919
:104ED000F04104460D4616461F4600F0AAFA48B9AE
:104EE000A06803689C6932463B462946A446BDE853
:104EF000F0416047BDE8F08110B5034B0360044604
:104F000000F084FA204610BD687B020810B5044604
:104F1000FFF7F2FF2046FFF76AFF204610BD2DE99C
:104F2000F74FDDF830904A4504460F46164698463E
:104F300005D1194600F034FA08B1062026E0E568EC
:104F400004EBC5040DB3E3689A0702D4013D083CA5
:104F5000F8E713F0010A4FEA232203D0FB1CF5D037
:104F600033689A58A0680368CDF80090D3F820B051
:104F7000324443463946D8470328E7D9BAF1000FEF
:104F800004D040F00100C0B200E0012003B0BDE851
:104F9000F08FF0B40D1E049C05DB5019844214BF41
:104FA0000120062008E0023505D0056804942C6A2B
:104FB000A446F0BC60470120F0BC70472DE9F04FDB
:104FC00091B088461D9C0793A3680692D90644BFFA
:104FD0008368A3601C9A1A9B9342824608D11B994E
:104FE00000F0DEF920B19DF818306371002727E149
:104FF0000799504600F0D4F90746C8B11A9B2360C0
:10500000B8F1000F9DF8183023710BDB1A9B984400
:105010001C9B43450CBF4FF006084FF0010884F875
:105020000680E3E718F1020FE0D10123A371DDE769
:10503000B8F1000FA9BF1C9B0897C8EB03030893A6
:1050400001230993069B4FF0000943F00103CDF8BB
:105050002890CB460B93DAF80C3005930AEBC30289
:105060000492059B002B00F0A380049BA568DB68DD
:105070000F95DA0748BF1A98CDF834B04FEA2321CC
:1050800048BF00688DF838B048BF41581A988DF86D
:1050900039B0014408988DF83AB04CBF0B9A069A83
:1050A00030B18842099E2CBF00200120B04278D048
:1050B0009B070DD418F1020F08D1AE0706D1059B4E
:1050C000013B0593049B083B0493CAE702F0FD02F1
:1050D000049B98680DAD036803951C9D02951B9D6C
:1050E0008DE822004146DD69079BA84761799DF85C
:1050F00039209DF83A501143062D0346617101D0C5
:10510000022D06D10D9B23609DF838302371A571C7
:105110004AE02268B9F1000F0ED16AB90D9A9DF8E4
:10512000385022602571002A36D0002934D0DAF8B0
:105130000820D50730D437E052B10D9B9A4205D1F3
:1051400022799DF838301343237124E02BB920B91C
:105150000D9B03B3B9F1000F1DD00329A67904D923
:10516000C80753D5A368990750D556B395B385EAB8
:105170000603DBB2032B3AD9032D07D90D9B23601D
:105180009DF8383023712E464FF00009B207A67102
:1051900056D4F30754D54B466279042A06D0994673
:1051A0008DE701230A938AE7074649E01F4647E057
:1051B0000A9B23B1099B13B1059B09934BE74F460B
:1051C0003EE0032D29D9EB070DD5DAF808309E070C
:1051D00009D522E0032E29D9F00706D5DAF80830E0
:1051E000990723D401E00126C1E70125BFE7354037
:1051F000EDB2032D05D9002323600223A3710127FB
:105200001EE00123C4F800B0A371C5E7002E08BF5B
:105210000126002D08BF0125A9E71C9B00934146EC
:105220001B9B0798FFF7B5FE06469FE71C9B009364
:105230000D9A1B9B07984146FFF7ABFE054696E784
:10524000384611B0BDE8F08F2DE9F04F89B08046A7
:10525000029192461C4600F0ECF80546002840F00A
:105260008580D4F80890D8F80C6019F0100F18BF9A
:10527000D8F8089009F0010308EBC6074FF0000BBF
:105280000393002E5FD0FA68CDF810B002F001034E
:10529000009312F002038DF814B0CDF81890CDF8F9
:1052A0001CB0019304D1039B13B9013E083FE8E70A
:1052B000BAF1000F07D0009B121213B1DAF80030D8
:1052C0009A58524400E05246B868029903689D69B2
:1052D00004ABA84705460028E7D0079B082B03D15D
:1052E000009B0BB1BB6807939DF81430032B01D9C9
:1052F000019A6AB3E168A9B904AB0FCB84E80F0047
:105300002379032B32D99A0704D5D8F8083013F043
:10531000010F05E0DB0729D5D8F8083013F0020F9C
:10532000C3D123E02368049A934202D00023236070
:1053300013E0ABB9079808280FD008290DD000F06A
:105340002FF868B909E02579003518BF01250DE06F
:1053500023F002038DF81430CCE70223237105E01B
:1053600022799DF81430134323719EE7284609B033
:10537000BDE8F08F10B5002814BF04460124204674
:1053800019F028F830B90DF0B7FC08B918F0DDFABB
:105390008047F4E710BDFFF7EDBF7047002070476E
:1053A000814208B50ED0406803782A2B0CD049689A
:1053B0000B782A2B08BF01311AF035FDB0FA80F0C6
:1053C000400908BD012008BD002008BD7FB510239D
:1053D00002930368002415469E6900946B468DF87D
:1053E000044003941268B0479DF8043003F00603AC
:1053F000062B03BF009B2B600120204604B070BD2C
:10540000009890420CBF06200120704710B5034B56
:1054100003600446FFF7C1FF204610BDAC7B0208C5
:1054200010B50446FFF7F2FF2046FFF7E0FC2046E8
:1054300010BD38B515461C46FFF7B2FF20B1082352
:10544000E36006232560237138BD2DE9F041069EF7
:10545000099C9846089B9E420746154603D107992A
:10546000FFF79EFF48B941463846FFF799FF28B13C
:10547000012326602571A37100E065710020BDE85D
:10548000F0812DE9F04105460C4616461F46FFF710
:1054900087FF48B9032F07D823683246294620469C
:1054A0005B69BDE8F0411847BDE8F081C3689A68C0
:1054B000C26002B1506042685A600A68904201D1ED
:1054C0000B6005E04268916888420CBF9360D3602E
:1054D0009860436070478368DA68826002B1506008
:1054E00042685A600A68904201D10B6005E0426848
:1054F000D16888420CBFD3609360D8604360704726
:1055000003782BB943685B68984201D1C3680CE00B
:1055100083681BB1DA6842B11346FBE743689A68B7
:10552000824202D118465B68F9E718467047C368A3
:1055300023B118469B68002BFBD10AE04368DA6868
:10554000824202D118465B68F9E7C268934218BFED
:1055500018467047FFF7D4BF2DE9F0471F4603F107
:10556000040900230C464A608B60CB600B7068B165
:105570009742916001D179600CE0BB689A4208BF04
:10558000B9604FF001084FF0000A17E0D160FB68E6
:105590009A42F6D1FC60F4E766683278002A3AD184
:1055A0007568AB689E421FD1EB685BB11A784AB947
:1055B00086F8008083F800802A702C467B689C4225
:1055C000EAD128E0F3689C4204D149463046FFF70F
:1055D0006DFF34466368494683F80080284685F8A5
:1055E00000A0FFF778FF14E013B11A78002ADFD08B
:1055F000B3689C4204D149463046FFF76CFF3446FD
:105600006368494683F80080284685F800A0FFF7C4
:105610004DFF2546D1E701221A70BDE8F087000052
:105620002DE9F843334D2B685A1C07462A60002B9E
:105630005CD1314C314B3248DFF8F080DFF8F0902C
:10564000304E01221A702368996800F021FB23680C
:105650002D48596800F01CFB23682C48D96800F0DD
:1056600017FB274940460CF0A7FB2749484600F0A6
:1056700009F9264930460CF09FFB244924480CF0D8
:105680009BFB3369C6F8748043F40053336123688D
:10569000C9F8788099681F481F4EDFF8988000F09D
:1056A00007FB23681D48596800F002FB23681C486B
:1056B000D9681C4C00F0FCFA164930460CF0F2FB9D
:1056C0001649404600F048F9154920460CF0EAFB1F
:1056D000134915480CF0E6FB2369C8F8786043F4D9
:1056E000005323612B68666701332B603846BDE8A1
:1056F000F88300BF9407002084020020A40100204A
:10570000341C00201C170020381A002084190020A7
:10571000801B00205C190020A8170020F416002030
:105720000C1C0020601A0020CC180020AC190020AE
:10573000F01A0020381800200D4A1368591E022B59
:1057400010B50446116011D10A480CF088FB0A48D4
:105750000CF085FB09480CF082FB09480CF0F5FBC6
:1057600008480CF0F2FB08480CF0EFFB204610BD97
:1057700094070020AC1900201C170020801B00207B
:10578000A8170020601A0020CC1800200CCA0EF0C8
:1057900016BB00000F4B10B50446036000234360A6
:1057A0008360C360036143618361C361036200F18D
:1057B000240204F16C012C3040F8083C40F8043C11
:1057C00008308842F8D108236366A2660EF0DCFE3A
:1057D000204610BD1C7C020870B5846905460E4643
:1057E00034B16368A2682946304698472468F7E7D1
:1057F00070BD38B50446806940B1C3685A1EC260A6
:1058000023B90568FFF7F3FA2846F5E70023A361FB
:1058100038BD00000C4B10B5002104460360FFF7B3
:10582000DBFF2046FFF7E5FFA06E04F1240398425A
:1058300004D008B1FFF772FA0023A36604F16C00EC
:105840000DF016FC204610BD1C7C020810B5044665
:10585000FFF7E0FF2046FFF7CAFA204610BD0B68AD
:1058600010B503600446486853F80C1C60500021D2
:10587000616053F80C0C114620440CF015FA2046D8
:1058800010BD000070B500F10805044628460E461C
:105890000CF0D6F9054B23601433A360002328468F
:1058A000636031460CF000FA204670BD387C020877
:1058B00038B504460D4609B9136800E00D4B236066
:1058C00015B953F80C3C00E0082323440DB9526885
:1058D00000E0094A1A600023AA07636003D504F1B7
:1058E00008000CF071F9EB0702D52046FFF77FFAAC
:1058F000204638BD387C02084C7C02080022022178
:10590000FFF7D6BF036853F80C3C1844F6E710B510
:105910000446FFF7F3FF2046FFF769FA204610BD63
:10592000036853F80C3C1844F1E70A460021FFF7DE
:10593000BFBF0B6810B503600446486853F80C1CE1
:1059400060500021616053F80C0C114620440CF0AB
:105950000EFA204610BD000070B500F1080504469F
:1059600028460E460CF0CEF9054B23601433A36095
:1059700000232846636031460CF0F9F9204670BDDB
:10598000687C020838B504460D4609B9136800E082
:105990000D4B236015B953F80C3C00E00823234459
:1059A0000DB9526800E0094A1A600023AA07636033
:1059B00003D504F108000CF011F9EB0702D52046DD
:1059C000FFF715FA204638BD687C02087C7C020887
:1059D00000220221FFF7D6BF036853F80C3C18449D
:1059E000F6E710B50446FFF7F3FF2046FFF7FFF98F
:1059F000204610BD036853F80C3C1844F1E70A46F2
:105A00000021FFF7BFBF03689B68184782B037B516
:105A100006AD85E80C000A9A0B68019200220092FC
:105A20001D69DDE906230446A847204603B0BDE80A
:105A3000304002B0704782B037B506AD85E80C0043
:105A40000A9A0B680192002200921D69DDE9062383
:105A50000446A847204603B0BDE8304002B0704776
:105A600010B5034B036004460CF0F8FA204610BD55
:105A7000287D020810B5034B036004460CF0E2FADF
:105A8000204610BDE87C020810B50446FFF7F2FF7F
:105A90002046FFF7ACF9204610BD10B50446FFF7CD
:105AA000DFFF2046FFF7A3F9204610BD10B50446DE
:105AB000006A18F015FB606210BD10B50446006A5C
:105AC00018F00EFB216ABDE810401CF0C1B94A1C59
:105AD00010B50446084602D1606A431C02D0216A10
